
VAC.elf:     file format elf32-littlearm

Sections:
Idx Name          Size      VMA       LMA       File off  Algn
  0 .isr_vector   0000010c  08000000  08000000  00010000  2**0
                  CONTENTS, ALLOC, LOAD, READONLY, DATA
  1 .text         00004124  0800010c  0800010c  0001010c  2**2
                  CONTENTS, ALLOC, LOAD, READONLY, CODE
  2 .rodata       00000074  08004230  08004230  00014230  2**2
                  CONTENTS, ALLOC, LOAD, READONLY, DATA
  3 .ARM.extab    00000000  080042a4  080042a4  00020070  2**0
                  CONTENTS
  4 .ARM          00000000  080042a4  080042a4  00020070  2**0
                  CONTENTS
  5 .preinit_array 00000000  080042a4  080042a4  00020070  2**0
                  CONTENTS, ALLOC, LOAD, DATA
  6 .init_array   00000004  080042a4  080042a4  000142a4  2**2
                  CONTENTS, ALLOC, LOAD, DATA
  7 .fini_array   00000004  080042a8  080042a8  000142a8  2**2
                  CONTENTS, ALLOC, LOAD, DATA
  8 .data         00000070  20000000  080042ac  00020000  2**2
                  CONTENTS, ALLOC, LOAD, DATA
  9 .bss          00000158  20000070  0800431c  00020070  2**2
                  ALLOC
 10 ._user_heap_stack 00000600  200001c8  0800431c  000201c8  2**0
                  ALLOC
 11 .ARM.attributes 00000029  00000000  00000000  00020070  2**0
                  CONTENTS, READONLY
 12 .debug_info   0000caee  00000000  00000000  00020099  2**0
                  CONTENTS, READONLY, DEBUGGING, OCTETS
 13 .debug_abbrev 000020ff  00000000  00000000  0002cb87  2**0
                  CONTENTS, READONLY, DEBUGGING, OCTETS
 14 .debug_aranges 00000db8  00000000  00000000  0002ec88  2**3
                  CONTENTS, READONLY, DEBUGGING, OCTETS
 15 .debug_ranges 00000ce0  00000000  00000000  0002fa40  2**3
                  CONTENTS, READONLY, DEBUGGING, OCTETS
 16 .debug_macro  0001836e  00000000  00000000  00030720  2**0
                  CONTENTS, READONLY, DEBUGGING, OCTETS
 17 .debug_line   0000eb36  00000000  00000000  00048a8e  2**0
                  CONTENTS, READONLY, DEBUGGING, OCTETS
 18 .debug_str    0008d4a0  00000000  00000000  000575c4  2**0
                  CONTENTS, READONLY, DEBUGGING, OCTETS
 19 .comment      00000050  00000000  00000000  000e4a64  2**0
                  CONTENTS, READONLY
 20 .debug_frame  00003d18  00000000  00000000  000e4ab4  2**2
                  CONTENTS, READONLY, DEBUGGING, OCTETS

Disassembly of section .text:

0800010c <__do_global_dtors_aux>:
 800010c:	b510      	push	{r4, lr}
 800010e:	4c05      	ldr	r4, [pc, #20]	; (8000124 <__do_global_dtors_aux+0x18>)
 8000110:	7823      	ldrb	r3, [r4, #0]
 8000112:	b933      	cbnz	r3, 8000122 <__do_global_dtors_aux+0x16>
 8000114:	4b04      	ldr	r3, [pc, #16]	; (8000128 <__do_global_dtors_aux+0x1c>)
 8000116:	b113      	cbz	r3, 800011e <__do_global_dtors_aux+0x12>
 8000118:	4804      	ldr	r0, [pc, #16]	; (800012c <__do_global_dtors_aux+0x20>)
 800011a:	f3af 8000 	nop.w
 800011e:	2301      	movs	r3, #1
 8000120:	7023      	strb	r3, [r4, #0]
 8000122:	bd10      	pop	{r4, pc}
 8000124:	20000070 	.word	0x20000070
 8000128:	00000000 	.word	0x00000000
 800012c:	08004218 	.word	0x08004218

08000130 <frame_dummy>:
 8000130:	b508      	push	{r3, lr}
 8000132:	4b03      	ldr	r3, [pc, #12]	; (8000140 <frame_dummy+0x10>)
 8000134:	b11b      	cbz	r3, 800013e <frame_dummy+0xe>
 8000136:	4903      	ldr	r1, [pc, #12]	; (8000144 <frame_dummy+0x14>)
 8000138:	4803      	ldr	r0, [pc, #12]	; (8000148 <frame_dummy+0x18>)
 800013a:	f3af 8000 	nop.w
 800013e:	bd08      	pop	{r3, pc}
 8000140:	00000000 	.word	0x00000000
 8000144:	20000074 	.word	0x20000074
 8000148:	08004218 	.word	0x08004218

0800014c <main>:
/**
  * @brief  The application entry point.
  * @retval int
  */
int main(void)
{
 800014c:	b580      	push	{r7, lr}
 800014e:	b082      	sub	sp, #8
 8000150:	af00      	add	r7, sp, #0
  /* USER CODE BEGIN 1 */
	uint8_t i= 0;
 8000152:	2300      	movs	r3, #0
 8000154:	71fb      	strb	r3, [r7, #7]
  /* USER CODE END 1 */

  /* MCU Configuration--------------------------------------------------------*/

  /* Reset of all peripherals, Initializes the Flash interface and the Systick. */
  HAL_Init();
 8000156:	f000 fbfd 	bl	8000954 <HAL_Init>
  /* USER CODE BEGIN Init */

  /* USER CODE END Init */

  /* Configure the system clock */
  SystemClock_Config();
 800015a:	f000 f86b 	bl	8000234 <SystemClock_Config>
  /* USER CODE BEGIN SysInit */

  /* USER CODE END SysInit */

  /* Initialize all configured peripherals */
  MX_GPIO_Init();
 800015e:	f000 f9c9 	bl	80004f4 <MX_GPIO_Init>
  MX_DMA_Init();
 8000162:	f000 f9a9 	bl	80004b8 <MX_DMA_Init>
  MX_ADC1_Init();
 8000166:	f000 f8c1 	bl	80002ec <MX_ADC1_Init>
  MX_TIM1_Init();
 800016a:	f000 f8fd 	bl	8000368 <MX_TIM1_Init>
  MX_USART2_UART_Init();
 800016e:	f000 f97d 	bl	800046c <MX_USART2_UART_Init>
  /* USER CODE BEGIN 2 */
  HAL_TIM_PWM_Start(&htim1, TIM_CHANNEL_1 );
 8000172:	2100      	movs	r1, #0
 8000174:	4827      	ldr	r0, [pc, #156]	; (8000214 <main+0xc8>)
 8000176:	f002 fc39 	bl	80029ec <HAL_TIM_PWM_Start>
  HAL_ADCEx_Calibration_Start(&hadc1);
 800017a:	4827      	ldr	r0, [pc, #156]	; (8000218 <main+0xcc>)
 800017c:	f001 f99e 	bl	80014bc <HAL_ADCEx_Calibration_Start>

  /* Infinite loop */
  /* USER CODE BEGIN WHILE */
  while (1)
  {
	  	  if(i<255)
 8000180:	79fb      	ldrb	r3, [r7, #7]
 8000182:	2bff      	cmp	r3, #255	; 0xff
 8000184:	d029      	beq.n	80001da <main+0x8e>
	  	  {
	  		  TIM1->CCR1 = i;
 8000186:	4a25      	ldr	r2, [pc, #148]	; (800021c <main+0xd0>)
 8000188:	79fb      	ldrb	r3, [r7, #7]
 800018a:	6353      	str	r3, [r2, #52]	; 0x34
	  		  HAL_ADC_Start(&hadc1);
 800018c:	4822      	ldr	r0, [pc, #136]	; (8000218 <main+0xcc>)
 800018e:	f000 fd3f 	bl	8000c10 <HAL_ADC_Start>
	  		  HAL_ADC_PollForConversion(&hadc1,100);
 8000192:	2164      	movs	r1, #100	; 0x64
 8000194:	4820      	ldr	r0, [pc, #128]	; (8000218 <main+0xcc>)
 8000196:	f000 fe15 	bl	8000dc4 <HAL_ADC_PollForConversion>
	  		  adc_value = HAL_ADC_GetValue(&hadc1);
 800019a:	481f      	ldr	r0, [pc, #124]	; (8000218 <main+0xcc>)
 800019c:	f000 ff18 	bl	8000fd0 <HAL_ADC_GetValue>
 80001a0:	4603      	mov	r3, r0
 80001a2:	b29a      	uxth	r2, r3
 80001a4:	4b1e      	ldr	r3, [pc, #120]	; (8000220 <main+0xd4>)
 80001a6:	801a      	strh	r2, [r3, #0]
	  		  HAL_UART_Transmit(&huart2,msg,sprintf((char*)msg,"%d\n\r",adc_value),0xFFFFFF);
 80001a8:	4b1d      	ldr	r3, [pc, #116]	; (8000220 <main+0xd4>)
 80001aa:	881b      	ldrh	r3, [r3, #0]
 80001ac:	461a      	mov	r2, r3
 80001ae:	491d      	ldr	r1, [pc, #116]	; (8000224 <main+0xd8>)
 80001b0:	481d      	ldr	r0, [pc, #116]	; (8000228 <main+0xdc>)
 80001b2:	f003 fbb7 	bl	8003924 <siprintf>
 80001b6:	4603      	mov	r3, r0
 80001b8:	b29a      	uxth	r2, r3
 80001ba:	f06f 437f 	mvn.w	r3, #4278190080	; 0xff000000
 80001be:	491a      	ldr	r1, [pc, #104]	; (8000228 <main+0xdc>)
 80001c0:	481a      	ldr	r0, [pc, #104]	; (800022c <main+0xe0>)
 80001c2:	f003 fa13 	bl	80035ec <HAL_UART_Transmit>
	  		  HAL_ADC_Stop(&hadc1);
 80001c6:	4814      	ldr	r0, [pc, #80]	; (8000218 <main+0xcc>)
 80001c8:	f000 fdd0 	bl	8000d6c <HAL_ADC_Stop>
	  		  i++;
 80001cc:	79fb      	ldrb	r3, [r7, #7]
 80001ce:	3301      	adds	r3, #1
 80001d0:	71fb      	strb	r3, [r7, #7]
	  		  HAL_Delay(10);
 80001d2:	200a      	movs	r0, #10
 80001d4:	f000 fc20 	bl	8000a18 <HAL_Delay>
 80001d8:	e7d2      	b.n	8000180 <main+0x34>

	  	  }
	  	  else
	  	  {
	  		  HAL_TIM_PWM_Stop(&htim1,TIM_CHANNEL_1);
 80001da:	2100      	movs	r1, #0
 80001dc:	480d      	ldr	r0, [pc, #52]	; (8000214 <main+0xc8>)
 80001de:	f002 fca1 	bl	8002b24 <HAL_TIM_PWM_Stop>
	  		  while(i=255)
 80001e2:	e013      	b.n	800020c <main+0xc0>
	  		  {
	  			  HAL_GPIO_WritePin(Board_LED_GPIO_Port, Board_LED_Pin, GPIO_PIN_SET);
 80001e4:	2201      	movs	r2, #1
 80001e6:	f44f 5100 	mov.w	r1, #8192	; 0x2000
 80001ea:	4811      	ldr	r0, [pc, #68]	; (8000230 <main+0xe4>)
 80001ec:	f001 fe06 	bl	8001dfc <HAL_GPIO_WritePin>
	  			  HAL_Delay(1000);
 80001f0:	f44f 707a 	mov.w	r0, #1000	; 0x3e8
 80001f4:	f000 fc10 	bl	8000a18 <HAL_Delay>
	  			  HAL_GPIO_WritePin(Board_LED_GPIO_Port, Board_LED_Pin, GPIO_PIN_RESET);
 80001f8:	2200      	movs	r2, #0
 80001fa:	f44f 5100 	mov.w	r1, #8192	; 0x2000
 80001fe:	480c      	ldr	r0, [pc, #48]	; (8000230 <main+0xe4>)
 8000200:	f001 fdfc 	bl	8001dfc <HAL_GPIO_WritePin>
	  			  HAL_Delay(1000);
 8000204:	f44f 707a 	mov.w	r0, #1000	; 0x3e8
 8000208:	f000 fc06 	bl	8000a18 <HAL_Delay>
	  		  while(i=255)
 800020c:	23ff      	movs	r3, #255	; 0xff
 800020e:	71fb      	strb	r3, [r7, #7]
 8000210:	e7e8      	b.n	80001e4 <main+0x98>
 8000212:	bf00      	nop
 8000214:	20000100 	.word	0x20000100
 8000218:	2000008c 	.word	0x2000008c
 800021c:	40012c00 	.word	0x40012c00
 8000220:	2000018c 	.word	0x2000018c
 8000224:	08004230 	.word	0x08004230
 8000228:	20000190 	.word	0x20000190
 800022c:	20000148 	.word	0x20000148
 8000230:	40011000 	.word	0x40011000

08000234 <SystemClock_Config>:
/**
  * @brief System Clock Configuration
  * @retval None
  */
void SystemClock_Config(void)
{
 8000234:	b580      	push	{r7, lr}
 8000236:	b094      	sub	sp, #80	; 0x50
 8000238:	af00      	add	r7, sp, #0
  RCC_OscInitTypeDef RCC_OscInitStruct = {0};
 800023a:	f107 0328 	add.w	r3, r7, #40	; 0x28
 800023e:	2228      	movs	r2, #40	; 0x28
 8000240:	2100      	movs	r1, #0
 8000242:	4618      	mov	r0, r3
 8000244:	f003 fb66 	bl	8003914 <memset>
  RCC_ClkInitTypeDef RCC_ClkInitStruct = {0};
 8000248:	f107 0314 	add.w	r3, r7, #20
 800024c:	2200      	movs	r2, #0
 800024e:	601a      	str	r2, [r3, #0]
 8000250:	605a      	str	r2, [r3, #4]
 8000252:	609a      	str	r2, [r3, #8]
 8000254:	60da      	str	r2, [r3, #12]
 8000256:	611a      	str	r2, [r3, #16]
  RCC_PeriphCLKInitTypeDef PeriphClkInit = {0};
 8000258:	1d3b      	adds	r3, r7, #4
 800025a:	2200      	movs	r2, #0
 800025c:	601a      	str	r2, [r3, #0]
 800025e:	605a      	str	r2, [r3, #4]
 8000260:	609a      	str	r2, [r3, #8]
 8000262:	60da      	str	r2, [r3, #12]

  /** Initializes the RCC Oscillators according to the specified parameters
  * in the RCC_OscInitTypeDef structure.
  */
  RCC_OscInitStruct.OscillatorType = RCC_OSCILLATORTYPE_HSE;
 8000264:	2301      	movs	r3, #1
 8000266:	62bb      	str	r3, [r7, #40]	; 0x28
  RCC_OscInitStruct.HSEState = RCC_HSE_ON;
 8000268:	f44f 3380 	mov.w	r3, #65536	; 0x10000
 800026c:	62fb      	str	r3, [r7, #44]	; 0x2c
  RCC_OscInitStruct.HSEPredivValue = RCC_HSE_PREDIV_DIV1;
 800026e:	2300      	movs	r3, #0
 8000270:	633b      	str	r3, [r7, #48]	; 0x30
  RCC_OscInitStruct.HSIState = RCC_HSI_ON;
 8000272:	2301      	movs	r3, #1
 8000274:	63bb      	str	r3, [r7, #56]	; 0x38
  RCC_OscInitStruct.PLL.PLLState = RCC_PLL_ON;
 8000276:	2302      	movs	r3, #2
 8000278:	647b      	str	r3, [r7, #68]	; 0x44
  RCC_OscInitStruct.PLL.PLLSource = RCC_PLLSOURCE_HSE;
 800027a:	f44f 3380 	mov.w	r3, #65536	; 0x10000
 800027e:	64bb      	str	r3, [r7, #72]	; 0x48
  RCC_OscInitStruct.PLL.PLLMUL = RCC_PLL_MUL9;
 8000280:	f44f 13e0 	mov.w	r3, #1835008	; 0x1c0000
 8000284:	64fb      	str	r3, [r7, #76]	; 0x4c
  if (HAL_RCC_OscConfig(&RCC_OscInitStruct) != HAL_OK)
 8000286:	f107 0328 	add.w	r3, r7, #40	; 0x28
 800028a:	4618      	mov	r0, r3
 800028c:	f001 fdce 	bl	8001e2c <HAL_RCC_OscConfig>
 8000290:	4603      	mov	r3, r0
 8000292:	2b00      	cmp	r3, #0
 8000294:	d001      	beq.n	800029a <SystemClock_Config+0x66>
  {
    Error_Handler();
 8000296:	f000 f979 	bl	800058c <Error_Handler>
  }

  /** Initializes the CPU, AHB and APB buses clocks
  */
  RCC_ClkInitStruct.ClockType = RCC_CLOCKTYPE_HCLK|RCC_CLOCKTYPE_SYSCLK
 800029a:	230f      	movs	r3, #15
 800029c:	617b      	str	r3, [r7, #20]
                              |RCC_CLOCKTYPE_PCLK1|RCC_CLOCKTYPE_PCLK2;
  RCC_ClkInitStruct.SYSCLKSource = RCC_SYSCLKSOURCE_PLLCLK;
 800029e:	2302      	movs	r3, #2
 80002a0:	61bb      	str	r3, [r7, #24]
  RCC_ClkInitStruct.AHBCLKDivider = RCC_SYSCLK_DIV1;
 80002a2:	2300      	movs	r3, #0
 80002a4:	61fb      	str	r3, [r7, #28]
  RCC_ClkInitStruct.APB1CLKDivider = RCC_HCLK_DIV2;
 80002a6:	f44f 6380 	mov.w	r3, #1024	; 0x400
 80002aa:	623b      	str	r3, [r7, #32]
  RCC_ClkInitStruct.APB2CLKDivider = RCC_HCLK_DIV1;
 80002ac:	2300      	movs	r3, #0
 80002ae:	627b      	str	r3, [r7, #36]	; 0x24

  if (HAL_RCC_ClockConfig(&RCC_ClkInitStruct, FLASH_LATENCY_2) != HAL_OK)
 80002b0:	f107 0314 	add.w	r3, r7, #20
 80002b4:	2102      	movs	r1, #2
 80002b6:	4618      	mov	r0, r3
 80002b8:	f002 f83a 	bl	8002330 <HAL_RCC_ClockConfig>
 80002bc:	4603      	mov	r3, r0
 80002be:	2b00      	cmp	r3, #0
 80002c0:	d001      	beq.n	80002c6 <SystemClock_Config+0x92>
  {
    Error_Handler();
 80002c2:	f000 f963 	bl	800058c <Error_Handler>
  }
  PeriphClkInit.PeriphClockSelection = RCC_PERIPHCLK_ADC;
 80002c6:	2302      	movs	r3, #2
 80002c8:	607b      	str	r3, [r7, #4]
  PeriphClkInit.AdcClockSelection = RCC_ADCPCLK2_DIV6;
 80002ca:	f44f 4300 	mov.w	r3, #32768	; 0x8000
 80002ce:	60fb      	str	r3, [r7, #12]
  if (HAL_RCCEx_PeriphCLKConfig(&PeriphClkInit) != HAL_OK)
 80002d0:	1d3b      	adds	r3, r7, #4
 80002d2:	4618      	mov	r0, r3
 80002d4:	f002 f9c4 	bl	8002660 <HAL_RCCEx_PeriphCLKConfig>
 80002d8:	4603      	mov	r3, r0
 80002da:	2b00      	cmp	r3, #0
 80002dc:	d001      	beq.n	80002e2 <SystemClock_Config+0xae>
  {
    Error_Handler();
 80002de:	f000 f955 	bl	800058c <Error_Handler>
  }
}
 80002e2:	bf00      	nop
 80002e4:	3750      	adds	r7, #80	; 0x50
 80002e6:	46bd      	mov	sp, r7
 80002e8:	bd80      	pop	{r7, pc}
	...

080002ec <MX_ADC1_Init>:
  * @brief ADC1 Initialization Function
  * @param None
  * @retval None
  */
static void MX_ADC1_Init(void)
{
 80002ec:	b580      	push	{r7, lr}
 80002ee:	b084      	sub	sp, #16
 80002f0:	af00      	add	r7, sp, #0

  /* USER CODE BEGIN ADC1_Init 0 */

  /* USER CODE END ADC1_Init 0 */

  ADC_ChannelConfTypeDef sConfig = {0};
 80002f2:	1d3b      	adds	r3, r7, #4
 80002f4:	2200      	movs	r2, #0
 80002f6:	601a      	str	r2, [r3, #0]
 80002f8:	605a      	str	r2, [r3, #4]
 80002fa:	609a      	str	r2, [r3, #8]

  /* USER CODE END ADC1_Init 1 */

  /** Common config
  */
  hadc1.Instance = ADC1;
 80002fc:	4b18      	ldr	r3, [pc, #96]	; (8000360 <MX_ADC1_Init+0x74>)
 80002fe:	4a19      	ldr	r2, [pc, #100]	; (8000364 <MX_ADC1_Init+0x78>)
 8000300:	601a      	str	r2, [r3, #0]
  hadc1.Init.ScanConvMode = ADC_SCAN_DISABLE;
 8000302:	4b17      	ldr	r3, [pc, #92]	; (8000360 <MX_ADC1_Init+0x74>)
 8000304:	2200      	movs	r2, #0
 8000306:	609a      	str	r2, [r3, #8]
  hadc1.Init.ContinuousConvMode = DISABLE;
 8000308:	4b15      	ldr	r3, [pc, #84]	; (8000360 <MX_ADC1_Init+0x74>)
 800030a:	2200      	movs	r2, #0
 800030c:	731a      	strb	r2, [r3, #12]
  hadc1.Init.DiscontinuousConvMode = DISABLE;
 800030e:	4b14      	ldr	r3, [pc, #80]	; (8000360 <MX_ADC1_Init+0x74>)
 8000310:	2200      	movs	r2, #0
 8000312:	751a      	strb	r2, [r3, #20]
  hadc1.Init.ExternalTrigConv = ADC_SOFTWARE_START;
 8000314:	4b12      	ldr	r3, [pc, #72]	; (8000360 <MX_ADC1_Init+0x74>)
 8000316:	f44f 2260 	mov.w	r2, #917504	; 0xe0000
 800031a:	61da      	str	r2, [r3, #28]
  hadc1.Init.DataAlign = ADC_DATAALIGN_RIGHT;
 800031c:	4b10      	ldr	r3, [pc, #64]	; (8000360 <MX_ADC1_Init+0x74>)
 800031e:	2200      	movs	r2, #0
 8000320:	605a      	str	r2, [r3, #4]
  hadc1.Init.NbrOfConversion = 1;
 8000322:	4b0f      	ldr	r3, [pc, #60]	; (8000360 <MX_ADC1_Init+0x74>)
 8000324:	2201      	movs	r2, #1
 8000326:	611a      	str	r2, [r3, #16]
  if (HAL_ADC_Init(&hadc1) != HAL_OK)
 8000328:	480d      	ldr	r0, [pc, #52]	; (8000360 <MX_ADC1_Init+0x74>)
 800032a:	f000 fb99 	bl	8000a60 <HAL_ADC_Init>
 800032e:	4603      	mov	r3, r0
 8000330:	2b00      	cmp	r3, #0
 8000332:	d001      	beq.n	8000338 <MX_ADC1_Init+0x4c>
  {
    Error_Handler();
 8000334:	f000 f92a 	bl	800058c <Error_Handler>
  }

  /** Configure Regular Channel
  */
  sConfig.Channel = ADC_CHANNEL_5;
 8000338:	2305      	movs	r3, #5
 800033a:	607b      	str	r3, [r7, #4]
  sConfig.Rank = ADC_REGULAR_RANK_1;
 800033c:	2301      	movs	r3, #1
 800033e:	60bb      	str	r3, [r7, #8]
  sConfig.SamplingTime = ADC_SAMPLETIME_71CYCLES_5;
 8000340:	2306      	movs	r3, #6
 8000342:	60fb      	str	r3, [r7, #12]
  if (HAL_ADC_ConfigChannel(&hadc1, &sConfig) != HAL_OK)
 8000344:	1d3b      	adds	r3, r7, #4
 8000346:	4619      	mov	r1, r3
 8000348:	4805      	ldr	r0, [pc, #20]	; (8000360 <MX_ADC1_Init+0x74>)
 800034a:	f000 ff23 	bl	8001194 <HAL_ADC_ConfigChannel>
 800034e:	4603      	mov	r3, r0
 8000350:	2b00      	cmp	r3, #0
 8000352:	d001      	beq.n	8000358 <MX_ADC1_Init+0x6c>
  {
    Error_Handler();
 8000354:	f000 f91a 	bl	800058c <Error_Handler>
  }
  /* USER CODE BEGIN ADC1_Init 2 */

  /* USER CODE END ADC1_Init 2 */

}
 8000358:	bf00      	nop
 800035a:	3710      	adds	r7, #16
 800035c:	46bd      	mov	sp, r7
 800035e:	bd80      	pop	{r7, pc}
 8000360:	2000008c 	.word	0x2000008c
 8000364:	40012400 	.word	0x40012400

08000368 <MX_TIM1_Init>:
  * @brief TIM1 Initialization Function
  * @param None
  * @retval None
  */
static void MX_TIM1_Init(void)
{
 8000368:	b580      	push	{r7, lr}
 800036a:	b092      	sub	sp, #72	; 0x48
 800036c:	af00      	add	r7, sp, #0

  /* USER CODE BEGIN TIM1_Init 0 */

  /* USER CODE END TIM1_Init 0 */

  TIM_MasterConfigTypeDef sMasterConfig = {0};
 800036e:	f107 0340 	add.w	r3, r7, #64	; 0x40
 8000372:	2200      	movs	r2, #0
 8000374:	601a      	str	r2, [r3, #0]
 8000376:	605a      	str	r2, [r3, #4]
  TIM_OC_InitTypeDef sConfigOC = {0};
 8000378:	f107 0324 	add.w	r3, r7, #36	; 0x24
 800037c:	2200      	movs	r2, #0
 800037e:	601a      	str	r2, [r3, #0]
 8000380:	605a      	str	r2, [r3, #4]
 8000382:	609a      	str	r2, [r3, #8]
 8000384:	60da      	str	r2, [r3, #12]
 8000386:	611a      	str	r2, [r3, #16]
 8000388:	615a      	str	r2, [r3, #20]
 800038a:	619a      	str	r2, [r3, #24]
  TIM_BreakDeadTimeConfigTypeDef sBreakDeadTimeConfig = {0};
 800038c:	1d3b      	adds	r3, r7, #4
 800038e:	2220      	movs	r2, #32
 8000390:	2100      	movs	r1, #0
 8000392:	4618      	mov	r0, r3
 8000394:	f003 fabe 	bl	8003914 <memset>

  /* USER CODE BEGIN TIM1_Init 1 */

  /* USER CODE END TIM1_Init 1 */
  htim1.Instance = TIM1;
 8000398:	4b32      	ldr	r3, [pc, #200]	; (8000464 <MX_TIM1_Init+0xfc>)
 800039a:	4a33      	ldr	r2, [pc, #204]	; (8000468 <MX_TIM1_Init+0x100>)
 800039c:	601a      	str	r2, [r3, #0]
  htim1.Init.Prescaler = 8;
 800039e:	4b31      	ldr	r3, [pc, #196]	; (8000464 <MX_TIM1_Init+0xfc>)
 80003a0:	2208      	movs	r2, #8
 80003a2:	605a      	str	r2, [r3, #4]
  htim1.Init.CounterMode = TIM_COUNTERMODE_UP;
 80003a4:	4b2f      	ldr	r3, [pc, #188]	; (8000464 <MX_TIM1_Init+0xfc>)
 80003a6:	2200      	movs	r2, #0
 80003a8:	609a      	str	r2, [r3, #8]
  htim1.Init.Period = 255;
 80003aa:	4b2e      	ldr	r3, [pc, #184]	; (8000464 <MX_TIM1_Init+0xfc>)
 80003ac:	22ff      	movs	r2, #255	; 0xff
 80003ae:	60da      	str	r2, [r3, #12]
  htim1.Init.ClockDivision = TIM_CLOCKDIVISION_DIV1;
 80003b0:	4b2c      	ldr	r3, [pc, #176]	; (8000464 <MX_TIM1_Init+0xfc>)
 80003b2:	2200      	movs	r2, #0
 80003b4:	611a      	str	r2, [r3, #16]
  htim1.Init.RepetitionCounter = 0;
 80003b6:	4b2b      	ldr	r3, [pc, #172]	; (8000464 <MX_TIM1_Init+0xfc>)
 80003b8:	2200      	movs	r2, #0
 80003ba:	615a      	str	r2, [r3, #20]
  htim1.Init.AutoReloadPreload = TIM_AUTORELOAD_PRELOAD_DISABLE;
 80003bc:	4b29      	ldr	r3, [pc, #164]	; (8000464 <MX_TIM1_Init+0xfc>)
 80003be:	2200      	movs	r2, #0
 80003c0:	619a      	str	r2, [r3, #24]
  if (HAL_TIM_PWM_Init(&htim1) != HAL_OK)
 80003c2:	4828      	ldr	r0, [pc, #160]	; (8000464 <MX_TIM1_Init+0xfc>)
 80003c4:	f002 fac2 	bl	800294c <HAL_TIM_PWM_Init>
 80003c8:	4603      	mov	r3, r0
 80003ca:	2b00      	cmp	r3, #0
 80003cc:	d001      	beq.n	80003d2 <MX_TIM1_Init+0x6a>
  {
    Error_Handler();
 80003ce:	f000 f8dd 	bl	800058c <Error_Handler>
  }
  sMasterConfig.MasterOutputTrigger = TIM_TRGO_RESET;
 80003d2:	2300      	movs	r3, #0
 80003d4:	643b      	str	r3, [r7, #64]	; 0x40
  sMasterConfig.MasterSlaveMode = TIM_MASTERSLAVEMODE_DISABLE;
 80003d6:	2300      	movs	r3, #0
 80003d8:	647b      	str	r3, [r7, #68]	; 0x44
  if (HAL_TIMEx_MasterConfigSynchronization(&htim1, &sMasterConfig) != HAL_OK)
 80003da:	f107 0340 	add.w	r3, r7, #64	; 0x40
 80003de:	4619      	mov	r1, r3
 80003e0:	4820      	ldr	r0, [pc, #128]	; (8000464 <MX_TIM1_Init+0xfc>)
 80003e2:	f002 fffb 	bl	80033dc <HAL_TIMEx_MasterConfigSynchronization>
 80003e6:	4603      	mov	r3, r0
 80003e8:	2b00      	cmp	r3, #0
 80003ea:	d001      	beq.n	80003f0 <MX_TIM1_Init+0x88>
  {
    Error_Handler();
 80003ec:	f000 f8ce 	bl	800058c <Error_Handler>
  }
  sConfigOC.OCMode = TIM_OCMODE_PWM1;
 80003f0:	2360      	movs	r3, #96	; 0x60
 80003f2:	627b      	str	r3, [r7, #36]	; 0x24
  sConfigOC.Pulse = 0;
 80003f4:	2300      	movs	r3, #0
 80003f6:	62bb      	str	r3, [r7, #40]	; 0x28
  sConfigOC.OCPolarity = TIM_OCPOLARITY_HIGH;
 80003f8:	2300      	movs	r3, #0
 80003fa:	62fb      	str	r3, [r7, #44]	; 0x2c
  sConfigOC.OCNPolarity = TIM_OCNPOLARITY_HIGH;
 80003fc:	2300      	movs	r3, #0
 80003fe:	633b      	str	r3, [r7, #48]	; 0x30
  sConfigOC.OCFastMode = TIM_OCFAST_DISABLE;
 8000400:	2300      	movs	r3, #0
 8000402:	637b      	str	r3, [r7, #52]	; 0x34
  sConfigOC.OCIdleState = TIM_OCIDLESTATE_RESET;
 8000404:	2300      	movs	r3, #0
 8000406:	63bb      	str	r3, [r7, #56]	; 0x38
  sConfigOC.OCNIdleState = TIM_OCNIDLESTATE_RESET;
 8000408:	2300      	movs	r3, #0
 800040a:	63fb      	str	r3, [r7, #60]	; 0x3c
  if (HAL_TIM_PWM_ConfigChannel(&htim1, &sConfigOC, TIM_CHANNEL_1) != HAL_OK)
 800040c:	f107 0324 	add.w	r3, r7, #36	; 0x24
 8000410:	2200      	movs	r2, #0
 8000412:	4619      	mov	r1, r3
 8000414:	4813      	ldr	r0, [pc, #76]	; (8000464 <MX_TIM1_Init+0xfc>)
 8000416:	f002 fcf1 	bl	8002dfc <HAL_TIM_PWM_ConfigChannel>
 800041a:	4603      	mov	r3, r0
 800041c:	2b00      	cmp	r3, #0
 800041e:	d001      	beq.n	8000424 <MX_TIM1_Init+0xbc>
  {
    Error_Handler();
 8000420:	f000 f8b4 	bl	800058c <Error_Handler>
  }
  sBreakDeadTimeConfig.OffStateRunMode = TIM_OSSR_DISABLE;
 8000424:	2300      	movs	r3, #0
 8000426:	607b      	str	r3, [r7, #4]
  sBreakDeadTimeConfig.OffStateIDLEMode = TIM_OSSI_DISABLE;
 8000428:	2300      	movs	r3, #0
 800042a:	60bb      	str	r3, [r7, #8]
  sBreakDeadTimeConfig.LockLevel = TIM_LOCKLEVEL_OFF;
 800042c:	2300      	movs	r3, #0
 800042e:	60fb      	str	r3, [r7, #12]
  sBreakDeadTimeConfig.DeadTime = 0;
 8000430:	2300      	movs	r3, #0
 8000432:	613b      	str	r3, [r7, #16]
  sBreakDeadTimeConfig.BreakState = TIM_BREAK_DISABLE;
 8000434:	2300      	movs	r3, #0
 8000436:	617b      	str	r3, [r7, #20]
  sBreakDeadTimeConfig.BreakPolarity = TIM_BREAKPOLARITY_HIGH;
 8000438:	f44f 5300 	mov.w	r3, #8192	; 0x2000
 800043c:	61bb      	str	r3, [r7, #24]
  sBreakDeadTimeConfig.AutomaticOutput = TIM_AUTOMATICOUTPUT_DISABLE;
 800043e:	2300      	movs	r3, #0
 8000440:	623b      	str	r3, [r7, #32]
  if (HAL_TIMEx_ConfigBreakDeadTime(&htim1, &sBreakDeadTimeConfig) != HAL_OK)
 8000442:	1d3b      	adds	r3, r7, #4
 8000444:	4619      	mov	r1, r3
 8000446:	4807      	ldr	r0, [pc, #28]	; (8000464 <MX_TIM1_Init+0xfc>)
 8000448:	f003 f820 	bl	800348c <HAL_TIMEx_ConfigBreakDeadTime>
 800044c:	4603      	mov	r3, r0
 800044e:	2b00      	cmp	r3, #0
 8000450:	d001      	beq.n	8000456 <MX_TIM1_Init+0xee>
  {
    Error_Handler();
 8000452:	f000 f89b 	bl	800058c <Error_Handler>
  }
  /* USER CODE BEGIN TIM1_Init 2 */

  /* USER CODE END TIM1_Init 2 */
  HAL_TIM_MspPostInit(&htim1);
 8000456:	4803      	ldr	r0, [pc, #12]	; (8000464 <MX_TIM1_Init+0xfc>)
 8000458:	f000 f956 	bl	8000708 <HAL_TIM_MspPostInit>

}
 800045c:	bf00      	nop
 800045e:	3748      	adds	r7, #72	; 0x48
 8000460:	46bd      	mov	sp, r7
 8000462:	bd80      	pop	{r7, pc}
 8000464:	20000100 	.word	0x20000100
 8000468:	40012c00 	.word	0x40012c00

0800046c <MX_USART2_UART_Init>:
  * @brief USART2 Initialization Function
  * @param None
  * @retval None
  */
static void MX_USART2_UART_Init(void)
{
 800046c:	b580      	push	{r7, lr}
 800046e:	af00      	add	r7, sp, #0
  /* USER CODE END USART2_Init 0 */

  /* USER CODE BEGIN USART2_Init 1 */

  /* USER CODE END USART2_Init 1 */
  huart2.Instance = USART2;
 8000470:	4b0f      	ldr	r3, [pc, #60]	; (80004b0 <MX_USART2_UART_Init+0x44>)
 8000472:	4a10      	ldr	r2, [pc, #64]	; (80004b4 <MX_USART2_UART_Init+0x48>)
 8000474:	601a      	str	r2, [r3, #0]
  huart2.Init.BaudRate = 9600;
 8000476:	4b0e      	ldr	r3, [pc, #56]	; (80004b0 <MX_USART2_UART_Init+0x44>)
 8000478:	f44f 5216 	mov.w	r2, #9600	; 0x2580
 800047c:	605a      	str	r2, [r3, #4]
  huart2.Init.WordLength = UART_WORDLENGTH_8B;
 800047e:	4b0c      	ldr	r3, [pc, #48]	; (80004b0 <MX_USART2_UART_Init+0x44>)
 8000480:	2200      	movs	r2, #0
 8000482:	609a      	str	r2, [r3, #8]
  huart2.Init.StopBits = UART_STOPBITS_1;
 8000484:	4b0a      	ldr	r3, [pc, #40]	; (80004b0 <MX_USART2_UART_Init+0x44>)
 8000486:	2200      	movs	r2, #0
 8000488:	60da      	str	r2, [r3, #12]
  huart2.Init.Parity = UART_PARITY_NONE;
 800048a:	4b09      	ldr	r3, [pc, #36]	; (80004b0 <MX_USART2_UART_Init+0x44>)
 800048c:	2200      	movs	r2, #0
 800048e:	611a      	str	r2, [r3, #16]
  huart2.Init.Mode = UART_MODE_TX;
 8000490:	4b07      	ldr	r3, [pc, #28]	; (80004b0 <MX_USART2_UART_Init+0x44>)
 8000492:	2208      	movs	r2, #8
 8000494:	615a      	str	r2, [r3, #20]
  huart2.Init.HwFlowCtl = UART_HWCONTROL_NONE;
 8000496:	4b06      	ldr	r3, [pc, #24]	; (80004b0 <MX_USART2_UART_Init+0x44>)
 8000498:	2200      	movs	r2, #0
 800049a:	619a      	str	r2, [r3, #24]
  if (HAL_UART_Init(&huart2) != HAL_OK)
 800049c:	4804      	ldr	r0, [pc, #16]	; (80004b0 <MX_USART2_UART_Init+0x44>)
 800049e:	f003 f858 	bl	8003552 <HAL_UART_Init>
 80004a2:	4603      	mov	r3, r0
 80004a4:	2b00      	cmp	r3, #0
 80004a6:	d001      	beq.n	80004ac <MX_USART2_UART_Init+0x40>
  {
    Error_Handler();
 80004a8:	f000 f870 	bl	800058c <Error_Handler>
  }
  /* USER CODE BEGIN USART2_Init 2 */

  /* USER CODE END USART2_Init 2 */

}
 80004ac:	bf00      	nop
 80004ae:	bd80      	pop	{r7, pc}
 80004b0:	20000148 	.word	0x20000148
 80004b4:	40004400 	.word	0x40004400

080004b8 <MX_DMA_Init>:

/**
  * Enable DMA controller clock
  */
static void MX_DMA_Init(void)
{
 80004b8:	b580      	push	{r7, lr}
 80004ba:	b082      	sub	sp, #8
 80004bc:	af00      	add	r7, sp, #0

  /* DMA controller clock enable */
  __HAL_RCC_DMA1_CLK_ENABLE();
 80004be:	4b0c      	ldr	r3, [pc, #48]	; (80004f0 <MX_DMA_Init+0x38>)
 80004c0:	695b      	ldr	r3, [r3, #20]
 80004c2:	4a0b      	ldr	r2, [pc, #44]	; (80004f0 <MX_DMA_Init+0x38>)
 80004c4:	f043 0301 	orr.w	r3, r3, #1
 80004c8:	6153      	str	r3, [r2, #20]
 80004ca:	4b09      	ldr	r3, [pc, #36]	; (80004f0 <MX_DMA_Init+0x38>)
 80004cc:	695b      	ldr	r3, [r3, #20]
 80004ce:	f003 0301 	and.w	r3, r3, #1
 80004d2:	607b      	str	r3, [r7, #4]
 80004d4:	687b      	ldr	r3, [r7, #4]

  /* DMA interrupt init */
  /* DMA1_Channel1_IRQn interrupt configuration */
  HAL_NVIC_SetPriority(DMA1_Channel1_IRQn, 0, 0);
 80004d6:	2200      	movs	r2, #0
 80004d8:	2100      	movs	r1, #0
 80004da:	200b      	movs	r0, #11
 80004dc:	f001 f97b 	bl	80017d6 <HAL_NVIC_SetPriority>
  HAL_NVIC_EnableIRQ(DMA1_Channel1_IRQn);
 80004e0:	200b      	movs	r0, #11
 80004e2:	f001 f994 	bl	800180e <HAL_NVIC_EnableIRQ>

}
 80004e6:	bf00      	nop
 80004e8:	3708      	adds	r7, #8
 80004ea:	46bd      	mov	sp, r7
 80004ec:	bd80      	pop	{r7, pc}
 80004ee:	bf00      	nop
 80004f0:	40021000 	.word	0x40021000

080004f4 <MX_GPIO_Init>:
  * @brief GPIO Initialization Function
  * @param None
  * @retval None
  */
static void MX_GPIO_Init(void)
{
 80004f4:	b580      	push	{r7, lr}
 80004f6:	b088      	sub	sp, #32
 80004f8:	af00      	add	r7, sp, #0
  GPIO_InitTypeDef GPIO_InitStruct = {0};
 80004fa:	f107 0310 	add.w	r3, r7, #16
 80004fe:	2200      	movs	r2, #0
 8000500:	601a      	str	r2, [r3, #0]
 8000502:	605a      	str	r2, [r3, #4]
 8000504:	609a      	str	r2, [r3, #8]
 8000506:	60da      	str	r2, [r3, #12]

  /* GPIO Ports Clock Enable */
  __HAL_RCC_GPIOC_CLK_ENABLE();
 8000508:	4b1e      	ldr	r3, [pc, #120]	; (8000584 <MX_GPIO_Init+0x90>)
 800050a:	699b      	ldr	r3, [r3, #24]
 800050c:	4a1d      	ldr	r2, [pc, #116]	; (8000584 <MX_GPIO_Init+0x90>)
 800050e:	f043 0310 	orr.w	r3, r3, #16
 8000512:	6193      	str	r3, [r2, #24]
 8000514:	4b1b      	ldr	r3, [pc, #108]	; (8000584 <MX_GPIO_Init+0x90>)
 8000516:	699b      	ldr	r3, [r3, #24]
 8000518:	f003 0310 	and.w	r3, r3, #16
 800051c:	60fb      	str	r3, [r7, #12]
 800051e:	68fb      	ldr	r3, [r7, #12]
  __HAL_RCC_GPIOD_CLK_ENABLE();
 8000520:	4b18      	ldr	r3, [pc, #96]	; (8000584 <MX_GPIO_Init+0x90>)
 8000522:	699b      	ldr	r3, [r3, #24]
 8000524:	4a17      	ldr	r2, [pc, #92]	; (8000584 <MX_GPIO_Init+0x90>)
 8000526:	f043 0320 	orr.w	r3, r3, #32
 800052a:	6193      	str	r3, [r2, #24]
 800052c:	4b15      	ldr	r3, [pc, #84]	; (8000584 <MX_GPIO_Init+0x90>)
 800052e:	699b      	ldr	r3, [r3, #24]
 8000530:	f003 0320 	and.w	r3, r3, #32
 8000534:	60bb      	str	r3, [r7, #8]
 8000536:	68bb      	ldr	r3, [r7, #8]
  __HAL_RCC_GPIOA_CLK_ENABLE();
 8000538:	4b12      	ldr	r3, [pc, #72]	; (8000584 <MX_GPIO_Init+0x90>)
 800053a:	699b      	ldr	r3, [r3, #24]
 800053c:	4a11      	ldr	r2, [pc, #68]	; (8000584 <MX_GPIO_Init+0x90>)
 800053e:	f043 0304 	orr.w	r3, r3, #4
 8000542:	6193      	str	r3, [r2, #24]
 8000544:	4b0f      	ldr	r3, [pc, #60]	; (8000584 <MX_GPIO_Init+0x90>)
 8000546:	699b      	ldr	r3, [r3, #24]
 8000548:	f003 0304 	and.w	r3, r3, #4
 800054c:	607b      	str	r3, [r7, #4]
 800054e:	687b      	ldr	r3, [r7, #4]

  /*Configure GPIO pin Output Level */
  HAL_GPIO_WritePin(Board_LED_GPIO_Port, Board_LED_Pin, GPIO_PIN_RESET);
 8000550:	2200      	movs	r2, #0
 8000552:	f44f 5100 	mov.w	r1, #8192	; 0x2000
 8000556:	480c      	ldr	r0, [pc, #48]	; (8000588 <MX_GPIO_Init+0x94>)
 8000558:	f001 fc50 	bl	8001dfc <HAL_GPIO_WritePin>

  /*Configure GPIO pin : Board_LED_Pin */
  GPIO_InitStruct.Pin = Board_LED_Pin;
 800055c:	f44f 5300 	mov.w	r3, #8192	; 0x2000
 8000560:	613b      	str	r3, [r7, #16]
  GPIO_InitStruct.Mode = GPIO_MODE_OUTPUT_PP;
 8000562:	2301      	movs	r3, #1
 8000564:	617b      	str	r3, [r7, #20]
  GPIO_InitStruct.Pull = GPIO_NOPULL;
 8000566:	2300      	movs	r3, #0
 8000568:	61bb      	str	r3, [r7, #24]
  GPIO_InitStruct.Speed = GPIO_SPEED_FREQ_LOW;
 800056a:	2302      	movs	r3, #2
 800056c:	61fb      	str	r3, [r7, #28]
  HAL_GPIO_Init(Board_LED_GPIO_Port, &GPIO_InitStruct);
 800056e:	f107 0310 	add.w	r3, r7, #16
 8000572:	4619      	mov	r1, r3
 8000574:	4804      	ldr	r0, [pc, #16]	; (8000588 <MX_GPIO_Init+0x94>)
 8000576:	f001 fac5 	bl	8001b04 <HAL_GPIO_Init>

}
 800057a:	bf00      	nop
 800057c:	3720      	adds	r7, #32
 800057e:	46bd      	mov	sp, r7
 8000580:	bd80      	pop	{r7, pc}
 8000582:	bf00      	nop
 8000584:	40021000 	.word	0x40021000
 8000588:	40011000 	.word	0x40011000

0800058c <Error_Handler>:
/**
  * @brief  This function is executed in case of error occurrence.
  * @retval None
  */
void Error_Handler(void)
{
 800058c:	b480      	push	{r7}
 800058e:	af00      	add	r7, sp, #0
  \details Disables IRQ interrupts by setting the I-bit in the CPSR.
           Can only be executed in Privileged modes.
 */
__STATIC_FORCEINLINE void __disable_irq(void)
{
  __ASM volatile ("cpsid i" : : : "memory");
 8000590:	b672      	cpsid	i
}
 8000592:	bf00      	nop
  /* USER CODE BEGIN Error_Handler_Debug */
  /* User can add his own implementation to report the HAL error return state */
  __disable_irq();
  while (1)
 8000594:	e7fe      	b.n	8000594 <Error_Handler+0x8>
	...

08000598 <HAL_MspInit>:
void HAL_TIM_MspPostInit(TIM_HandleTypeDef *htim);
                    /**
  * Initializes the Global MSP.
  */
void HAL_MspInit(void)
{
 8000598:	b480      	push	{r7}
 800059a:	b083      	sub	sp, #12
 800059c:	af00      	add	r7, sp, #0
  /* USER CODE BEGIN MspInit 0 */

  /* USER CODE END MspInit 0 */

  __HAL_RCC_AFIO_CLK_ENABLE();
 800059e:	4b0e      	ldr	r3, [pc, #56]	; (80005d8 <HAL_MspInit+0x40>)
 80005a0:	699b      	ldr	r3, [r3, #24]
 80005a2:	4a0d      	ldr	r2, [pc, #52]	; (80005d8 <HAL_MspInit+0x40>)
 80005a4:	f043 0301 	orr.w	r3, r3, #1
 80005a8:	6193      	str	r3, [r2, #24]
 80005aa:	4b0b      	ldr	r3, [pc, #44]	; (80005d8 <HAL_MspInit+0x40>)
 80005ac:	699b      	ldr	r3, [r3, #24]
 80005ae:	f003 0301 	and.w	r3, r3, #1
 80005b2:	607b      	str	r3, [r7, #4]
 80005b4:	687b      	ldr	r3, [r7, #4]
  __HAL_RCC_PWR_CLK_ENABLE();
 80005b6:	4b08      	ldr	r3, [pc, #32]	; (80005d8 <HAL_MspInit+0x40>)
 80005b8:	69db      	ldr	r3, [r3, #28]
 80005ba:	4a07      	ldr	r2, [pc, #28]	; (80005d8 <HAL_MspInit+0x40>)
 80005bc:	f043 5380 	orr.w	r3, r3, #268435456	; 0x10000000
 80005c0:	61d3      	str	r3, [r2, #28]
 80005c2:	4b05      	ldr	r3, [pc, #20]	; (80005d8 <HAL_MspInit+0x40>)
 80005c4:	69db      	ldr	r3, [r3, #28]
 80005c6:	f003 5380 	and.w	r3, r3, #268435456	; 0x10000000
 80005ca:	603b      	str	r3, [r7, #0]
 80005cc:	683b      	ldr	r3, [r7, #0]
  /* System interrupt init*/

  /* USER CODE BEGIN MspInit 1 */

  /* USER CODE END MspInit 1 */
}
 80005ce:	bf00      	nop
 80005d0:	370c      	adds	r7, #12
 80005d2:	46bd      	mov	sp, r7
 80005d4:	bc80      	pop	{r7}
 80005d6:	4770      	bx	lr
 80005d8:	40021000 	.word	0x40021000

080005dc <HAL_ADC_MspInit>:
* This function configures the hardware resources used in this example
* @param hadc: ADC handle pointer
* @retval None
*/
void HAL_ADC_MspInit(ADC_HandleTypeDef* hadc)
{
 80005dc:	b580      	push	{r7, lr}
 80005de:	b088      	sub	sp, #32
 80005e0:	af00      	add	r7, sp, #0
 80005e2:	6078      	str	r0, [r7, #4]
  GPIO_InitTypeDef GPIO_InitStruct = {0};
 80005e4:	f107 0310 	add.w	r3, r7, #16
 80005e8:	2200      	movs	r2, #0
 80005ea:	601a      	str	r2, [r3, #0]
 80005ec:	605a      	str	r2, [r3, #4]
 80005ee:	609a      	str	r2, [r3, #8]
 80005f0:	60da      	str	r2, [r3, #12]
  if(hadc->Instance==ADC1)
 80005f2:	687b      	ldr	r3, [r7, #4]
 80005f4:	681b      	ldr	r3, [r3, #0]
 80005f6:	4a2c      	ldr	r2, [pc, #176]	; (80006a8 <HAL_ADC_MspInit+0xcc>)
 80005f8:	4293      	cmp	r3, r2
 80005fa:	d151      	bne.n	80006a0 <HAL_ADC_MspInit+0xc4>
  {
  /* USER CODE BEGIN ADC1_MspInit 0 */

  /* USER CODE END ADC1_MspInit 0 */
    /* Peripheral clock enable */
    __HAL_RCC_ADC1_CLK_ENABLE();
 80005fc:	4b2b      	ldr	r3, [pc, #172]	; (80006ac <HAL_ADC_MspInit+0xd0>)
 80005fe:	699b      	ldr	r3, [r3, #24]
 8000600:	4a2a      	ldr	r2, [pc, #168]	; (80006ac <HAL_ADC_MspInit+0xd0>)
 8000602:	f443 7300 	orr.w	r3, r3, #512	; 0x200
 8000606:	6193      	str	r3, [r2, #24]
 8000608:	4b28      	ldr	r3, [pc, #160]	; (80006ac <HAL_ADC_MspInit+0xd0>)
 800060a:	699b      	ldr	r3, [r3, #24]
 800060c:	f403 7300 	and.w	r3, r3, #512	; 0x200
 8000610:	60fb      	str	r3, [r7, #12]
 8000612:	68fb      	ldr	r3, [r7, #12]

    __HAL_RCC_GPIOA_CLK_ENABLE();
 8000614:	4b25      	ldr	r3, [pc, #148]	; (80006ac <HAL_ADC_MspInit+0xd0>)
 8000616:	699b      	ldr	r3, [r3, #24]
 8000618:	4a24      	ldr	r2, [pc, #144]	; (80006ac <HAL_ADC_MspInit+0xd0>)
 800061a:	f043 0304 	orr.w	r3, r3, #4
 800061e:	6193      	str	r3, [r2, #24]
 8000620:	4b22      	ldr	r3, [pc, #136]	; (80006ac <HAL_ADC_MspInit+0xd0>)
 8000622:	699b      	ldr	r3, [r3, #24]
 8000624:	f003 0304 	and.w	r3, r3, #4
 8000628:	60bb      	str	r3, [r7, #8]
 800062a:	68bb      	ldr	r3, [r7, #8]
    /**ADC1 GPIO Configuration
    PA5     ------> ADC1_IN5
    */
    GPIO_InitStruct.Pin = GPIO_PIN_5;
 800062c:	2320      	movs	r3, #32
 800062e:	613b      	str	r3, [r7, #16]
    GPIO_InitStruct.Mode = GPIO_MODE_ANALOG;
 8000630:	2303      	movs	r3, #3
 8000632:	617b      	str	r3, [r7, #20]
    HAL_GPIO_Init(GPIOA, &GPIO_InitStruct);
 8000634:	f107 0310 	add.w	r3, r7, #16
 8000638:	4619      	mov	r1, r3
 800063a:	481d      	ldr	r0, [pc, #116]	; (80006b0 <HAL_ADC_MspInit+0xd4>)
 800063c:	f001 fa62 	bl	8001b04 <HAL_GPIO_Init>

    /* ADC1 DMA Init */
    /* ADC1 Init */
    hdma_adc1.Instance = DMA1_Channel1;
 8000640:	4b1c      	ldr	r3, [pc, #112]	; (80006b4 <HAL_ADC_MspInit+0xd8>)
 8000642:	4a1d      	ldr	r2, [pc, #116]	; (80006b8 <HAL_ADC_MspInit+0xdc>)
 8000644:	601a      	str	r2, [r3, #0]
    hdma_adc1.Init.Direction = DMA_PERIPH_TO_MEMORY;
 8000646:	4b1b      	ldr	r3, [pc, #108]	; (80006b4 <HAL_ADC_MspInit+0xd8>)
 8000648:	2200      	movs	r2, #0
 800064a:	605a      	str	r2, [r3, #4]
    hdma_adc1.Init.PeriphInc = DMA_PINC_DISABLE;
 800064c:	4b19      	ldr	r3, [pc, #100]	; (80006b4 <HAL_ADC_MspInit+0xd8>)
 800064e:	2200      	movs	r2, #0
 8000650:	609a      	str	r2, [r3, #8]
    hdma_adc1.Init.MemInc = DMA_MINC_ENABLE;
 8000652:	4b18      	ldr	r3, [pc, #96]	; (80006b4 <HAL_ADC_MspInit+0xd8>)
 8000654:	2280      	movs	r2, #128	; 0x80
 8000656:	60da      	str	r2, [r3, #12]
    hdma_adc1.Init.PeriphDataAlignment = DMA_PDATAALIGN_HALFWORD;
 8000658:	4b16      	ldr	r3, [pc, #88]	; (80006b4 <HAL_ADC_MspInit+0xd8>)
 800065a:	f44f 7280 	mov.w	r2, #256	; 0x100
 800065e:	611a      	str	r2, [r3, #16]
    hdma_adc1.Init.MemDataAlignment = DMA_MDATAALIGN_HALFWORD;
 8000660:	4b14      	ldr	r3, [pc, #80]	; (80006b4 <HAL_ADC_MspInit+0xd8>)
 8000662:	f44f 6280 	mov.w	r2, #1024	; 0x400
 8000666:	615a      	str	r2, [r3, #20]
    hdma_adc1.Init.Mode = DMA_CIRCULAR;
 8000668:	4b12      	ldr	r3, [pc, #72]	; (80006b4 <HAL_ADC_MspInit+0xd8>)
 800066a:	2220      	movs	r2, #32
 800066c:	619a      	str	r2, [r3, #24]
    hdma_adc1.Init.Priority = DMA_PRIORITY_LOW;
 800066e:	4b11      	ldr	r3, [pc, #68]	; (80006b4 <HAL_ADC_MspInit+0xd8>)
 8000670:	2200      	movs	r2, #0
 8000672:	61da      	str	r2, [r3, #28]
    if (HAL_DMA_Init(&hdma_adc1) != HAL_OK)
 8000674:	480f      	ldr	r0, [pc, #60]	; (80006b4 <HAL_ADC_MspInit+0xd8>)
 8000676:	f001 f8e5 	bl	8001844 <HAL_DMA_Init>
 800067a:	4603      	mov	r3, r0
 800067c:	2b00      	cmp	r3, #0
 800067e:	d001      	beq.n	8000684 <HAL_ADC_MspInit+0xa8>
    {
      Error_Handler();
 8000680:	f7ff ff84 	bl	800058c <Error_Handler>
    }

    __HAL_LINKDMA(hadc,DMA_Handle,hdma_adc1);
 8000684:	687b      	ldr	r3, [r7, #4]
 8000686:	4a0b      	ldr	r2, [pc, #44]	; (80006b4 <HAL_ADC_MspInit+0xd8>)
 8000688:	621a      	str	r2, [r3, #32]
 800068a:	4a0a      	ldr	r2, [pc, #40]	; (80006b4 <HAL_ADC_MspInit+0xd8>)
 800068c:	687b      	ldr	r3, [r7, #4]
 800068e:	6253      	str	r3, [r2, #36]	; 0x24

    /* ADC1 interrupt Init */
    HAL_NVIC_SetPriority(ADC1_2_IRQn, 0, 0);
 8000690:	2200      	movs	r2, #0
 8000692:	2100      	movs	r1, #0
 8000694:	2012      	movs	r0, #18
 8000696:	f001 f89e 	bl	80017d6 <HAL_NVIC_SetPriority>
    HAL_NVIC_EnableIRQ(ADC1_2_IRQn);
 800069a:	2012      	movs	r0, #18
 800069c:	f001 f8b7 	bl	800180e <HAL_NVIC_EnableIRQ>
  /* USER CODE BEGIN ADC1_MspInit 1 */

  /* USER CODE END ADC1_MspInit 1 */
  }

}
 80006a0:	bf00      	nop
 80006a2:	3720      	adds	r7, #32
 80006a4:	46bd      	mov	sp, r7
 80006a6:	bd80      	pop	{r7, pc}
 80006a8:	40012400 	.word	0x40012400
 80006ac:	40021000 	.word	0x40021000
 80006b0:	40010800 	.word	0x40010800
 80006b4:	200000bc 	.word	0x200000bc
 80006b8:	40020008 	.word	0x40020008

080006bc <HAL_TIM_PWM_MspInit>:
* This function configures the hardware resources used in this example
* @param htim_pwm: TIM_PWM handle pointer
* @retval None
*/
void HAL_TIM_PWM_MspInit(TIM_HandleTypeDef* htim_pwm)
{
 80006bc:	b580      	push	{r7, lr}
 80006be:	b084      	sub	sp, #16
 80006c0:	af00      	add	r7, sp, #0
 80006c2:	6078      	str	r0, [r7, #4]
  if(htim_pwm->Instance==TIM1)
 80006c4:	687b      	ldr	r3, [r7, #4]
 80006c6:	681b      	ldr	r3, [r3, #0]
 80006c8:	4a0d      	ldr	r2, [pc, #52]	; (8000700 <HAL_TIM_PWM_MspInit+0x44>)
 80006ca:	4293      	cmp	r3, r2
 80006cc:	d113      	bne.n	80006f6 <HAL_TIM_PWM_MspInit+0x3a>
  {
  /* USER CODE BEGIN TIM1_MspInit 0 */

  /* USER CODE END TIM1_MspInit 0 */
    /* Peripheral clock enable */
    __HAL_RCC_TIM1_CLK_ENABLE();
 80006ce:	4b0d      	ldr	r3, [pc, #52]	; (8000704 <HAL_TIM_PWM_MspInit+0x48>)
 80006d0:	699b      	ldr	r3, [r3, #24]
 80006d2:	4a0c      	ldr	r2, [pc, #48]	; (8000704 <HAL_TIM_PWM_MspInit+0x48>)
 80006d4:	f443 6300 	orr.w	r3, r3, #2048	; 0x800
 80006d8:	6193      	str	r3, [r2, #24]
 80006da:	4b0a      	ldr	r3, [pc, #40]	; (8000704 <HAL_TIM_PWM_MspInit+0x48>)
 80006dc:	699b      	ldr	r3, [r3, #24]
 80006de:	f403 6300 	and.w	r3, r3, #2048	; 0x800
 80006e2:	60fb      	str	r3, [r7, #12]
 80006e4:	68fb      	ldr	r3, [r7, #12]
    /* TIM1 interrupt Init */
    HAL_NVIC_SetPriority(TIM1_CC_IRQn, 0, 0);
 80006e6:	2200      	movs	r2, #0
 80006e8:	2100      	movs	r1, #0
 80006ea:	201b      	movs	r0, #27
 80006ec:	f001 f873 	bl	80017d6 <HAL_NVIC_SetPriority>
    HAL_NVIC_EnableIRQ(TIM1_CC_IRQn);
 80006f0:	201b      	movs	r0, #27
 80006f2:	f001 f88c 	bl	800180e <HAL_NVIC_EnableIRQ>
  /* USER CODE BEGIN TIM1_MspInit 1 */

  /* USER CODE END TIM1_MspInit 1 */
  }

}
 80006f6:	bf00      	nop
 80006f8:	3710      	adds	r7, #16
 80006fa:	46bd      	mov	sp, r7
 80006fc:	bd80      	pop	{r7, pc}
 80006fe:	bf00      	nop
 8000700:	40012c00 	.word	0x40012c00
 8000704:	40021000 	.word	0x40021000

08000708 <HAL_TIM_MspPostInit>:

void HAL_TIM_MspPostInit(TIM_HandleTypeDef* htim)
{
 8000708:	b580      	push	{r7, lr}
 800070a:	b088      	sub	sp, #32
 800070c:	af00      	add	r7, sp, #0
 800070e:	6078      	str	r0, [r7, #4]
  GPIO_InitTypeDef GPIO_InitStruct = {0};
 8000710:	f107 0310 	add.w	r3, r7, #16
 8000714:	2200      	movs	r2, #0
 8000716:	601a      	str	r2, [r3, #0]
 8000718:	605a      	str	r2, [r3, #4]
 800071a:	609a      	str	r2, [r3, #8]
 800071c:	60da      	str	r2, [r3, #12]
  if(htim->Instance==TIM1)
 800071e:	687b      	ldr	r3, [r7, #4]
 8000720:	681b      	ldr	r3, [r3, #0]
 8000722:	4a10      	ldr	r2, [pc, #64]	; (8000764 <HAL_TIM_MspPostInit+0x5c>)
 8000724:	4293      	cmp	r3, r2
 8000726:	d118      	bne.n	800075a <HAL_TIM_MspPostInit+0x52>
  {
  /* USER CODE BEGIN TIM1_MspPostInit 0 */

  /* USER CODE END TIM1_MspPostInit 0 */

    __HAL_RCC_GPIOA_CLK_ENABLE();
 8000728:	4b0f      	ldr	r3, [pc, #60]	; (8000768 <HAL_TIM_MspPostInit+0x60>)
 800072a:	699b      	ldr	r3, [r3, #24]
 800072c:	4a0e      	ldr	r2, [pc, #56]	; (8000768 <HAL_TIM_MspPostInit+0x60>)
 800072e:	f043 0304 	orr.w	r3, r3, #4
 8000732:	6193      	str	r3, [r2, #24]
 8000734:	4b0c      	ldr	r3, [pc, #48]	; (8000768 <HAL_TIM_MspPostInit+0x60>)
 8000736:	699b      	ldr	r3, [r3, #24]
 8000738:	f003 0304 	and.w	r3, r3, #4
 800073c:	60fb      	str	r3, [r7, #12]
 800073e:	68fb      	ldr	r3, [r7, #12]
    /**TIM1 GPIO Configuration
    PA8     ------> TIM1_CH1
    */
    GPIO_InitStruct.Pin = GPIO_PIN_8;
 8000740:	f44f 7380 	mov.w	r3, #256	; 0x100
 8000744:	613b      	str	r3, [r7, #16]
    GPIO_InitStruct.Mode = GPIO_MODE_AF_PP;
 8000746:	2302      	movs	r3, #2
 8000748:	617b      	str	r3, [r7, #20]
    GPIO_InitStruct.Speed = GPIO_SPEED_FREQ_LOW;
 800074a:	2302      	movs	r3, #2
 800074c:	61fb      	str	r3, [r7, #28]
    HAL_GPIO_Init(GPIOA, &GPIO_InitStruct);
 800074e:	f107 0310 	add.w	r3, r7, #16
 8000752:	4619      	mov	r1, r3
 8000754:	4805      	ldr	r0, [pc, #20]	; (800076c <HAL_TIM_MspPostInit+0x64>)
 8000756:	f001 f9d5 	bl	8001b04 <HAL_GPIO_Init>
  /* USER CODE BEGIN TIM1_MspPostInit 1 */

  /* USER CODE END TIM1_MspPostInit 1 */
  }

}
 800075a:	bf00      	nop
 800075c:	3720      	adds	r7, #32
 800075e:	46bd      	mov	sp, r7
 8000760:	bd80      	pop	{r7, pc}
 8000762:	bf00      	nop
 8000764:	40012c00 	.word	0x40012c00
 8000768:	40021000 	.word	0x40021000
 800076c:	40010800 	.word	0x40010800

08000770 <HAL_UART_MspInit>:
* This function configures the hardware resources used in this example
* @param huart: UART handle pointer
* @retval None
*/
void HAL_UART_MspInit(UART_HandleTypeDef* huart)
{
 8000770:	b580      	push	{r7, lr}
 8000772:	b088      	sub	sp, #32
 8000774:	af00      	add	r7, sp, #0
 8000776:	6078      	str	r0, [r7, #4]
  GPIO_InitTypeDef GPIO_InitStruct = {0};
 8000778:	f107 0310 	add.w	r3, r7, #16
 800077c:	2200      	movs	r2, #0
 800077e:	601a      	str	r2, [r3, #0]
 8000780:	605a      	str	r2, [r3, #4]
 8000782:	609a      	str	r2, [r3, #8]
 8000784:	60da      	str	r2, [r3, #12]
  if(huart->Instance==USART2)
 8000786:	687b      	ldr	r3, [r7, #4]
 8000788:	681b      	ldr	r3, [r3, #0]
 800078a:	4a1b      	ldr	r2, [pc, #108]	; (80007f8 <HAL_UART_MspInit+0x88>)
 800078c:	4293      	cmp	r3, r2
 800078e:	d12f      	bne.n	80007f0 <HAL_UART_MspInit+0x80>
  {
  /* USER CODE BEGIN USART2_MspInit 0 */

  /* USER CODE END USART2_MspInit 0 */
    /* Peripheral clock enable */
    __HAL_RCC_USART2_CLK_ENABLE();
 8000790:	4b1a      	ldr	r3, [pc, #104]	; (80007fc <HAL_UART_MspInit+0x8c>)
 8000792:	69db      	ldr	r3, [r3, #28]
 8000794:	4a19      	ldr	r2, [pc, #100]	; (80007fc <HAL_UART_MspInit+0x8c>)
 8000796:	f443 3300 	orr.w	r3, r3, #131072	; 0x20000
 800079a:	61d3      	str	r3, [r2, #28]
 800079c:	4b17      	ldr	r3, [pc, #92]	; (80007fc <HAL_UART_MspInit+0x8c>)
 800079e:	69db      	ldr	r3, [r3, #28]
 80007a0:	f403 3300 	and.w	r3, r3, #131072	; 0x20000
 80007a4:	60fb      	str	r3, [r7, #12]
 80007a6:	68fb      	ldr	r3, [r7, #12]

    __HAL_RCC_GPIOA_CLK_ENABLE();
 80007a8:	4b14      	ldr	r3, [pc, #80]	; (80007fc <HAL_UART_MspInit+0x8c>)
 80007aa:	699b      	ldr	r3, [r3, #24]
 80007ac:	4a13      	ldr	r2, [pc, #76]	; (80007fc <HAL_UART_MspInit+0x8c>)
 80007ae:	f043 0304 	orr.w	r3, r3, #4
 80007b2:	6193      	str	r3, [r2, #24]
 80007b4:	4b11      	ldr	r3, [pc, #68]	; (80007fc <HAL_UART_MspInit+0x8c>)
 80007b6:	699b      	ldr	r3, [r3, #24]
 80007b8:	f003 0304 	and.w	r3, r3, #4
 80007bc:	60bb      	str	r3, [r7, #8]
 80007be:	68bb      	ldr	r3, [r7, #8]
    /**USART2 GPIO Configuration
    PA2     ------> USART2_TX
    PA3     ------> USART2_RX
    */
    GPIO_InitStruct.Pin = GPIO_PIN_2;
 80007c0:	2304      	movs	r3, #4
 80007c2:	613b      	str	r3, [r7, #16]
    GPIO_InitStruct.Mode = GPIO_MODE_AF_PP;
 80007c4:	2302      	movs	r3, #2
 80007c6:	617b      	str	r3, [r7, #20]
    GPIO_InitStruct.Speed = GPIO_SPEED_FREQ_HIGH;
 80007c8:	2303      	movs	r3, #3
 80007ca:	61fb      	str	r3, [r7, #28]
    HAL_GPIO_Init(GPIOA, &GPIO_InitStruct);
 80007cc:	f107 0310 	add.w	r3, r7, #16
 80007d0:	4619      	mov	r1, r3
 80007d2:	480b      	ldr	r0, [pc, #44]	; (8000800 <HAL_UART_MspInit+0x90>)
 80007d4:	f001 f996 	bl	8001b04 <HAL_GPIO_Init>

    GPIO_InitStruct.Pin = GPIO_PIN_3;
 80007d8:	2308      	movs	r3, #8
 80007da:	613b      	str	r3, [r7, #16]
    GPIO_InitStruct.Mode = GPIO_MODE_INPUT;
 80007dc:	2300      	movs	r3, #0
 80007de:	617b      	str	r3, [r7, #20]
    GPIO_InitStruct.Pull = GPIO_NOPULL;
 80007e0:	2300      	movs	r3, #0
 80007e2:	61bb      	str	r3, [r7, #24]
    HAL_GPIO_Init(GPIOA, &GPIO_InitStruct);
 80007e4:	f107 0310 	add.w	r3, r7, #16
 80007e8:	4619      	mov	r1, r3
 80007ea:	4805      	ldr	r0, [pc, #20]	; (8000800 <HAL_UART_MspInit+0x90>)
 80007ec:	f001 f98a 	bl	8001b04 <HAL_GPIO_Init>
  /* USER CODE BEGIN USART2_MspInit 1 */

  /* USER CODE END USART2_MspInit 1 */
  }

}
 80007f0:	bf00      	nop
 80007f2:	3720      	adds	r7, #32
 80007f4:	46bd      	mov	sp, r7
 80007f6:	bd80      	pop	{r7, pc}
 80007f8:	40004400 	.word	0x40004400
 80007fc:	40021000 	.word	0x40021000
 8000800:	40010800 	.word	0x40010800

08000804 <NMI_Handler>:
/******************************************************************************/
/**
  * @brief This function handles Non maskable interrupt.
  */
void NMI_Handler(void)
{
 8000804:	b480      	push	{r7}
 8000806:	af00      	add	r7, sp, #0
  /* USER CODE BEGIN NonMaskableInt_IRQn 0 */

  /* USER CODE END NonMaskableInt_IRQn 0 */
  /* USER CODE BEGIN NonMaskableInt_IRQn 1 */
  while (1)
 8000808:	e7fe      	b.n	8000808 <NMI_Handler+0x4>

0800080a <HardFault_Handler>:

/**
  * @brief This function handles Hard fault interrupt.
  */
void HardFault_Handler(void)
{
 800080a:	b480      	push	{r7}
 800080c:	af00      	add	r7, sp, #0
  /* USER CODE BEGIN HardFault_IRQn 0 */

  /* USER CODE END HardFault_IRQn 0 */
  while (1)
 800080e:	e7fe      	b.n	800080e <HardFault_Handler+0x4>

08000810 <MemManage_Handler>:

/**
  * @brief This function handles Memory management fault.
  */
void MemManage_Handler(void)
{
 8000810:	b480      	push	{r7}
 8000812:	af00      	add	r7, sp, #0
  /* USER CODE BEGIN MemoryManagement_IRQn 0 */

  /* USER CODE END MemoryManagement_IRQn 0 */
  while (1)
 8000814:	e7fe      	b.n	8000814 <MemManage_Handler+0x4>

08000816 <BusFault_Handler>:

/**
  * @brief This function handles Prefetch fault, memory access fault.
  */
void BusFault_Handler(void)
{
 8000816:	b480      	push	{r7}
 8000818:	af00      	add	r7, sp, #0
  /* USER CODE BEGIN BusFault_IRQn 0 */

  /* USER CODE END BusFault_IRQn 0 */
  while (1)
 800081a:	e7fe      	b.n	800081a <BusFault_Handler+0x4>

0800081c <UsageFault_Handler>:

/**
  * @brief This function handles Undefined instruction or illegal state.
  */
void UsageFault_Handler(void)
{
 800081c:	b480      	push	{r7}
 800081e:	af00      	add	r7, sp, #0
  /* USER CODE BEGIN UsageFault_IRQn 0 */

  /* USER CODE END UsageFault_IRQn 0 */
  while (1)
 8000820:	e7fe      	b.n	8000820 <UsageFault_Handler+0x4>

08000822 <SVC_Handler>:

/**
  * @brief This function handles System service call via SWI instruction.
  */
void SVC_Handler(void)
{
 8000822:	b480      	push	{r7}
 8000824:	af00      	add	r7, sp, #0

  /* USER CODE END SVCall_IRQn 0 */
  /* USER CODE BEGIN SVCall_IRQn 1 */

  /* USER CODE END SVCall_IRQn 1 */
}
 8000826:	bf00      	nop
 8000828:	46bd      	mov	sp, r7
 800082a:	bc80      	pop	{r7}
 800082c:	4770      	bx	lr

0800082e <DebugMon_Handler>:

/**
  * @brief This function handles Debug monitor.
  */
void DebugMon_Handler(void)
{
 800082e:	b480      	push	{r7}
 8000830:	af00      	add	r7, sp, #0

  /* USER CODE END DebugMonitor_IRQn 0 */
  /* USER CODE BEGIN DebugMonitor_IRQn 1 */

  /* USER CODE END DebugMonitor_IRQn 1 */
}
 8000832:	bf00      	nop
 8000834:	46bd      	mov	sp, r7
 8000836:	bc80      	pop	{r7}
 8000838:	4770      	bx	lr

0800083a <PendSV_Handler>:

/**
  * @brief This function handles Pendable request for system service.
  */
void PendSV_Handler(void)
{
 800083a:	b480      	push	{r7}
 800083c:	af00      	add	r7, sp, #0

  /* USER CODE END PendSV_IRQn 0 */
  /* USER CODE BEGIN PendSV_IRQn 1 */

  /* USER CODE END PendSV_IRQn 1 */
}
 800083e:	bf00      	nop
 8000840:	46bd      	mov	sp, r7
 8000842:	bc80      	pop	{r7}
 8000844:	4770      	bx	lr

08000846 <SysTick_Handler>:

/**
  * @brief This function handles System tick timer.
  */
void SysTick_Handler(void)
{
 8000846:	b580      	push	{r7, lr}
 8000848:	af00      	add	r7, sp, #0
  /* USER CODE BEGIN SysTick_IRQn 0 */

  /* USER CODE END SysTick_IRQn 0 */
  HAL_IncTick();
 800084a:	f000 f8c9 	bl	80009e0 <HAL_IncTick>
  /* USER CODE BEGIN SysTick_IRQn 1 */

  /* USER CODE END SysTick_IRQn 1 */
}
 800084e:	bf00      	nop
 8000850:	bd80      	pop	{r7, pc}
	...

08000854 <DMA1_Channel1_IRQHandler>:

/**
  * @brief This function handles DMA1 channel1 global interrupt.
  */
void DMA1_Channel1_IRQHandler(void)
{
 8000854:	b580      	push	{r7, lr}
 8000856:	af00      	add	r7, sp, #0
  /* USER CODE BEGIN DMA1_Channel1_IRQn 0 */

  /* USER CODE END DMA1_Channel1_IRQn 0 */
  HAL_DMA_IRQHandler(&hdma_adc1);
 8000858:	4802      	ldr	r0, [pc, #8]	; (8000864 <DMA1_Channel1_IRQHandler+0x10>)
 800085a:	f001 f84d 	bl	80018f8 <HAL_DMA_IRQHandler>
  /* USER CODE BEGIN DMA1_Channel1_IRQn 1 */

  /* USER CODE END DMA1_Channel1_IRQn 1 */
}
 800085e:	bf00      	nop
 8000860:	bd80      	pop	{r7, pc}
 8000862:	bf00      	nop
 8000864:	200000bc 	.word	0x200000bc

08000868 <ADC1_2_IRQHandler>:

/**
  * @brief This function handles ADC1 and ADC2 global interrupts.
  */
void ADC1_2_IRQHandler(void)
{
 8000868:	b580      	push	{r7, lr}
 800086a:	af00      	add	r7, sp, #0
  /* USER CODE BEGIN ADC1_2_IRQn 0 */

  /* USER CODE END ADC1_2_IRQn 0 */
  HAL_ADC_IRQHandler(&hadc1);
 800086c:	4802      	ldr	r0, [pc, #8]	; (8000878 <ADC1_2_IRQHandler+0x10>)
 800086e:	f000 fbbb 	bl	8000fe8 <HAL_ADC_IRQHandler>
  /* USER CODE BEGIN ADC1_2_IRQn 1 */

  /* USER CODE END ADC1_2_IRQn 1 */
}
 8000872:	bf00      	nop
 8000874:	bd80      	pop	{r7, pc}
 8000876:	bf00      	nop
 8000878:	2000008c 	.word	0x2000008c

0800087c <TIM1_CC_IRQHandler>:

/**
  * @brief This function handles TIM1 capture compare interrupt.
  */
void TIM1_CC_IRQHandler(void)
{
 800087c:	b580      	push	{r7, lr}
 800087e:	af00      	add	r7, sp, #0
  /* USER CODE BEGIN TIM1_CC_IRQn 0 */

  /* USER CODE END TIM1_CC_IRQn 0 */
  HAL_TIM_IRQHandler(&htim1);
 8000880:	4802      	ldr	r0, [pc, #8]	; (800088c <TIM1_CC_IRQHandler+0x10>)
 8000882:	f002 f9b3 	bl	8002bec <HAL_TIM_IRQHandler>
  /* USER CODE BEGIN TIM1_CC_IRQn 1 */

  /* USER CODE END TIM1_CC_IRQn 1 */
}
 8000886:	bf00      	nop
 8000888:	bd80      	pop	{r7, pc}
 800088a:	bf00      	nop
 800088c:	20000100 	.word	0x20000100

08000890 <_sbrk>:
 *
 * @param incr Memory size
 * @return Pointer to allocated memory
 */
void *_sbrk(ptrdiff_t incr)
{
 8000890:	b580      	push	{r7, lr}
 8000892:	b086      	sub	sp, #24
 8000894:	af00      	add	r7, sp, #0
 8000896:	6078      	str	r0, [r7, #4]
  extern uint8_t _end; /* Symbol defined in the linker script */
  extern uint8_t _estack; /* Symbol defined in the linker script */
  extern uint32_t _Min_Stack_Size; /* Symbol defined in the linker script */
  const uint32_t stack_limit = (uint32_t)&_estack - (uint32_t)&_Min_Stack_Size;
 8000898:	4a14      	ldr	r2, [pc, #80]	; (80008ec <_sbrk+0x5c>)
 800089a:	4b15      	ldr	r3, [pc, #84]	; (80008f0 <_sbrk+0x60>)
 800089c:	1ad3      	subs	r3, r2, r3
 800089e:	617b      	str	r3, [r7, #20]
  const uint8_t *max_heap = (uint8_t *)stack_limit;
 80008a0:	697b      	ldr	r3, [r7, #20]
 80008a2:	613b      	str	r3, [r7, #16]
  uint8_t *prev_heap_end;

  /* Initialize heap end at first call */
  if (NULL == __sbrk_heap_end)
 80008a4:	4b13      	ldr	r3, [pc, #76]	; (80008f4 <_sbrk+0x64>)
 80008a6:	681b      	ldr	r3, [r3, #0]
 80008a8:	2b00      	cmp	r3, #0
 80008aa:	d102      	bne.n	80008b2 <_sbrk+0x22>
  {
    __sbrk_heap_end = &_end;
 80008ac:	4b11      	ldr	r3, [pc, #68]	; (80008f4 <_sbrk+0x64>)
 80008ae:	4a12      	ldr	r2, [pc, #72]	; (80008f8 <_sbrk+0x68>)
 80008b0:	601a      	str	r2, [r3, #0]
  }

  /* Protect heap from growing into the reserved MSP stack */
  if (__sbrk_heap_end + incr > max_heap)
 80008b2:	4b10      	ldr	r3, [pc, #64]	; (80008f4 <_sbrk+0x64>)
 80008b4:	681a      	ldr	r2, [r3, #0]
 80008b6:	687b      	ldr	r3, [r7, #4]
 80008b8:	4413      	add	r3, r2
 80008ba:	693a      	ldr	r2, [r7, #16]
 80008bc:	429a      	cmp	r2, r3
 80008be:	d207      	bcs.n	80008d0 <_sbrk+0x40>
  {
    errno = ENOMEM;
 80008c0:	f002 fffe 	bl	80038c0 <__errno>
 80008c4:	4603      	mov	r3, r0
 80008c6:	220c      	movs	r2, #12
 80008c8:	601a      	str	r2, [r3, #0]
    return (void *)-1;
 80008ca:	f04f 33ff 	mov.w	r3, #4294967295
 80008ce:	e009      	b.n	80008e4 <_sbrk+0x54>
  }

  prev_heap_end = __sbrk_heap_end;
 80008d0:	4b08      	ldr	r3, [pc, #32]	; (80008f4 <_sbrk+0x64>)
 80008d2:	681b      	ldr	r3, [r3, #0]
 80008d4:	60fb      	str	r3, [r7, #12]
  __sbrk_heap_end += incr;
 80008d6:	4b07      	ldr	r3, [pc, #28]	; (80008f4 <_sbrk+0x64>)
 80008d8:	681a      	ldr	r2, [r3, #0]
 80008da:	687b      	ldr	r3, [r7, #4]
 80008dc:	4413      	add	r3, r2
 80008de:	4a05      	ldr	r2, [pc, #20]	; (80008f4 <_sbrk+0x64>)
 80008e0:	6013      	str	r3, [r2, #0]

  return (void *)prev_heap_end;
 80008e2:	68fb      	ldr	r3, [r7, #12]
}
 80008e4:	4618      	mov	r0, r3
 80008e6:	3718      	adds	r7, #24
 80008e8:	46bd      	mov	sp, r7
 80008ea:	bd80      	pop	{r7, pc}
 80008ec:	20002800 	.word	0x20002800
 80008f0:	00000400 	.word	0x00000400
 80008f4:	200001b0 	.word	0x200001b0
 80008f8:	200001c8 	.word	0x200001c8

080008fc <SystemInit>:
  * @note   This function should be used only after reset.
  * @param  None
  * @retval None
  */
void SystemInit (void)
{
 80008fc:	b480      	push	{r7}
 80008fe:	af00      	add	r7, sp, #0

  /* Configure the Vector Table location -------------------------------------*/
#if defined(USER_VECT_TAB_ADDRESS)
  SCB->VTOR = VECT_TAB_BASE_ADDRESS | VECT_TAB_OFFSET; /* Vector Table Relocation in Internal SRAM. */
#endif /* USER_VECT_TAB_ADDRESS */
}
 8000900:	bf00      	nop
 8000902:	46bd      	mov	sp, r7
 8000904:	bc80      	pop	{r7}
 8000906:	4770      	bx	lr

08000908 <Reset_Handler>:
  .weak Reset_Handler
  .type Reset_Handler, %function
Reset_Handler:

/* Copy the data segment initializers from flash to SRAM */
  ldr r0, =_sdata
 8000908:	480c      	ldr	r0, [pc, #48]	; (800093c <LoopFillZerobss+0x12>)
  ldr r1, =_edata
 800090a:	490d      	ldr	r1, [pc, #52]	; (8000940 <LoopFillZerobss+0x16>)
  ldr r2, =_sidata
 800090c:	4a0d      	ldr	r2, [pc, #52]	; (8000944 <LoopFillZerobss+0x1a>)
  movs r3, #0
 800090e:	2300      	movs	r3, #0
  b LoopCopyDataInit
 8000910:	e002      	b.n	8000918 <LoopCopyDataInit>

08000912 <CopyDataInit>:

CopyDataInit:
  ldr r4, [r2, r3]
 8000912:	58d4      	ldr	r4, [r2, r3]
  str r4, [r0, r3]
 8000914:	50c4      	str	r4, [r0, r3]
  adds r3, r3, #4
 8000916:	3304      	adds	r3, #4

08000918 <LoopCopyDataInit>:

LoopCopyDataInit:
  adds r4, r0, r3
 8000918:	18c4      	adds	r4, r0, r3
  cmp r4, r1
 800091a:	428c      	cmp	r4, r1
  bcc CopyDataInit
 800091c:	d3f9      	bcc.n	8000912 <CopyDataInit>
  
/* Zero fill the bss segment. */
  ldr r2, =_sbss
 800091e:	4a0a      	ldr	r2, [pc, #40]	; (8000948 <LoopFillZerobss+0x1e>)
  ldr r4, =_ebss
 8000920:	4c0a      	ldr	r4, [pc, #40]	; (800094c <LoopFillZerobss+0x22>)
  movs r3, #0
 8000922:	2300      	movs	r3, #0
  b LoopFillZerobss
 8000924:	e001      	b.n	800092a <LoopFillZerobss>

08000926 <FillZerobss>:

FillZerobss:
  str  r3, [r2]
 8000926:	6013      	str	r3, [r2, #0]
  adds r2, r2, #4
 8000928:	3204      	adds	r2, #4

0800092a <LoopFillZerobss>:

LoopFillZerobss:
  cmp r2, r4
 800092a:	42a2      	cmp	r2, r4
  bcc FillZerobss
 800092c:	d3fb      	bcc.n	8000926 <FillZerobss>

/* Call the clock system intitialization function.*/
    bl  SystemInit
 800092e:	f7ff ffe5 	bl	80008fc <SystemInit>
/* Call static constructors */
    bl __libc_init_array
 8000932:	f002 ffcb 	bl	80038cc <__libc_init_array>
/* Call the application's entry point.*/
  bl main
 8000936:	f7ff fc09 	bl	800014c <main>
  bx lr
 800093a:	4770      	bx	lr
  ldr r0, =_sdata
 800093c:	20000000 	.word	0x20000000
  ldr r1, =_edata
 8000940:	20000070 	.word	0x20000070
  ldr r2, =_sidata
 8000944:	080042ac 	.word	0x080042ac
  ldr r2, =_sbss
 8000948:	20000070 	.word	0x20000070
  ldr r4, =_ebss
 800094c:	200001c8 	.word	0x200001c8

08000950 <CAN1_RX1_IRQHandler>:
 * @retval : None
*/
    .section .text.Default_Handler,"ax",%progbits
Default_Handler:
Infinite_Loop:
  b Infinite_Loop
 8000950:	e7fe      	b.n	8000950 <CAN1_RX1_IRQHandler>
	...

08000954 <HAL_Init>:
  *         need to ensure that the SysTick time base is always set to 1 millisecond
  *         to have correct HAL operation.
  * @retval HAL status
  */
HAL_StatusTypeDef HAL_Init(void)
{
 8000954:	b580      	push	{r7, lr}
 8000956:	af00      	add	r7, sp, #0
    defined(STM32F102x6) || defined(STM32F102xB) || \
    defined(STM32F103x6) || defined(STM32F103xB) || defined(STM32F103xE) || defined(STM32F103xG) || \
    defined(STM32F105xC) || defined(STM32F107xC)

  /* Prefetch buffer is not available on value line devices */
  __HAL_FLASH_PREFETCH_BUFFER_ENABLE();
 8000958:	4b08      	ldr	r3, [pc, #32]	; (800097c <HAL_Init+0x28>)
 800095a:	681b      	ldr	r3, [r3, #0]
 800095c:	4a07      	ldr	r2, [pc, #28]	; (800097c <HAL_Init+0x28>)
 800095e:	f043 0310 	orr.w	r3, r3, #16
 8000962:	6013      	str	r3, [r2, #0]
#endif
#endif /* PREFETCH_ENABLE */

  /* Set Interrupt Group Priority */
  HAL_NVIC_SetPriorityGrouping(NVIC_PRIORITYGROUP_4);
 8000964:	2003      	movs	r0, #3
 8000966:	f000 ff2b 	bl	80017c0 <HAL_NVIC_SetPriorityGrouping>

  /* Use systick as time base source and configure 1ms tick (default clock after Reset is HSI) */
  HAL_InitTick(TICK_INT_PRIORITY);
 800096a:	200f      	movs	r0, #15
 800096c:	f000 f808 	bl	8000980 <HAL_InitTick>

  /* Init the low level hardware */
  HAL_MspInit();
 8000970:	f7ff fe12 	bl	8000598 <HAL_MspInit>

  /* Return function status */
  return HAL_OK;
 8000974:	2300      	movs	r3, #0
}
 8000976:	4618      	mov	r0, r3
 8000978:	bd80      	pop	{r7, pc}
 800097a:	bf00      	nop
 800097c:	40022000 	.word	0x40022000

08000980 <HAL_InitTick>:
  *       implementation  in user file.
  * @param TickPriority Tick interrupt priority.
  * @retval HAL status
  */
__weak HAL_StatusTypeDef HAL_InitTick(uint32_t TickPriority)
{
 8000980:	b580      	push	{r7, lr}
 8000982:	b082      	sub	sp, #8
 8000984:	af00      	add	r7, sp, #0
 8000986:	6078      	str	r0, [r7, #4]
  /* Configure the SysTick to have interrupt in 1ms time basis*/
  if (HAL_SYSTICK_Config(SystemCoreClock / (1000U / uwTickFreq)) > 0U)
 8000988:	4b12      	ldr	r3, [pc, #72]	; (80009d4 <HAL_InitTick+0x54>)
 800098a:	681a      	ldr	r2, [r3, #0]
 800098c:	4b12      	ldr	r3, [pc, #72]	; (80009d8 <HAL_InitTick+0x58>)
 800098e:	781b      	ldrb	r3, [r3, #0]
 8000990:	4619      	mov	r1, r3
 8000992:	f44f 737a 	mov.w	r3, #1000	; 0x3e8
 8000996:	fbb3 f3f1 	udiv	r3, r3, r1
 800099a:	fbb2 f3f3 	udiv	r3, r2, r3
 800099e:	4618      	mov	r0, r3
 80009a0:	f000 ff43 	bl	800182a <HAL_SYSTICK_Config>
 80009a4:	4603      	mov	r3, r0
 80009a6:	2b00      	cmp	r3, #0
 80009a8:	d001      	beq.n	80009ae <HAL_InitTick+0x2e>
  {
    return HAL_ERROR;
 80009aa:	2301      	movs	r3, #1
 80009ac:	e00e      	b.n	80009cc <HAL_InitTick+0x4c>
  }

  /* Configure the SysTick IRQ priority */
  if (TickPriority < (1UL << __NVIC_PRIO_BITS))
 80009ae:	687b      	ldr	r3, [r7, #4]
 80009b0:	2b0f      	cmp	r3, #15
 80009b2:	d80a      	bhi.n	80009ca <HAL_InitTick+0x4a>
  {
    HAL_NVIC_SetPriority(SysTick_IRQn, TickPriority, 0U);
 80009b4:	2200      	movs	r2, #0
 80009b6:	6879      	ldr	r1, [r7, #4]
 80009b8:	f04f 30ff 	mov.w	r0, #4294967295
 80009bc:	f000 ff0b 	bl	80017d6 <HAL_NVIC_SetPriority>
    uwTickPrio = TickPriority;
 80009c0:	4a06      	ldr	r2, [pc, #24]	; (80009dc <HAL_InitTick+0x5c>)
 80009c2:	687b      	ldr	r3, [r7, #4]
 80009c4:	6013      	str	r3, [r2, #0]
  {
    return HAL_ERROR;
  }

  /* Return function status */
  return HAL_OK;
 80009c6:	2300      	movs	r3, #0
 80009c8:	e000      	b.n	80009cc <HAL_InitTick+0x4c>
    return HAL_ERROR;
 80009ca:	2301      	movs	r3, #1
}
 80009cc:	4618      	mov	r0, r3
 80009ce:	3708      	adds	r7, #8
 80009d0:	46bd      	mov	sp, r7
 80009d2:	bd80      	pop	{r7, pc}
 80009d4:	20000000 	.word	0x20000000
 80009d8:	20000008 	.word	0x20000008
 80009dc:	20000004 	.word	0x20000004

080009e0 <HAL_IncTick>:
  * @note This function is declared as __weak to be overwritten in case of other
  *      implementations in user file.
  * @retval None
  */
__weak void HAL_IncTick(void)
{
 80009e0:	b480      	push	{r7}
 80009e2:	af00      	add	r7, sp, #0
  uwTick += uwTickFreq;
 80009e4:	4b05      	ldr	r3, [pc, #20]	; (80009fc <HAL_IncTick+0x1c>)
 80009e6:	781b      	ldrb	r3, [r3, #0]
 80009e8:	461a      	mov	r2, r3
 80009ea:	4b05      	ldr	r3, [pc, #20]	; (8000a00 <HAL_IncTick+0x20>)
 80009ec:	681b      	ldr	r3, [r3, #0]
 80009ee:	4413      	add	r3, r2
 80009f0:	4a03      	ldr	r2, [pc, #12]	; (8000a00 <HAL_IncTick+0x20>)
 80009f2:	6013      	str	r3, [r2, #0]
}
 80009f4:	bf00      	nop
 80009f6:	46bd      	mov	sp, r7
 80009f8:	bc80      	pop	{r7}
 80009fa:	4770      	bx	lr
 80009fc:	20000008 	.word	0x20000008
 8000a00:	200001b4 	.word	0x200001b4

08000a04 <HAL_GetTick>:
  * @note  This function is declared as __weak to be overwritten in case of other
  *       implementations in user file.
  * @retval tick value
  */
__weak uint32_t HAL_GetTick(void)
{
 8000a04:	b480      	push	{r7}
 8000a06:	af00      	add	r7, sp, #0
  return uwTick;
 8000a08:	4b02      	ldr	r3, [pc, #8]	; (8000a14 <HAL_GetTick+0x10>)
 8000a0a:	681b      	ldr	r3, [r3, #0]
}
 8000a0c:	4618      	mov	r0, r3
 8000a0e:	46bd      	mov	sp, r7
 8000a10:	bc80      	pop	{r7}
 8000a12:	4770      	bx	lr
 8000a14:	200001b4 	.word	0x200001b4

08000a18 <HAL_Delay>:
  *       implementations in user file.
  * @param Delay specifies the delay time length, in milliseconds.
  * @retval None
  */
__weak void HAL_Delay(uint32_t Delay)
{
 8000a18:	b580      	push	{r7, lr}
 8000a1a:	b084      	sub	sp, #16
 8000a1c:	af00      	add	r7, sp, #0
 8000a1e:	6078      	str	r0, [r7, #4]
  uint32_t tickstart = HAL_GetTick();
 8000a20:	f7ff fff0 	bl	8000a04 <HAL_GetTick>
 8000a24:	60b8      	str	r0, [r7, #8]
  uint32_t wait = Delay;
 8000a26:	687b      	ldr	r3, [r7, #4]
 8000a28:	60fb      	str	r3, [r7, #12]

  /* Add a freq to guarantee minimum wait */
  if (wait < HAL_MAX_DELAY)
 8000a2a:	68fb      	ldr	r3, [r7, #12]
 8000a2c:	f1b3 3fff 	cmp.w	r3, #4294967295
 8000a30:	d005      	beq.n	8000a3e <HAL_Delay+0x26>
  {
    wait += (uint32_t)(uwTickFreq);
 8000a32:	4b0a      	ldr	r3, [pc, #40]	; (8000a5c <HAL_Delay+0x44>)
 8000a34:	781b      	ldrb	r3, [r3, #0]
 8000a36:	461a      	mov	r2, r3
 8000a38:	68fb      	ldr	r3, [r7, #12]
 8000a3a:	4413      	add	r3, r2
 8000a3c:	60fb      	str	r3, [r7, #12]
  }

  while ((HAL_GetTick() - tickstart) < wait)
 8000a3e:	bf00      	nop
 8000a40:	f7ff ffe0 	bl	8000a04 <HAL_GetTick>
 8000a44:	4602      	mov	r2, r0
 8000a46:	68bb      	ldr	r3, [r7, #8]
 8000a48:	1ad3      	subs	r3, r2, r3
 8000a4a:	68fa      	ldr	r2, [r7, #12]
 8000a4c:	429a      	cmp	r2, r3
 8000a4e:	d8f7      	bhi.n	8000a40 <HAL_Delay+0x28>
  {
  }
}
 8000a50:	bf00      	nop
 8000a52:	bf00      	nop
 8000a54:	3710      	adds	r7, #16
 8000a56:	46bd      	mov	sp, r7
 8000a58:	bd80      	pop	{r7, pc}
 8000a5a:	bf00      	nop
 8000a5c:	20000008 	.word	0x20000008

08000a60 <HAL_ADC_Init>:
  *         of structure "ADC_InitTypeDef".
  * @param  hadc: ADC handle
  * @retval HAL status
  */
HAL_StatusTypeDef HAL_ADC_Init(ADC_HandleTypeDef* hadc)
{
 8000a60:	b580      	push	{r7, lr}
 8000a62:	b086      	sub	sp, #24
 8000a64:	af00      	add	r7, sp, #0
 8000a66:	6078      	str	r0, [r7, #4]
  HAL_StatusTypeDef tmp_hal_status = HAL_OK;
 8000a68:	2300      	movs	r3, #0
 8000a6a:	75fb      	strb	r3, [r7, #23]
  uint32_t tmp_cr1 = 0U;
 8000a6c:	2300      	movs	r3, #0
 8000a6e:	613b      	str	r3, [r7, #16]
  uint32_t tmp_cr2 = 0U;
 8000a70:	2300      	movs	r3, #0
 8000a72:	60bb      	str	r3, [r7, #8]
  uint32_t tmp_sqr1 = 0U;
 8000a74:	2300      	movs	r3, #0
 8000a76:	60fb      	str	r3, [r7, #12]
  
  /* Check ADC handle */
  if(hadc == NULL)
 8000a78:	687b      	ldr	r3, [r7, #4]
 8000a7a:	2b00      	cmp	r3, #0
 8000a7c:	d101      	bne.n	8000a82 <HAL_ADC_Init+0x22>
  {
    return HAL_ERROR;
 8000a7e:	2301      	movs	r3, #1
 8000a80:	e0be      	b.n	8000c00 <HAL_ADC_Init+0x1a0>
  assert_param(IS_ADC_DATA_ALIGN(hadc->Init.DataAlign));
  assert_param(IS_ADC_SCAN_MODE(hadc->Init.ScanConvMode));
  assert_param(IS_FUNCTIONAL_STATE(hadc->Init.ContinuousConvMode));
  assert_param(IS_ADC_EXTTRIG(hadc->Init.ExternalTrigConv));
  
  if(hadc->Init.ScanConvMode != ADC_SCAN_DISABLE)
 8000a82:	687b      	ldr	r3, [r7, #4]
 8000a84:	689b      	ldr	r3, [r3, #8]
 8000a86:	2b00      	cmp	r3, #0
  /* Refer to header of this file for more details on clock enabling          */
  /* procedure.                                                               */

  /* Actions performed only if ADC is coming from state reset:                */
  /* - Initialization of ADC MSP                                              */
  if (hadc->State == HAL_ADC_STATE_RESET)
 8000a88:	687b      	ldr	r3, [r7, #4]
 8000a8a:	6a9b      	ldr	r3, [r3, #40]	; 0x28
 8000a8c:	2b00      	cmp	r3, #0
 8000a8e:	d109      	bne.n	8000aa4 <HAL_ADC_Init+0x44>
  {
    /* Initialize ADC error code */
    ADC_CLEAR_ERRORCODE(hadc);
 8000a90:	687b      	ldr	r3, [r7, #4]
 8000a92:	2200      	movs	r2, #0
 8000a94:	62da      	str	r2, [r3, #44]	; 0x2c
    
    /* Allocate lock resource and initialize it */
    hadc->Lock = HAL_UNLOCKED;
 8000a96:	687b      	ldr	r3, [r7, #4]
 8000a98:	2200      	movs	r2, #0
 8000a9a:	f883 2024 	strb.w	r2, [r3, #36]	; 0x24
    
    /* Init the low level hardware */
    hadc->MspInitCallback(hadc);
#else
    /* Init the low level hardware */
    HAL_ADC_MspInit(hadc);
 8000a9e:	6878      	ldr	r0, [r7, #4]
 8000aa0:	f7ff fd9c 	bl	80005dc <HAL_ADC_MspInit>
  /* Stop potential conversion on going, on regular and injected groups */
  /* Disable ADC peripheral */
  /* Note: In case of ADC already enabled, precaution to not launch an        */
  /*       unwanted conversion while modifying register CR2 by writing 1 to   */
  /*       bit ADON.                                                          */
  tmp_hal_status = ADC_ConversionStop_Disable(hadc);
 8000aa4:	6878      	ldr	r0, [r7, #4]
 8000aa6:	f000 fcc7 	bl	8001438 <ADC_ConversionStop_Disable>
 8000aaa:	4603      	mov	r3, r0
 8000aac:	75fb      	strb	r3, [r7, #23]
  
  
  /* Configuration of ADC parameters if previous preliminary actions are      */ 
  /* correctly completed.                                                     */
  if (HAL_IS_BIT_CLR(hadc->State, HAL_ADC_STATE_ERROR_INTERNAL) &&
 8000aae:	687b      	ldr	r3, [r7, #4]
 8000ab0:	6a9b      	ldr	r3, [r3, #40]	; 0x28
 8000ab2:	f003 0310 	and.w	r3, r3, #16
 8000ab6:	2b00      	cmp	r3, #0
 8000ab8:	f040 8099 	bne.w	8000bee <HAL_ADC_Init+0x18e>
 8000abc:	7dfb      	ldrb	r3, [r7, #23]
 8000abe:	2b00      	cmp	r3, #0
 8000ac0:	f040 8095 	bne.w	8000bee <HAL_ADC_Init+0x18e>
      (tmp_hal_status == HAL_OK)                                  )
  {
    /* Set ADC state */
    ADC_STATE_CLR_SET(hadc->State,
 8000ac4:	687b      	ldr	r3, [r7, #4]
 8000ac6:	6a9b      	ldr	r3, [r3, #40]	; 0x28
 8000ac8:	f423 5388 	bic.w	r3, r3, #4352	; 0x1100
 8000acc:	f023 0302 	bic.w	r3, r3, #2
 8000ad0:	f043 0202 	orr.w	r2, r3, #2
 8000ad4:	687b      	ldr	r3, [r7, #4]
 8000ad6:	629a      	str	r2, [r3, #40]	; 0x28
    /*  - continuous conversion mode                                          */
    /* Note: External trigger polarity (ADC_CR2_EXTTRIG) is set into          */
    /*       HAL_ADC_Start_xxx functions because if set in this function,     */
    /*       a conversion on injected group would start a conversion also on  */
    /*       regular group after ADC enabling.                                */
    tmp_cr2 |= (hadc->Init.DataAlign                                          |
 8000ad8:	687b      	ldr	r3, [r7, #4]
 8000ada:	685a      	ldr	r2, [r3, #4]
                ADC_CFGR_EXTSEL(hadc, hadc->Init.ExternalTrigConv)            |
 8000adc:	687b      	ldr	r3, [r7, #4]
 8000ade:	69db      	ldr	r3, [r3, #28]
    tmp_cr2 |= (hadc->Init.DataAlign                                          |
 8000ae0:	431a      	orrs	r2, r3
                ADC_CR2_CONTINUOUS((uint32_t)hadc->Init.ContinuousConvMode)   );
 8000ae2:	687b      	ldr	r3, [r7, #4]
 8000ae4:	7b1b      	ldrb	r3, [r3, #12]
 8000ae6:	005b      	lsls	r3, r3, #1
                ADC_CFGR_EXTSEL(hadc, hadc->Init.ExternalTrigConv)            |
 8000ae8:	4313      	orrs	r3, r2
    tmp_cr2 |= (hadc->Init.DataAlign                                          |
 8000aea:	68ba      	ldr	r2, [r7, #8]
 8000aec:	4313      	orrs	r3, r2
 8000aee:	60bb      	str	r3, [r7, #8]

    /* Configuration of ADC:                                                  */
    /*  - scan mode                                                           */
    /*  - discontinuous mode disable/enable                                   */
    /*  - discontinuous mode number of conversions                            */
    tmp_cr1 |= (ADC_CR1_SCAN_SET(hadc->Init.ScanConvMode));
 8000af0:	687b      	ldr	r3, [r7, #4]
 8000af2:	689b      	ldr	r3, [r3, #8]
 8000af4:	f5b3 7f80 	cmp.w	r3, #256	; 0x100
 8000af8:	d003      	beq.n	8000b02 <HAL_ADC_Init+0xa2>
 8000afa:	687b      	ldr	r3, [r7, #4]
 8000afc:	689b      	ldr	r3, [r3, #8]
 8000afe:	2b01      	cmp	r3, #1
 8000b00:	d102      	bne.n	8000b08 <HAL_ADC_Init+0xa8>
 8000b02:	f44f 7380 	mov.w	r3, #256	; 0x100
 8000b06:	e000      	b.n	8000b0a <HAL_ADC_Init+0xaa>
 8000b08:	2300      	movs	r3, #0
 8000b0a:	693a      	ldr	r2, [r7, #16]
 8000b0c:	4313      	orrs	r3, r2
 8000b0e:	613b      	str	r3, [r7, #16]
    
    /* Enable discontinuous mode only if continuous mode is disabled */
    /* Note: If parameter "Init.ScanConvMode" is set to disable, parameter    */
    /*       discontinuous is set anyway, but will have no effect on ADC HW.  */
    if (hadc->Init.DiscontinuousConvMode == ENABLE)
 8000b10:	687b      	ldr	r3, [r7, #4]
 8000b12:	7d1b      	ldrb	r3, [r3, #20]
 8000b14:	2b01      	cmp	r3, #1
 8000b16:	d119      	bne.n	8000b4c <HAL_ADC_Init+0xec>
    {
      if (hadc->Init.ContinuousConvMode == DISABLE)
 8000b18:	687b      	ldr	r3, [r7, #4]
 8000b1a:	7b1b      	ldrb	r3, [r3, #12]
 8000b1c:	2b00      	cmp	r3, #0
 8000b1e:	d109      	bne.n	8000b34 <HAL_ADC_Init+0xd4>
      {
        /* Enable the selected ADC regular discontinuous mode */
        /* Set the number of channels to be converted in discontinuous mode */
        SET_BIT(tmp_cr1, ADC_CR1_DISCEN                                            |
 8000b20:	687b      	ldr	r3, [r7, #4]
 8000b22:	699b      	ldr	r3, [r3, #24]
 8000b24:	3b01      	subs	r3, #1
 8000b26:	035a      	lsls	r2, r3, #13
 8000b28:	693b      	ldr	r3, [r7, #16]
 8000b2a:	4313      	orrs	r3, r2
 8000b2c:	f443 6300 	orr.w	r3, r3, #2048	; 0x800
 8000b30:	613b      	str	r3, [r7, #16]
 8000b32:	e00b      	b.n	8000b4c <HAL_ADC_Init+0xec>
      {
        /* ADC regular group settings continuous and sequencer discontinuous*/
        /* cannot be enabled simultaneously.                                */
        
        /* Update ADC state machine to error */
        SET_BIT(hadc->State, HAL_ADC_STATE_ERROR_CONFIG);
 8000b34:	687b      	ldr	r3, [r7, #4]
 8000b36:	6a9b      	ldr	r3, [r3, #40]	; 0x28
 8000b38:	f043 0220 	orr.w	r2, r3, #32
 8000b3c:	687b      	ldr	r3, [r7, #4]
 8000b3e:	629a      	str	r2, [r3, #40]	; 0x28
        
        /* Set ADC error code to ADC IP internal error */
        SET_BIT(hadc->ErrorCode, HAL_ADC_ERROR_INTERNAL);
 8000b40:	687b      	ldr	r3, [r7, #4]
 8000b42:	6adb      	ldr	r3, [r3, #44]	; 0x2c
 8000b44:	f043 0201 	orr.w	r2, r3, #1
 8000b48:	687b      	ldr	r3, [r7, #4]
 8000b4a:	62da      	str	r2, [r3, #44]	; 0x2c
      }
    }
    
    /* Update ADC configuration register CR1 with previous settings */
      MODIFY_REG(hadc->Instance->CR1,
 8000b4c:	687b      	ldr	r3, [r7, #4]
 8000b4e:	681b      	ldr	r3, [r3, #0]
 8000b50:	685b      	ldr	r3, [r3, #4]
 8000b52:	f423 4169 	bic.w	r1, r3, #59648	; 0xe900
 8000b56:	687b      	ldr	r3, [r7, #4]
 8000b58:	681b      	ldr	r3, [r3, #0]
 8000b5a:	693a      	ldr	r2, [r7, #16]
 8000b5c:	430a      	orrs	r2, r1
 8000b5e:	605a      	str	r2, [r3, #4]
                 ADC_CR1_DISCEN  |
                 ADC_CR1_DISCNUM    ,
                 tmp_cr1             );
    
    /* Update ADC configuration register CR2 with previous settings */
      MODIFY_REG(hadc->Instance->CR2,
 8000b60:	687b      	ldr	r3, [r7, #4]
 8000b62:	681b      	ldr	r3, [r3, #0]
 8000b64:	689a      	ldr	r2, [r3, #8]
 8000b66:	4b28      	ldr	r3, [pc, #160]	; (8000c08 <HAL_ADC_Init+0x1a8>)
 8000b68:	4013      	ands	r3, r2
 8000b6a:	687a      	ldr	r2, [r7, #4]
 8000b6c:	6812      	ldr	r2, [r2, #0]
 8000b6e:	68b9      	ldr	r1, [r7, #8]
 8000b70:	430b      	orrs	r3, r1
 8000b72:	6093      	str	r3, [r2, #8]
    /*   Note: Scan mode is present by hardware on this device and, if        */
    /*   disabled, discards automatically nb of conversions. Anyway, nb of    */
    /*   conversions is forced to 0x00 for alignment over all STM32 devices.  */
    /* - if scan mode is enabled, regular channels sequence length is set to  */
    /*   parameter "NbrOfConversion"                                          */
    if (ADC_CR1_SCAN_SET(hadc->Init.ScanConvMode) == ADC_SCAN_ENABLE)
 8000b74:	687b      	ldr	r3, [r7, #4]
 8000b76:	689b      	ldr	r3, [r3, #8]
 8000b78:	f5b3 7f80 	cmp.w	r3, #256	; 0x100
 8000b7c:	d003      	beq.n	8000b86 <HAL_ADC_Init+0x126>
 8000b7e:	687b      	ldr	r3, [r7, #4]
 8000b80:	689b      	ldr	r3, [r3, #8]
 8000b82:	2b01      	cmp	r3, #1
 8000b84:	d104      	bne.n	8000b90 <HAL_ADC_Init+0x130>
    {
      tmp_sqr1 = ADC_SQR1_L_SHIFT(hadc->Init.NbrOfConversion);
 8000b86:	687b      	ldr	r3, [r7, #4]
 8000b88:	691b      	ldr	r3, [r3, #16]
 8000b8a:	3b01      	subs	r3, #1
 8000b8c:	051b      	lsls	r3, r3, #20
 8000b8e:	60fb      	str	r3, [r7, #12]
    }
      
    MODIFY_REG(hadc->Instance->SQR1,
 8000b90:	687b      	ldr	r3, [r7, #4]
 8000b92:	681b      	ldr	r3, [r3, #0]
 8000b94:	6adb      	ldr	r3, [r3, #44]	; 0x2c
 8000b96:	f423 0170 	bic.w	r1, r3, #15728640	; 0xf00000
 8000b9a:	687b      	ldr	r3, [r7, #4]
 8000b9c:	681b      	ldr	r3, [r3, #0]
 8000b9e:	68fa      	ldr	r2, [r7, #12]
 8000ba0:	430a      	orrs	r2, r1
 8000ba2:	62da      	str	r2, [r3, #44]	; 0x2c
    /* ensure of no potential problem of ADC core IP clocking.                */
    /* Check through register CR2 (excluding bits set in other functions:     */
    /* execution control bits (ADON, JSWSTART, SWSTART), regular group bits   */
    /* (DMA), injected group bits (JEXTTRIG and JEXTSEL), channel internal    */
    /* measurement path bit (TSVREFE).                                        */
    if (READ_BIT(hadc->Instance->CR2, ~(ADC_CR2_ADON | ADC_CR2_DMA |
 8000ba4:	687b      	ldr	r3, [r7, #4]
 8000ba6:	681b      	ldr	r3, [r3, #0]
 8000ba8:	689a      	ldr	r2, [r3, #8]
 8000baa:	4b18      	ldr	r3, [pc, #96]	; (8000c0c <HAL_ADC_Init+0x1ac>)
 8000bac:	4013      	ands	r3, r2
 8000bae:	68ba      	ldr	r2, [r7, #8]
 8000bb0:	429a      	cmp	r2, r3
 8000bb2:	d10b      	bne.n	8000bcc <HAL_ADC_Init+0x16c>
                                        ADC_CR2_JEXTTRIG | ADC_CR2_JEXTSEL |
                                        ADC_CR2_TSVREFE                     ))
         == tmp_cr2)
    {
      /* Set ADC error code to none */
      ADC_CLEAR_ERRORCODE(hadc);
 8000bb4:	687b      	ldr	r3, [r7, #4]
 8000bb6:	2200      	movs	r2, #0
 8000bb8:	62da      	str	r2, [r3, #44]	; 0x2c
      
      /* Set the ADC state */
      ADC_STATE_CLR_SET(hadc->State,
 8000bba:	687b      	ldr	r3, [r7, #4]
 8000bbc:	6a9b      	ldr	r3, [r3, #40]	; 0x28
 8000bbe:	f023 0303 	bic.w	r3, r3, #3
 8000bc2:	f043 0201 	orr.w	r2, r3, #1
 8000bc6:	687b      	ldr	r3, [r7, #4]
 8000bc8:	629a      	str	r2, [r3, #40]	; 0x28
    if (READ_BIT(hadc->Instance->CR2, ~(ADC_CR2_ADON | ADC_CR2_DMA |
 8000bca:	e018      	b.n	8000bfe <HAL_ADC_Init+0x19e>
                        HAL_ADC_STATE_READY);
    }
    else
    {
      /* Update ADC state machine to error */
      ADC_STATE_CLR_SET(hadc->State,
 8000bcc:	687b      	ldr	r3, [r7, #4]
 8000bce:	6a9b      	ldr	r3, [r3, #40]	; 0x28
 8000bd0:	f023 0312 	bic.w	r3, r3, #18
 8000bd4:	f043 0210 	orr.w	r2, r3, #16
 8000bd8:	687b      	ldr	r3, [r7, #4]
 8000bda:	629a      	str	r2, [r3, #40]	; 0x28
                        HAL_ADC_STATE_BUSY_INTERNAL,
                        HAL_ADC_STATE_ERROR_INTERNAL);
      
      /* Set ADC error code to ADC IP internal error */
      SET_BIT(hadc->ErrorCode, HAL_ADC_ERROR_INTERNAL);
 8000bdc:	687b      	ldr	r3, [r7, #4]
 8000bde:	6adb      	ldr	r3, [r3, #44]	; 0x2c
 8000be0:	f043 0201 	orr.w	r2, r3, #1
 8000be4:	687b      	ldr	r3, [r7, #4]
 8000be6:	62da      	str	r2, [r3, #44]	; 0x2c
      
      tmp_hal_status = HAL_ERROR;
 8000be8:	2301      	movs	r3, #1
 8000bea:	75fb      	strb	r3, [r7, #23]
    if (READ_BIT(hadc->Instance->CR2, ~(ADC_CR2_ADON | ADC_CR2_DMA |
 8000bec:	e007      	b.n	8000bfe <HAL_ADC_Init+0x19e>
  
  }
  else
  {
    /* Update ADC state machine to error */
    SET_BIT(hadc->State, HAL_ADC_STATE_ERROR_INTERNAL);
 8000bee:	687b      	ldr	r3, [r7, #4]
 8000bf0:	6a9b      	ldr	r3, [r3, #40]	; 0x28
 8000bf2:	f043 0210 	orr.w	r2, r3, #16
 8000bf6:	687b      	ldr	r3, [r7, #4]
 8000bf8:	629a      	str	r2, [r3, #40]	; 0x28
        
    tmp_hal_status = HAL_ERROR;
 8000bfa:	2301      	movs	r3, #1
 8000bfc:	75fb      	strb	r3, [r7, #23]
  }
  
  /* Return function status */
  return tmp_hal_status;
 8000bfe:	7dfb      	ldrb	r3, [r7, #23]
}
 8000c00:	4618      	mov	r0, r3
 8000c02:	3718      	adds	r7, #24
 8000c04:	46bd      	mov	sp, r7
 8000c06:	bd80      	pop	{r7, pc}
 8000c08:	ffe1f7fd 	.word	0xffe1f7fd
 8000c0c:	ff1f0efe 	.word	0xff1f0efe

08000c10 <HAL_ADC_Start>:
  *         Interruptions enabled in this function: None.
  * @param  hadc: ADC handle
  * @retval HAL status
  */
HAL_StatusTypeDef HAL_ADC_Start(ADC_HandleTypeDef* hadc)
{
 8000c10:	b580      	push	{r7, lr}
 8000c12:	b084      	sub	sp, #16
 8000c14:	af00      	add	r7, sp, #0
 8000c16:	6078      	str	r0, [r7, #4]
  HAL_StatusTypeDef tmp_hal_status = HAL_OK;
 8000c18:	2300      	movs	r3, #0
 8000c1a:	73fb      	strb	r3, [r7, #15]
  
  /* Check the parameters */
  assert_param(IS_ADC_ALL_INSTANCE(hadc->Instance));
  
  /* Process locked */
  __HAL_LOCK(hadc);
 8000c1c:	687b      	ldr	r3, [r7, #4]
 8000c1e:	f893 3024 	ldrb.w	r3, [r3, #36]	; 0x24
 8000c22:	2b01      	cmp	r3, #1
 8000c24:	d101      	bne.n	8000c2a <HAL_ADC_Start+0x1a>
 8000c26:	2302      	movs	r3, #2
 8000c28:	e098      	b.n	8000d5c <HAL_ADC_Start+0x14c>
 8000c2a:	687b      	ldr	r3, [r7, #4]
 8000c2c:	2201      	movs	r2, #1
 8000c2e:	f883 2024 	strb.w	r2, [r3, #36]	; 0x24
   
  /* Enable the ADC peripheral */
  tmp_hal_status = ADC_Enable(hadc);
 8000c32:	6878      	ldr	r0, [r7, #4]
 8000c34:	f000 fba6 	bl	8001384 <ADC_Enable>
 8000c38:	4603      	mov	r3, r0
 8000c3a:	73fb      	strb	r3, [r7, #15]
  
  /* Start conversion if ADC is effectively enabled */
  if (tmp_hal_status == HAL_OK)
 8000c3c:	7bfb      	ldrb	r3, [r7, #15]
 8000c3e:	2b00      	cmp	r3, #0
 8000c40:	f040 8087 	bne.w	8000d52 <HAL_ADC_Start+0x142>
  {
    /* Set ADC state                                                          */
    /* - Clear state bitfield related to regular group conversion results     */
    /* - Set state bitfield related to regular operation                      */
    ADC_STATE_CLR_SET(hadc->State,
 8000c44:	687b      	ldr	r3, [r7, #4]
 8000c46:	6a9b      	ldr	r3, [r3, #40]	; 0x28
 8000c48:	f423 7340 	bic.w	r3, r3, #768	; 0x300
 8000c4c:	f023 0301 	bic.w	r3, r3, #1
 8000c50:	f443 7280 	orr.w	r2, r3, #256	; 0x100
 8000c54:	687b      	ldr	r3, [r7, #4]
 8000c56:	629a      	str	r2, [r3, #40]	; 0x28
                      HAL_ADC_STATE_REG_BUSY);
    
    /* Set group injected state (from auto-injection) and multimode state     */
    /* for all cases of multimode: independent mode, multimode ADC master     */
    /* or multimode ADC slave (for devices with several ADCs):                */
    if (ADC_NONMULTIMODE_OR_MULTIMODEMASTER(hadc))
 8000c58:	687b      	ldr	r3, [r7, #4]
 8000c5a:	681b      	ldr	r3, [r3, #0]
 8000c5c:	4a41      	ldr	r2, [pc, #260]	; (8000d64 <HAL_ADC_Start+0x154>)
 8000c5e:	4293      	cmp	r3, r2
 8000c60:	d105      	bne.n	8000c6e <HAL_ADC_Start+0x5e>
 8000c62:	4b41      	ldr	r3, [pc, #260]	; (8000d68 <HAL_ADC_Start+0x158>)
 8000c64:	685b      	ldr	r3, [r3, #4]
 8000c66:	f403 2370 	and.w	r3, r3, #983040	; 0xf0000
 8000c6a:	2b00      	cmp	r3, #0
 8000c6c:	d115      	bne.n	8000c9a <HAL_ADC_Start+0x8a>
    {
      /* Set ADC state (ADC independent or master) */
      CLEAR_BIT(hadc->State, HAL_ADC_STATE_MULTIMODE_SLAVE);
 8000c6e:	687b      	ldr	r3, [r7, #4]
 8000c70:	6a9b      	ldr	r3, [r3, #40]	; 0x28
 8000c72:	f423 1280 	bic.w	r2, r3, #1048576	; 0x100000
 8000c76:	687b      	ldr	r3, [r7, #4]
 8000c78:	629a      	str	r2, [r3, #40]	; 0x28
      
      /* If conversions on group regular are also triggering group injected,  */
      /* update ADC state.                                                    */
      if (READ_BIT(hadc->Instance->CR1, ADC_CR1_JAUTO) != RESET)
 8000c7a:	687b      	ldr	r3, [r7, #4]
 8000c7c:	681b      	ldr	r3, [r3, #0]
 8000c7e:	685b      	ldr	r3, [r3, #4]
 8000c80:	f403 6380 	and.w	r3, r3, #1024	; 0x400
 8000c84:	2b00      	cmp	r3, #0
 8000c86:	d026      	beq.n	8000cd6 <HAL_ADC_Start+0xc6>
      {
        ADC_STATE_CLR_SET(hadc->State, HAL_ADC_STATE_INJ_EOC, HAL_ADC_STATE_INJ_BUSY);  
 8000c88:	687b      	ldr	r3, [r7, #4]
 8000c8a:	6a9b      	ldr	r3, [r3, #40]	; 0x28
 8000c8c:	f423 5340 	bic.w	r3, r3, #12288	; 0x3000
 8000c90:	f443 5280 	orr.w	r2, r3, #4096	; 0x1000
 8000c94:	687b      	ldr	r3, [r7, #4]
 8000c96:	629a      	str	r2, [r3, #40]	; 0x28
      if (READ_BIT(hadc->Instance->CR1, ADC_CR1_JAUTO) != RESET)
 8000c98:	e01d      	b.n	8000cd6 <HAL_ADC_Start+0xc6>
      }
    }
    else
    {
      /* Set ADC state (ADC slave) */
      SET_BIT(hadc->State, HAL_ADC_STATE_MULTIMODE_SLAVE);
 8000c9a:	687b      	ldr	r3, [r7, #4]
 8000c9c:	6a9b      	ldr	r3, [r3, #40]	; 0x28
 8000c9e:	f443 1280 	orr.w	r2, r3, #1048576	; 0x100000
 8000ca2:	687b      	ldr	r3, [r7, #4]
 8000ca4:	629a      	str	r2, [r3, #40]	; 0x28
      
      /* If conversions on group regular are also triggering group injected,  */
      /* update ADC state.                                                    */
      if (ADC_MULTIMODE_AUTO_INJECTED(hadc))
 8000ca6:	687b      	ldr	r3, [r7, #4]
 8000ca8:	681b      	ldr	r3, [r3, #0]
 8000caa:	4a2f      	ldr	r2, [pc, #188]	; (8000d68 <HAL_ADC_Start+0x158>)
 8000cac:	4293      	cmp	r3, r2
 8000cae:	d004      	beq.n	8000cba <HAL_ADC_Start+0xaa>
 8000cb0:	687b      	ldr	r3, [r7, #4]
 8000cb2:	681b      	ldr	r3, [r3, #0]
 8000cb4:	4a2b      	ldr	r2, [pc, #172]	; (8000d64 <HAL_ADC_Start+0x154>)
 8000cb6:	4293      	cmp	r3, r2
 8000cb8:	d10d      	bne.n	8000cd6 <HAL_ADC_Start+0xc6>
 8000cba:	4b2b      	ldr	r3, [pc, #172]	; (8000d68 <HAL_ADC_Start+0x158>)
 8000cbc:	685b      	ldr	r3, [r3, #4]
 8000cbe:	f403 6380 	and.w	r3, r3, #1024	; 0x400
 8000cc2:	2b00      	cmp	r3, #0
 8000cc4:	d007      	beq.n	8000cd6 <HAL_ADC_Start+0xc6>
      {
        ADC_STATE_CLR_SET(hadc->State, HAL_ADC_STATE_INJ_EOC, HAL_ADC_STATE_INJ_BUSY);
 8000cc6:	687b      	ldr	r3, [r7, #4]
 8000cc8:	6a9b      	ldr	r3, [r3, #40]	; 0x28
 8000cca:	f423 5340 	bic.w	r3, r3, #12288	; 0x3000
 8000cce:	f443 5280 	orr.w	r2, r3, #4096	; 0x1000
 8000cd2:	687b      	ldr	r3, [r7, #4]
 8000cd4:	629a      	str	r2, [r3, #40]	; 0x28
      }
    }
    
    /* State machine update: Check if an injected conversion is ongoing */
    if (HAL_IS_BIT_SET(hadc->State, HAL_ADC_STATE_INJ_BUSY))
 8000cd6:	687b      	ldr	r3, [r7, #4]
 8000cd8:	6a9b      	ldr	r3, [r3, #40]	; 0x28
 8000cda:	f403 5380 	and.w	r3, r3, #4096	; 0x1000
 8000cde:	2b00      	cmp	r3, #0
 8000ce0:	d006      	beq.n	8000cf0 <HAL_ADC_Start+0xe0>
    {
      /* Reset ADC error code fields related to conversions on group regular */
      CLEAR_BIT(hadc->ErrorCode, (HAL_ADC_ERROR_OVR | HAL_ADC_ERROR_DMA));         
 8000ce2:	687b      	ldr	r3, [r7, #4]
 8000ce4:	6adb      	ldr	r3, [r3, #44]	; 0x2c
 8000ce6:	f023 0206 	bic.w	r2, r3, #6
 8000cea:	687b      	ldr	r3, [r7, #4]
 8000cec:	62da      	str	r2, [r3, #44]	; 0x2c
 8000cee:	e002      	b.n	8000cf6 <HAL_ADC_Start+0xe6>
    }
    else
    {
      /* Reset ADC all error code fields */
      ADC_CLEAR_ERRORCODE(hadc);
 8000cf0:	687b      	ldr	r3, [r7, #4]
 8000cf2:	2200      	movs	r2, #0
 8000cf4:	62da      	str	r2, [r3, #44]	; 0x2c
    }
    
    /* Process unlocked */
    /* Unlock before starting ADC conversions: in case of potential           */
    /* interruption, to let the process to ADC IRQ Handler.                   */
    __HAL_UNLOCK(hadc);
 8000cf6:	687b      	ldr	r3, [r7, #4]
 8000cf8:	2200      	movs	r2, #0
 8000cfa:	f883 2024 	strb.w	r2, [r3, #36]	; 0x24
  
    /* Clear regular group conversion flag */
    /* (To ensure of no unknown state from potential previous ADC operations) */
    __HAL_ADC_CLEAR_FLAG(hadc, ADC_FLAG_EOC);
 8000cfe:	687b      	ldr	r3, [r7, #4]
 8000d00:	681b      	ldr	r3, [r3, #0]
 8000d02:	f06f 0202 	mvn.w	r2, #2
 8000d06:	601a      	str	r2, [r3, #0]
    /*  - if ADC is slave, ADC is enabled only (conversion is not started).   */
    /*  - if ADC is master, ADC is enabled and conversion is started.         */
    /* If ADC is master, ADC is enabled and conversion is started.            */
    /* Note: Alternate trigger for single conversion could be to force an     */
    /*       additional set of bit ADON "hadc->Instance->CR2 |= ADC_CR2_ADON;"*/
    if (ADC_IS_SOFTWARE_START_REGULAR(hadc)      &&
 8000d08:	687b      	ldr	r3, [r7, #4]
 8000d0a:	681b      	ldr	r3, [r3, #0]
 8000d0c:	689b      	ldr	r3, [r3, #8]
 8000d0e:	f403 2360 	and.w	r3, r3, #917504	; 0xe0000
 8000d12:	f5b3 2f60 	cmp.w	r3, #917504	; 0xe0000
 8000d16:	d113      	bne.n	8000d40 <HAL_ADC_Start+0x130>
        ADC_NONMULTIMODE_OR_MULTIMODEMASTER(hadc)  )
 8000d18:	687b      	ldr	r3, [r7, #4]
 8000d1a:	681b      	ldr	r3, [r3, #0]
    if (ADC_IS_SOFTWARE_START_REGULAR(hadc)      &&
 8000d1c:	4a11      	ldr	r2, [pc, #68]	; (8000d64 <HAL_ADC_Start+0x154>)
 8000d1e:	4293      	cmp	r3, r2
 8000d20:	d105      	bne.n	8000d2e <HAL_ADC_Start+0x11e>
        ADC_NONMULTIMODE_OR_MULTIMODEMASTER(hadc)  )
 8000d22:	4b11      	ldr	r3, [pc, #68]	; (8000d68 <HAL_ADC_Start+0x158>)
 8000d24:	685b      	ldr	r3, [r3, #4]
 8000d26:	f403 2370 	and.w	r3, r3, #983040	; 0xf0000
    if (ADC_IS_SOFTWARE_START_REGULAR(hadc)      &&
 8000d2a:	2b00      	cmp	r3, #0
 8000d2c:	d108      	bne.n	8000d40 <HAL_ADC_Start+0x130>
    {
      /* Start ADC conversion on regular group with SW start */
      SET_BIT(hadc->Instance->CR2, (ADC_CR2_SWSTART | ADC_CR2_EXTTRIG));
 8000d2e:	687b      	ldr	r3, [r7, #4]
 8000d30:	681b      	ldr	r3, [r3, #0]
 8000d32:	689a      	ldr	r2, [r3, #8]
 8000d34:	687b      	ldr	r3, [r7, #4]
 8000d36:	681b      	ldr	r3, [r3, #0]
 8000d38:	f442 02a0 	orr.w	r2, r2, #5242880	; 0x500000
 8000d3c:	609a      	str	r2, [r3, #8]
 8000d3e:	e00c      	b.n	8000d5a <HAL_ADC_Start+0x14a>
    }
    else
    {
      /* Start ADC conversion on regular group with external trigger */
      SET_BIT(hadc->Instance->CR2, ADC_CR2_EXTTRIG);
 8000d40:	687b      	ldr	r3, [r7, #4]
 8000d42:	681b      	ldr	r3, [r3, #0]
 8000d44:	689a      	ldr	r2, [r3, #8]
 8000d46:	687b      	ldr	r3, [r7, #4]
 8000d48:	681b      	ldr	r3, [r3, #0]
 8000d4a:	f442 1280 	orr.w	r2, r2, #1048576	; 0x100000
 8000d4e:	609a      	str	r2, [r3, #8]
 8000d50:	e003      	b.n	8000d5a <HAL_ADC_Start+0x14a>
    }
  }
  else
  {
    /* Process unlocked */
    __HAL_UNLOCK(hadc);
 8000d52:	687b      	ldr	r3, [r7, #4]
 8000d54:	2200      	movs	r2, #0
 8000d56:	f883 2024 	strb.w	r2, [r3, #36]	; 0x24
  }
    
  /* Return function status */
  return tmp_hal_status;
 8000d5a:	7bfb      	ldrb	r3, [r7, #15]
}
 8000d5c:	4618      	mov	r0, r3
 8000d5e:	3710      	adds	r7, #16
 8000d60:	46bd      	mov	sp, r7
 8000d62:	bd80      	pop	{r7, pc}
 8000d64:	40012800 	.word	0x40012800
 8000d68:	40012400 	.word	0x40012400

08000d6c <HAL_ADC_Stop>:
  *         should be preliminarily stopped using HAL_ADCEx_InjectedStop function.
  * @param  hadc: ADC handle
  * @retval HAL status.
  */
HAL_StatusTypeDef HAL_ADC_Stop(ADC_HandleTypeDef* hadc)
{
 8000d6c:	b580      	push	{r7, lr}
 8000d6e:	b084      	sub	sp, #16
 8000d70:	af00      	add	r7, sp, #0
 8000d72:	6078      	str	r0, [r7, #4]
  HAL_StatusTypeDef tmp_hal_status = HAL_OK;
 8000d74:	2300      	movs	r3, #0
 8000d76:	73fb      	strb	r3, [r7, #15]
  
  /* Check the parameters */
  assert_param(IS_ADC_ALL_INSTANCE(hadc->Instance));
     
  /* Process locked */
  __HAL_LOCK(hadc);
 8000d78:	687b      	ldr	r3, [r7, #4]
 8000d7a:	f893 3024 	ldrb.w	r3, [r3, #36]	; 0x24
 8000d7e:	2b01      	cmp	r3, #1
 8000d80:	d101      	bne.n	8000d86 <HAL_ADC_Stop+0x1a>
 8000d82:	2302      	movs	r3, #2
 8000d84:	e01a      	b.n	8000dbc <HAL_ADC_Stop+0x50>
 8000d86:	687b      	ldr	r3, [r7, #4]
 8000d88:	2201      	movs	r2, #1
 8000d8a:	f883 2024 	strb.w	r2, [r3, #36]	; 0x24
  
  /* Stop potential conversion on going, on regular and injected groups */
  /* Disable ADC peripheral */
  tmp_hal_status = ADC_ConversionStop_Disable(hadc);
 8000d8e:	6878      	ldr	r0, [r7, #4]
 8000d90:	f000 fb52 	bl	8001438 <ADC_ConversionStop_Disable>
 8000d94:	4603      	mov	r3, r0
 8000d96:	73fb      	strb	r3, [r7, #15]
  
  /* Check if ADC is effectively disabled */
  if (tmp_hal_status == HAL_OK)
 8000d98:	7bfb      	ldrb	r3, [r7, #15]
 8000d9a:	2b00      	cmp	r3, #0
 8000d9c:	d109      	bne.n	8000db2 <HAL_ADC_Stop+0x46>
  {
    /* Set ADC state */
    ADC_STATE_CLR_SET(hadc->State,
 8000d9e:	687b      	ldr	r3, [r7, #4]
 8000da0:	6a9b      	ldr	r3, [r3, #40]	; 0x28
 8000da2:	f423 5388 	bic.w	r3, r3, #4352	; 0x1100
 8000da6:	f023 0301 	bic.w	r3, r3, #1
 8000daa:	f043 0201 	orr.w	r2, r3, #1
 8000dae:	687b      	ldr	r3, [r7, #4]
 8000db0:	629a      	str	r2, [r3, #40]	; 0x28
                      HAL_ADC_STATE_REG_BUSY | HAL_ADC_STATE_INJ_BUSY,
                      HAL_ADC_STATE_READY);
  }
  
  /* Process unlocked */
  __HAL_UNLOCK(hadc);
 8000db2:	687b      	ldr	r3, [r7, #4]
 8000db4:	2200      	movs	r2, #0
 8000db6:	f883 2024 	strb.w	r2, [r3, #36]	; 0x24
  
  /* Return function status */
  return tmp_hal_status;
 8000dba:	7bfb      	ldrb	r3, [r7, #15]
}
 8000dbc:	4618      	mov	r0, r3
 8000dbe:	3710      	adds	r7, #16
 8000dc0:	46bd      	mov	sp, r7
 8000dc2:	bd80      	pop	{r7, pc}

08000dc4 <HAL_ADC_PollForConversion>:
  * @param  hadc: ADC handle
  * @param  Timeout: Timeout value in millisecond.
  * @retval HAL status
  */
HAL_StatusTypeDef HAL_ADC_PollForConversion(ADC_HandleTypeDef* hadc, uint32_t Timeout)
{
 8000dc4:	b590      	push	{r4, r7, lr}
 8000dc6:	b087      	sub	sp, #28
 8000dc8:	af00      	add	r7, sp, #0
 8000dca:	6078      	str	r0, [r7, #4]
 8000dcc:	6039      	str	r1, [r7, #0]
  uint32_t tickstart = 0U;
 8000dce:	2300      	movs	r3, #0
 8000dd0:	617b      	str	r3, [r7, #20]
  
  /* Variables for polling in case of scan mode enabled and polling for each  */
  /* conversion.                                                              */
  __IO uint32_t Conversion_Timeout_CPU_cycles = 0U;
 8000dd2:	2300      	movs	r3, #0
 8000dd4:	60fb      	str	r3, [r7, #12]
  uint32_t Conversion_Timeout_CPU_cycles_max = 0U;
 8000dd6:	2300      	movs	r3, #0
 8000dd8:	613b      	str	r3, [r7, #16]
 
  /* Check the parameters */
  assert_param(IS_ADC_ALL_INSTANCE(hadc->Instance));
  
  /* Get tick count */
  tickstart = HAL_GetTick();
 8000dda:	f7ff fe13 	bl	8000a04 <HAL_GetTick>
 8000dde:	6178      	str	r0, [r7, #20]
  
  /* Verification that ADC configuration is compliant with polling for        */
  /* each conversion:                                                         */
  /* Particular case is ADC configured in DMA mode                            */
  if (HAL_IS_BIT_SET(hadc->Instance->CR2, ADC_CR2_DMA))
 8000de0:	687b      	ldr	r3, [r7, #4]
 8000de2:	681b      	ldr	r3, [r3, #0]
 8000de4:	689b      	ldr	r3, [r3, #8]
 8000de6:	f403 7380 	and.w	r3, r3, #256	; 0x100
 8000dea:	2b00      	cmp	r3, #0
 8000dec:	d00b      	beq.n	8000e06 <HAL_ADC_PollForConversion+0x42>
  {
    /* Update ADC state machine to error */
    SET_BIT(hadc->State, HAL_ADC_STATE_ERROR_CONFIG);
 8000dee:	687b      	ldr	r3, [r7, #4]
 8000df0:	6a9b      	ldr	r3, [r3, #40]	; 0x28
 8000df2:	f043 0220 	orr.w	r2, r3, #32
 8000df6:	687b      	ldr	r3, [r7, #4]
 8000df8:	629a      	str	r2, [r3, #40]	; 0x28
    
    /* Process unlocked */
    __HAL_UNLOCK(hadc);
 8000dfa:	687b      	ldr	r3, [r7, #4]
 8000dfc:	2200      	movs	r2, #0
 8000dfe:	f883 2024 	strb.w	r2, [r3, #36]	; 0x24
    
    return HAL_ERROR;
 8000e02:	2301      	movs	r3, #1
 8000e04:	e0d3      	b.n	8000fae <HAL_ADC_PollForConversion+0x1ea>
  /*    from ADC conversion time (selected sampling time + conversion time of */
  /*    12.5 ADC clock cycles) and APB2/ADC clock prescalers (depending on    */
  /*    settings, conversion time range can be from 28 to 32256 CPU cycles).  */
  /*    As flag EOC is not set after each conversion, no timeout status can   */
  /*    be set.                                                               */
  if (HAL_IS_BIT_CLR(hadc->Instance->CR1, ADC_CR1_SCAN) &&
 8000e06:	687b      	ldr	r3, [r7, #4]
 8000e08:	681b      	ldr	r3, [r3, #0]
 8000e0a:	685b      	ldr	r3, [r3, #4]
 8000e0c:	f403 7380 	and.w	r3, r3, #256	; 0x100
 8000e10:	2b00      	cmp	r3, #0
 8000e12:	d131      	bne.n	8000e78 <HAL_ADC_PollForConversion+0xb4>
      HAL_IS_BIT_CLR(hadc->Instance->SQR1, ADC_SQR1_L)    )
 8000e14:	687b      	ldr	r3, [r7, #4]
 8000e16:	681b      	ldr	r3, [r3, #0]
 8000e18:	6adb      	ldr	r3, [r3, #44]	; 0x2c
 8000e1a:	f403 0370 	and.w	r3, r3, #15728640	; 0xf00000
  if (HAL_IS_BIT_CLR(hadc->Instance->CR1, ADC_CR1_SCAN) &&
 8000e1e:	2b00      	cmp	r3, #0
 8000e20:	d12a      	bne.n	8000e78 <HAL_ADC_PollForConversion+0xb4>
  {
    /* Wait until End of Conversion flag is raised */
    while(HAL_IS_BIT_CLR(hadc->Instance->SR, ADC_FLAG_EOC))
 8000e22:	e021      	b.n	8000e68 <HAL_ADC_PollForConversion+0xa4>
    {
      /* Check if timeout is disabled (set to infinite wait) */
      if(Timeout != HAL_MAX_DELAY)
 8000e24:	683b      	ldr	r3, [r7, #0]
 8000e26:	f1b3 3fff 	cmp.w	r3, #4294967295
 8000e2a:	d01d      	beq.n	8000e68 <HAL_ADC_PollForConversion+0xa4>
      {
        if((Timeout == 0U) || ((HAL_GetTick() - tickstart ) > Timeout))
 8000e2c:	683b      	ldr	r3, [r7, #0]
 8000e2e:	2b00      	cmp	r3, #0
 8000e30:	d007      	beq.n	8000e42 <HAL_ADC_PollForConversion+0x7e>
 8000e32:	f7ff fde7 	bl	8000a04 <HAL_GetTick>
 8000e36:	4602      	mov	r2, r0
 8000e38:	697b      	ldr	r3, [r7, #20]
 8000e3a:	1ad3      	subs	r3, r2, r3
 8000e3c:	683a      	ldr	r2, [r7, #0]
 8000e3e:	429a      	cmp	r2, r3
 8000e40:	d212      	bcs.n	8000e68 <HAL_ADC_PollForConversion+0xa4>
        {
          /* New check to avoid false timeout detection in case of preemption */
          if(HAL_IS_BIT_CLR(hadc->Instance->SR, ADC_FLAG_EOC))
 8000e42:	687b      	ldr	r3, [r7, #4]
 8000e44:	681b      	ldr	r3, [r3, #0]
 8000e46:	681b      	ldr	r3, [r3, #0]
 8000e48:	f003 0302 	and.w	r3, r3, #2
 8000e4c:	2b00      	cmp	r3, #0
 8000e4e:	d10b      	bne.n	8000e68 <HAL_ADC_PollForConversion+0xa4>
          {
            /* Update ADC state machine to timeout */
            SET_BIT(hadc->State, HAL_ADC_STATE_TIMEOUT);
 8000e50:	687b      	ldr	r3, [r7, #4]
 8000e52:	6a9b      	ldr	r3, [r3, #40]	; 0x28
 8000e54:	f043 0204 	orr.w	r2, r3, #4
 8000e58:	687b      	ldr	r3, [r7, #4]
 8000e5a:	629a      	str	r2, [r3, #40]	; 0x28
            
            /* Process unlocked */
            __HAL_UNLOCK(hadc);
 8000e5c:	687b      	ldr	r3, [r7, #4]
 8000e5e:	2200      	movs	r2, #0
 8000e60:	f883 2024 	strb.w	r2, [r3, #36]	; 0x24
            
            return HAL_TIMEOUT;
 8000e64:	2303      	movs	r3, #3
 8000e66:	e0a2      	b.n	8000fae <HAL_ADC_PollForConversion+0x1ea>
    while(HAL_IS_BIT_CLR(hadc->Instance->SR, ADC_FLAG_EOC))
 8000e68:	687b      	ldr	r3, [r7, #4]
 8000e6a:	681b      	ldr	r3, [r3, #0]
 8000e6c:	681b      	ldr	r3, [r3, #0]
 8000e6e:	f003 0302 	and.w	r3, r3, #2
 8000e72:	2b00      	cmp	r3, #0
 8000e74:	d0d6      	beq.n	8000e24 <HAL_ADC_PollForConversion+0x60>
  if (HAL_IS_BIT_CLR(hadc->Instance->CR1, ADC_CR1_SCAN) &&
 8000e76:	e070      	b.n	8000f5a <HAL_ADC_PollForConversion+0x196>
    /* Replace polling by wait for maximum conversion time */
    /*  - Computation of CPU clock cycles corresponding to ADC clock cycles   */
    /*    and ADC maximum conversion cycles on all channels.                  */
    /*  - Wait for the expected ADC clock cycles delay                        */
    Conversion_Timeout_CPU_cycles_max = ((SystemCoreClock
                                          / HAL_RCCEx_GetPeriphCLKFreq(RCC_PERIPHCLK_ADC))
 8000e78:	4b4f      	ldr	r3, [pc, #316]	; (8000fb8 <HAL_ADC_PollForConversion+0x1f4>)
 8000e7a:	681c      	ldr	r4, [r3, #0]
 8000e7c:	2002      	movs	r0, #2
 8000e7e:	f001 fca5 	bl	80027cc <HAL_RCCEx_GetPeriphCLKFreq>
 8000e82:	4603      	mov	r3, r0
 8000e84:	fbb4 f2f3 	udiv	r2, r4, r3
                                         * ADC_CONVCYCLES_MAX_RANGE(hadc)                 );
 8000e88:	687b      	ldr	r3, [r7, #4]
 8000e8a:	681b      	ldr	r3, [r3, #0]
 8000e8c:	6919      	ldr	r1, [r3, #16]
 8000e8e:	4b4b      	ldr	r3, [pc, #300]	; (8000fbc <HAL_ADC_PollForConversion+0x1f8>)
 8000e90:	400b      	ands	r3, r1
 8000e92:	2b00      	cmp	r3, #0
 8000e94:	d118      	bne.n	8000ec8 <HAL_ADC_PollForConversion+0x104>
 8000e96:	687b      	ldr	r3, [r7, #4]
 8000e98:	681b      	ldr	r3, [r3, #0]
 8000e9a:	68d9      	ldr	r1, [r3, #12]
 8000e9c:	4b48      	ldr	r3, [pc, #288]	; (8000fc0 <HAL_ADC_PollForConversion+0x1fc>)
 8000e9e:	400b      	ands	r3, r1
 8000ea0:	2b00      	cmp	r3, #0
 8000ea2:	d111      	bne.n	8000ec8 <HAL_ADC_PollForConversion+0x104>
 8000ea4:	687b      	ldr	r3, [r7, #4]
 8000ea6:	681b      	ldr	r3, [r3, #0]
 8000ea8:	6919      	ldr	r1, [r3, #16]
 8000eaa:	4b46      	ldr	r3, [pc, #280]	; (8000fc4 <HAL_ADC_PollForConversion+0x200>)
 8000eac:	400b      	ands	r3, r1
 8000eae:	2b00      	cmp	r3, #0
 8000eb0:	d108      	bne.n	8000ec4 <HAL_ADC_PollForConversion+0x100>
 8000eb2:	687b      	ldr	r3, [r7, #4]
 8000eb4:	681b      	ldr	r3, [r3, #0]
 8000eb6:	68d9      	ldr	r1, [r3, #12]
 8000eb8:	4b43      	ldr	r3, [pc, #268]	; (8000fc8 <HAL_ADC_PollForConversion+0x204>)
 8000eba:	400b      	ands	r3, r1
 8000ebc:	2b00      	cmp	r3, #0
 8000ebe:	d101      	bne.n	8000ec4 <HAL_ADC_PollForConversion+0x100>
 8000ec0:	2314      	movs	r3, #20
 8000ec2:	e020      	b.n	8000f06 <HAL_ADC_PollForConversion+0x142>
 8000ec4:	2329      	movs	r3, #41	; 0x29
 8000ec6:	e01e      	b.n	8000f06 <HAL_ADC_PollForConversion+0x142>
 8000ec8:	687b      	ldr	r3, [r7, #4]
 8000eca:	681b      	ldr	r3, [r3, #0]
 8000ecc:	6919      	ldr	r1, [r3, #16]
 8000ece:	4b3d      	ldr	r3, [pc, #244]	; (8000fc4 <HAL_ADC_PollForConversion+0x200>)
 8000ed0:	400b      	ands	r3, r1
 8000ed2:	2b00      	cmp	r3, #0
 8000ed4:	d106      	bne.n	8000ee4 <HAL_ADC_PollForConversion+0x120>
 8000ed6:	687b      	ldr	r3, [r7, #4]
 8000ed8:	681b      	ldr	r3, [r3, #0]
 8000eda:	68d9      	ldr	r1, [r3, #12]
 8000edc:	4b3a      	ldr	r3, [pc, #232]	; (8000fc8 <HAL_ADC_PollForConversion+0x204>)
 8000ede:	400b      	ands	r3, r1
 8000ee0:	2b00      	cmp	r3, #0
 8000ee2:	d00d      	beq.n	8000f00 <HAL_ADC_PollForConversion+0x13c>
 8000ee4:	687b      	ldr	r3, [r7, #4]
 8000ee6:	681b      	ldr	r3, [r3, #0]
 8000ee8:	6919      	ldr	r1, [r3, #16]
 8000eea:	4b38      	ldr	r3, [pc, #224]	; (8000fcc <HAL_ADC_PollForConversion+0x208>)
 8000eec:	400b      	ands	r3, r1
 8000eee:	2b00      	cmp	r3, #0
 8000ef0:	d108      	bne.n	8000f04 <HAL_ADC_PollForConversion+0x140>
 8000ef2:	687b      	ldr	r3, [r7, #4]
 8000ef4:	681b      	ldr	r3, [r3, #0]
 8000ef6:	68d9      	ldr	r1, [r3, #12]
 8000ef8:	4b34      	ldr	r3, [pc, #208]	; (8000fcc <HAL_ADC_PollForConversion+0x208>)
 8000efa:	400b      	ands	r3, r1
 8000efc:	2b00      	cmp	r3, #0
 8000efe:	d101      	bne.n	8000f04 <HAL_ADC_PollForConversion+0x140>
 8000f00:	2354      	movs	r3, #84	; 0x54
 8000f02:	e000      	b.n	8000f06 <HAL_ADC_PollForConversion+0x142>
 8000f04:	23fc      	movs	r3, #252	; 0xfc
    Conversion_Timeout_CPU_cycles_max = ((SystemCoreClock
 8000f06:	fb02 f303 	mul.w	r3, r2, r3
 8000f0a:	613b      	str	r3, [r7, #16]
    
    while(Conversion_Timeout_CPU_cycles < Conversion_Timeout_CPU_cycles_max)
 8000f0c:	e021      	b.n	8000f52 <HAL_ADC_PollForConversion+0x18e>
    {
      /* Check if timeout is disabled (set to infinite wait) */
      if(Timeout != HAL_MAX_DELAY)
 8000f0e:	683b      	ldr	r3, [r7, #0]
 8000f10:	f1b3 3fff 	cmp.w	r3, #4294967295
 8000f14:	d01a      	beq.n	8000f4c <HAL_ADC_PollForConversion+0x188>
      {
        if((Timeout == 0U) || ((HAL_GetTick() - tickstart) > Timeout))
 8000f16:	683b      	ldr	r3, [r7, #0]
 8000f18:	2b00      	cmp	r3, #0
 8000f1a:	d007      	beq.n	8000f2c <HAL_ADC_PollForConversion+0x168>
 8000f1c:	f7ff fd72 	bl	8000a04 <HAL_GetTick>
 8000f20:	4602      	mov	r2, r0
 8000f22:	697b      	ldr	r3, [r7, #20]
 8000f24:	1ad3      	subs	r3, r2, r3
 8000f26:	683a      	ldr	r2, [r7, #0]
 8000f28:	429a      	cmp	r2, r3
 8000f2a:	d20f      	bcs.n	8000f4c <HAL_ADC_PollForConversion+0x188>
        {
          /* New check to avoid false timeout detection in case of preemption */
          if(Conversion_Timeout_CPU_cycles < Conversion_Timeout_CPU_cycles_max)
 8000f2c:	68fb      	ldr	r3, [r7, #12]
 8000f2e:	693a      	ldr	r2, [r7, #16]
 8000f30:	429a      	cmp	r2, r3
 8000f32:	d90b      	bls.n	8000f4c <HAL_ADC_PollForConversion+0x188>
          {
            /* Update ADC state machine to timeout */
            SET_BIT(hadc->State, HAL_ADC_STATE_TIMEOUT);
 8000f34:	687b      	ldr	r3, [r7, #4]
 8000f36:	6a9b      	ldr	r3, [r3, #40]	; 0x28
 8000f38:	f043 0204 	orr.w	r2, r3, #4
 8000f3c:	687b      	ldr	r3, [r7, #4]
 8000f3e:	629a      	str	r2, [r3, #40]	; 0x28

            /* Process unlocked */
            __HAL_UNLOCK(hadc);
 8000f40:	687b      	ldr	r3, [r7, #4]
 8000f42:	2200      	movs	r2, #0
 8000f44:	f883 2024 	strb.w	r2, [r3, #36]	; 0x24

            return HAL_TIMEOUT;
 8000f48:	2303      	movs	r3, #3
 8000f4a:	e030      	b.n	8000fae <HAL_ADC_PollForConversion+0x1ea>
          }
        }
      }
      Conversion_Timeout_CPU_cycles ++;
 8000f4c:	68fb      	ldr	r3, [r7, #12]
 8000f4e:	3301      	adds	r3, #1
 8000f50:	60fb      	str	r3, [r7, #12]
    while(Conversion_Timeout_CPU_cycles < Conversion_Timeout_CPU_cycles_max)
 8000f52:	68fb      	ldr	r3, [r7, #12]
 8000f54:	693a      	ldr	r2, [r7, #16]
 8000f56:	429a      	cmp	r2, r3
 8000f58:	d8d9      	bhi.n	8000f0e <HAL_ADC_PollForConversion+0x14a>
    }
  }
  
  /* Clear regular group conversion flag */
  __HAL_ADC_CLEAR_FLAG(hadc, ADC_FLAG_STRT | ADC_FLAG_EOC);
 8000f5a:	687b      	ldr	r3, [r7, #4]
 8000f5c:	681b      	ldr	r3, [r3, #0]
 8000f5e:	f06f 0212 	mvn.w	r2, #18
 8000f62:	601a      	str	r2, [r3, #0]
  
  /* Update ADC state machine */
  SET_BIT(hadc->State, HAL_ADC_STATE_REG_EOC);
 8000f64:	687b      	ldr	r3, [r7, #4]
 8000f66:	6a9b      	ldr	r3, [r3, #40]	; 0x28
 8000f68:	f443 7200 	orr.w	r2, r3, #512	; 0x200
 8000f6c:	687b      	ldr	r3, [r7, #4]
 8000f6e:	629a      	str	r2, [r3, #40]	; 0x28
  /* Determine whether any further conversion upcoming on group regular       */
  /* by external trigger, continuous mode or scan sequence on going.          */
  /* Note: On STM32F1 devices, in case of sequencer enabled                   */
  /*       (several ranks selected), end of conversion flag is raised         */
  /*       at the end of the sequence.                                        */
  if(ADC_IS_SOFTWARE_START_REGULAR(hadc)        && 
 8000f70:	687b      	ldr	r3, [r7, #4]
 8000f72:	681b      	ldr	r3, [r3, #0]
 8000f74:	689b      	ldr	r3, [r3, #8]
 8000f76:	f403 2360 	and.w	r3, r3, #917504	; 0xe0000
 8000f7a:	f5b3 2f60 	cmp.w	r3, #917504	; 0xe0000
 8000f7e:	d115      	bne.n	8000fac <HAL_ADC_PollForConversion+0x1e8>
     (hadc->Init.ContinuousConvMode == DISABLE)   )
 8000f80:	687b      	ldr	r3, [r7, #4]
 8000f82:	7b1b      	ldrb	r3, [r3, #12]
  if(ADC_IS_SOFTWARE_START_REGULAR(hadc)        && 
 8000f84:	2b00      	cmp	r3, #0
 8000f86:	d111      	bne.n	8000fac <HAL_ADC_PollForConversion+0x1e8>
  {   
    /* Set ADC state */
    CLEAR_BIT(hadc->State, HAL_ADC_STATE_REG_BUSY);   
 8000f88:	687b      	ldr	r3, [r7, #4]
 8000f8a:	6a9b      	ldr	r3, [r3, #40]	; 0x28
 8000f8c:	f423 7280 	bic.w	r2, r3, #256	; 0x100
 8000f90:	687b      	ldr	r3, [r7, #4]
 8000f92:	629a      	str	r2, [r3, #40]	; 0x28

    if (HAL_IS_BIT_CLR(hadc->State, HAL_ADC_STATE_INJ_BUSY))
 8000f94:	687b      	ldr	r3, [r7, #4]
 8000f96:	6a9b      	ldr	r3, [r3, #40]	; 0x28
 8000f98:	f403 5380 	and.w	r3, r3, #4096	; 0x1000
 8000f9c:	2b00      	cmp	r3, #0
 8000f9e:	d105      	bne.n	8000fac <HAL_ADC_PollForConversion+0x1e8>
    { 
      SET_BIT(hadc->State, HAL_ADC_STATE_READY);
 8000fa0:	687b      	ldr	r3, [r7, #4]
 8000fa2:	6a9b      	ldr	r3, [r3, #40]	; 0x28
 8000fa4:	f043 0201 	orr.w	r2, r3, #1
 8000fa8:	687b      	ldr	r3, [r7, #4]
 8000faa:	629a      	str	r2, [r3, #40]	; 0x28
    }
  }
  
  /* Return ADC state */
  return HAL_OK;
 8000fac:	2300      	movs	r3, #0
}
 8000fae:	4618      	mov	r0, r3
 8000fb0:	371c      	adds	r7, #28
 8000fb2:	46bd      	mov	sp, r7
 8000fb4:	bd90      	pop	{r4, r7, pc}
 8000fb6:	bf00      	nop
 8000fb8:	20000000 	.word	0x20000000
 8000fbc:	24924924 	.word	0x24924924
 8000fc0:	00924924 	.word	0x00924924
 8000fc4:	12492492 	.word	0x12492492
 8000fc8:	00492492 	.word	0x00492492
 8000fcc:	00249249 	.word	0x00249249

08000fd0 <HAL_ADC_GetValue>:
  *         or @ref __HAL_ADC_CLEAR_FLAG(&hadc, ADC_FLAG_EOS).
  * @param  hadc: ADC handle
  * @retval ADC group regular conversion data
  */
uint32_t HAL_ADC_GetValue(ADC_HandleTypeDef* hadc)
{
 8000fd0:	b480      	push	{r7}
 8000fd2:	b083      	sub	sp, #12
 8000fd4:	af00      	add	r7, sp, #0
 8000fd6:	6078      	str	r0, [r7, #4]

  /* Note: EOC flag is not cleared here by software because automatically     */
  /*       cleared by hardware when reading register DR.                      */
  
  /* Return ADC converted value */ 
  return hadc->Instance->DR;
 8000fd8:	687b      	ldr	r3, [r7, #4]
 8000fda:	681b      	ldr	r3, [r3, #0]
 8000fdc:	6cdb      	ldr	r3, [r3, #76]	; 0x4c
}
 8000fde:	4618      	mov	r0, r3
 8000fe0:	370c      	adds	r7, #12
 8000fe2:	46bd      	mov	sp, r7
 8000fe4:	bc80      	pop	{r7}
 8000fe6:	4770      	bx	lr

08000fe8 <HAL_ADC_IRQHandler>:
  * @brief  Handles ADC interrupt request  
  * @param  hadc: ADC handle
  * @retval None
  */
void HAL_ADC_IRQHandler(ADC_HandleTypeDef* hadc)
{
 8000fe8:	b580      	push	{r7, lr}
 8000fea:	b082      	sub	sp, #8
 8000fec:	af00      	add	r7, sp, #0
 8000fee:	6078      	str	r0, [r7, #4]
  assert_param(IS_FUNCTIONAL_STATE(hadc->Init.ContinuousConvMode));
  assert_param(IS_ADC_REGULAR_NB_CONV(hadc->Init.NbrOfConversion));
  
  
  /* ========== Check End of Conversion flag for regular group ========== */
  if(__HAL_ADC_GET_IT_SOURCE(hadc, ADC_IT_EOC))
 8000ff0:	687b      	ldr	r3, [r7, #4]
 8000ff2:	681b      	ldr	r3, [r3, #0]
 8000ff4:	685b      	ldr	r3, [r3, #4]
 8000ff6:	f003 0320 	and.w	r3, r3, #32
 8000ffa:	2b20      	cmp	r3, #32
 8000ffc:	d140      	bne.n	8001080 <HAL_ADC_IRQHandler+0x98>
  {
    if(__HAL_ADC_GET_FLAG(hadc, ADC_FLAG_EOC) )
 8000ffe:	687b      	ldr	r3, [r7, #4]
 8001000:	681b      	ldr	r3, [r3, #0]
 8001002:	681b      	ldr	r3, [r3, #0]
 8001004:	f003 0302 	and.w	r3, r3, #2
 8001008:	2b02      	cmp	r3, #2
 800100a:	d139      	bne.n	8001080 <HAL_ADC_IRQHandler+0x98>
    {
      /* Update state machine on conversion status if not in error state */
      if (HAL_IS_BIT_CLR(hadc->State, HAL_ADC_STATE_ERROR_INTERNAL))
 800100c:	687b      	ldr	r3, [r7, #4]
 800100e:	6a9b      	ldr	r3, [r3, #40]	; 0x28
 8001010:	f003 0310 	and.w	r3, r3, #16
 8001014:	2b00      	cmp	r3, #0
 8001016:	d105      	bne.n	8001024 <HAL_ADC_IRQHandler+0x3c>
      {
        /* Set ADC state */
        SET_BIT(hadc->State, HAL_ADC_STATE_REG_EOC); 
 8001018:	687b      	ldr	r3, [r7, #4]
 800101a:	6a9b      	ldr	r3, [r3, #40]	; 0x28
 800101c:	f443 7200 	orr.w	r2, r3, #512	; 0x200
 8001020:	687b      	ldr	r3, [r7, #4]
 8001022:	629a      	str	r2, [r3, #40]	; 0x28
      /* Determine whether any further conversion upcoming on group regular   */
      /* by external trigger, continuous mode or scan sequence on going.      */
      /* Note: On STM32F1 devices, in case of sequencer enabled               */
      /*       (several ranks selected), end of conversion flag is raised     */
      /*       at the end of the sequence.                                    */
      if(ADC_IS_SOFTWARE_START_REGULAR(hadc)        && 
 8001024:	687b      	ldr	r3, [r7, #4]
 8001026:	681b      	ldr	r3, [r3, #0]
 8001028:	689b      	ldr	r3, [r3, #8]
 800102a:	f403 2360 	and.w	r3, r3, #917504	; 0xe0000
 800102e:	f5b3 2f60 	cmp.w	r3, #917504	; 0xe0000
 8001032:	d11d      	bne.n	8001070 <HAL_ADC_IRQHandler+0x88>
         (hadc->Init.ContinuousConvMode == DISABLE)   )
 8001034:	687b      	ldr	r3, [r7, #4]
 8001036:	7b1b      	ldrb	r3, [r3, #12]
      if(ADC_IS_SOFTWARE_START_REGULAR(hadc)        && 
 8001038:	2b00      	cmp	r3, #0
 800103a:	d119      	bne.n	8001070 <HAL_ADC_IRQHandler+0x88>
      {
        /* Disable ADC end of conversion interrupt on group regular */
        __HAL_ADC_DISABLE_IT(hadc, ADC_IT_EOC);
 800103c:	687b      	ldr	r3, [r7, #4]
 800103e:	681b      	ldr	r3, [r3, #0]
 8001040:	685a      	ldr	r2, [r3, #4]
 8001042:	687b      	ldr	r3, [r7, #4]
 8001044:	681b      	ldr	r3, [r3, #0]
 8001046:	f022 0220 	bic.w	r2, r2, #32
 800104a:	605a      	str	r2, [r3, #4]
        
        /* Set ADC state */
        CLEAR_BIT(hadc->State, HAL_ADC_STATE_REG_BUSY);   
 800104c:	687b      	ldr	r3, [r7, #4]
 800104e:	6a9b      	ldr	r3, [r3, #40]	; 0x28
 8001050:	f423 7280 	bic.w	r2, r3, #256	; 0x100
 8001054:	687b      	ldr	r3, [r7, #4]
 8001056:	629a      	str	r2, [r3, #40]	; 0x28
        
        if (HAL_IS_BIT_CLR(hadc->State, HAL_ADC_STATE_INJ_BUSY))
 8001058:	687b      	ldr	r3, [r7, #4]
 800105a:	6a9b      	ldr	r3, [r3, #40]	; 0x28
 800105c:	f403 5380 	and.w	r3, r3, #4096	; 0x1000
 8001060:	2b00      	cmp	r3, #0
 8001062:	d105      	bne.n	8001070 <HAL_ADC_IRQHandler+0x88>
        {
          SET_BIT(hadc->State, HAL_ADC_STATE_READY);
 8001064:	687b      	ldr	r3, [r7, #4]
 8001066:	6a9b      	ldr	r3, [r3, #40]	; 0x28
 8001068:	f043 0201 	orr.w	r2, r3, #1
 800106c:	687b      	ldr	r3, [r7, #4]
 800106e:	629a      	str	r2, [r3, #40]	; 0x28

      /* Conversion complete callback */
#if (USE_HAL_ADC_REGISTER_CALLBACKS == 1)
      hadc->ConvCpltCallback(hadc);
#else
      HAL_ADC_ConvCpltCallback(hadc);
 8001070:	6878      	ldr	r0, [r7, #4]
 8001072:	f000 f87c 	bl	800116e <HAL_ADC_ConvCpltCallback>
#endif /* USE_HAL_ADC_REGISTER_CALLBACKS */
      
      /* Clear regular group conversion flag */
      __HAL_ADC_CLEAR_FLAG(hadc, ADC_FLAG_STRT | ADC_FLAG_EOC);
 8001076:	687b      	ldr	r3, [r7, #4]
 8001078:	681b      	ldr	r3, [r3, #0]
 800107a:	f06f 0212 	mvn.w	r2, #18
 800107e:	601a      	str	r2, [r3, #0]
    }
  }
  
  /* ========== Check End of Conversion flag for injected group ========== */
  if(__HAL_ADC_GET_IT_SOURCE(hadc, ADC_IT_JEOC))
 8001080:	687b      	ldr	r3, [r7, #4]
 8001082:	681b      	ldr	r3, [r3, #0]
 8001084:	685b      	ldr	r3, [r3, #4]
 8001086:	f003 0380 	and.w	r3, r3, #128	; 0x80
 800108a:	2b80      	cmp	r3, #128	; 0x80
 800108c:	d14f      	bne.n	800112e <HAL_ADC_IRQHandler+0x146>
  {
    if(__HAL_ADC_GET_FLAG(hadc, ADC_FLAG_JEOC))
 800108e:	687b      	ldr	r3, [r7, #4]
 8001090:	681b      	ldr	r3, [r3, #0]
 8001092:	681b      	ldr	r3, [r3, #0]
 8001094:	f003 0304 	and.w	r3, r3, #4
 8001098:	2b04      	cmp	r3, #4
 800109a:	d148      	bne.n	800112e <HAL_ADC_IRQHandler+0x146>
    {
      /* Update state machine on conversion status if not in error state */
      if (HAL_IS_BIT_CLR(hadc->State, HAL_ADC_STATE_ERROR_INTERNAL))
 800109c:	687b      	ldr	r3, [r7, #4]
 800109e:	6a9b      	ldr	r3, [r3, #40]	; 0x28
 80010a0:	f003 0310 	and.w	r3, r3, #16
 80010a4:	2b00      	cmp	r3, #0
 80010a6:	d105      	bne.n	80010b4 <HAL_ADC_IRQHandler+0xcc>
      {
        /* Set ADC state */
        SET_BIT(hadc->State, HAL_ADC_STATE_INJ_EOC);
 80010a8:	687b      	ldr	r3, [r7, #4]
 80010aa:	6a9b      	ldr	r3, [r3, #40]	; 0x28
 80010ac:	f443 5200 	orr.w	r2, r3, #8192	; 0x2000
 80010b0:	687b      	ldr	r3, [r7, #4]
 80010b2:	629a      	str	r2, [r3, #40]	; 0x28
      /* conversion from group regular (same conditions as group regular      */
      /* interruption disabling above).                                       */
      /* Note: On STM32F1 devices, in case of sequencer enabled               */
      /*       (several ranks selected), end of conversion flag is raised     */
      /*       at the end of the sequence.                                    */
      if(ADC_IS_SOFTWARE_START_INJECTED(hadc)                     || 
 80010b4:	687b      	ldr	r3, [r7, #4]
 80010b6:	681b      	ldr	r3, [r3, #0]
 80010b8:	689b      	ldr	r3, [r3, #8]
 80010ba:	f403 43e0 	and.w	r3, r3, #28672	; 0x7000
 80010be:	f5b3 4fe0 	cmp.w	r3, #28672	; 0x7000
 80010c2:	d012      	beq.n	80010ea <HAL_ADC_IRQHandler+0x102>
         (HAL_IS_BIT_CLR(hadc->Instance->CR1, ADC_CR1_JAUTO) &&     
 80010c4:	687b      	ldr	r3, [r7, #4]
 80010c6:	681b      	ldr	r3, [r3, #0]
 80010c8:	685b      	ldr	r3, [r3, #4]
 80010ca:	f403 6380 	and.w	r3, r3, #1024	; 0x400
      if(ADC_IS_SOFTWARE_START_INJECTED(hadc)                     || 
 80010ce:	2b00      	cmp	r3, #0
 80010d0:	d125      	bne.n	800111e <HAL_ADC_IRQHandler+0x136>
         (ADC_IS_SOFTWARE_START_REGULAR(hadc)        &&
 80010d2:	687b      	ldr	r3, [r7, #4]
 80010d4:	681b      	ldr	r3, [r3, #0]
 80010d6:	689b      	ldr	r3, [r3, #8]
 80010d8:	f403 2360 	and.w	r3, r3, #917504	; 0xe0000
         (HAL_IS_BIT_CLR(hadc->Instance->CR1, ADC_CR1_JAUTO) &&     
 80010dc:	f5b3 2f60 	cmp.w	r3, #917504	; 0xe0000
 80010e0:	d11d      	bne.n	800111e <HAL_ADC_IRQHandler+0x136>
          (hadc->Init.ContinuousConvMode == DISABLE)   )        )   )
 80010e2:	687b      	ldr	r3, [r7, #4]
 80010e4:	7b1b      	ldrb	r3, [r3, #12]
         (ADC_IS_SOFTWARE_START_REGULAR(hadc)        &&
 80010e6:	2b00      	cmp	r3, #0
 80010e8:	d119      	bne.n	800111e <HAL_ADC_IRQHandler+0x136>
      {
        /* Disable ADC end of conversion interrupt on group injected */
        __HAL_ADC_DISABLE_IT(hadc, ADC_IT_JEOC);
 80010ea:	687b      	ldr	r3, [r7, #4]
 80010ec:	681b      	ldr	r3, [r3, #0]
 80010ee:	685a      	ldr	r2, [r3, #4]
 80010f0:	687b      	ldr	r3, [r7, #4]
 80010f2:	681b      	ldr	r3, [r3, #0]
 80010f4:	f022 0280 	bic.w	r2, r2, #128	; 0x80
 80010f8:	605a      	str	r2, [r3, #4]
        
        /* Set ADC state */
        CLEAR_BIT(hadc->State, HAL_ADC_STATE_INJ_BUSY);   
 80010fa:	687b      	ldr	r3, [r7, #4]
 80010fc:	6a9b      	ldr	r3, [r3, #40]	; 0x28
 80010fe:	f423 5280 	bic.w	r2, r3, #4096	; 0x1000
 8001102:	687b      	ldr	r3, [r7, #4]
 8001104:	629a      	str	r2, [r3, #40]	; 0x28

        if (HAL_IS_BIT_CLR(hadc->State, HAL_ADC_STATE_REG_BUSY))
 8001106:	687b      	ldr	r3, [r7, #4]
 8001108:	6a9b      	ldr	r3, [r3, #40]	; 0x28
 800110a:	f403 7380 	and.w	r3, r3, #256	; 0x100
 800110e:	2b00      	cmp	r3, #0
 8001110:	d105      	bne.n	800111e <HAL_ADC_IRQHandler+0x136>
        { 
          SET_BIT(hadc->State, HAL_ADC_STATE_READY);
 8001112:	687b      	ldr	r3, [r7, #4]
 8001114:	6a9b      	ldr	r3, [r3, #40]	; 0x28
 8001116:	f043 0201 	orr.w	r2, r3, #1
 800111a:	687b      	ldr	r3, [r7, #4]
 800111c:	629a      	str	r2, [r3, #40]	; 0x28

      /* Conversion complete callback */ 
#if (USE_HAL_ADC_REGISTER_CALLBACKS == 1)
      hadc->InjectedConvCpltCallback(hadc);
#else
      HAL_ADCEx_InjectedConvCpltCallback(hadc);
 800111e:	6878      	ldr	r0, [r7, #4]
 8001120:	f000 fa78 	bl	8001614 <HAL_ADCEx_InjectedConvCpltCallback>
#endif /* USE_HAL_ADC_REGISTER_CALLBACKS */
      
      /* Clear injected group conversion flag */
      __HAL_ADC_CLEAR_FLAG(hadc, (ADC_FLAG_JSTRT | ADC_FLAG_JEOC));
 8001124:	687b      	ldr	r3, [r7, #4]
 8001126:	681b      	ldr	r3, [r3, #0]
 8001128:	f06f 020c 	mvn.w	r2, #12
 800112c:	601a      	str	r2, [r3, #0]
    }
  }
   
  /* ========== Check Analog watchdog flags ========== */
  if(__HAL_ADC_GET_IT_SOURCE(hadc, ADC_IT_AWD))
 800112e:	687b      	ldr	r3, [r7, #4]
 8001130:	681b      	ldr	r3, [r3, #0]
 8001132:	685b      	ldr	r3, [r3, #4]
 8001134:	f003 0340 	and.w	r3, r3, #64	; 0x40
 8001138:	2b40      	cmp	r3, #64	; 0x40
 800113a:	d114      	bne.n	8001166 <HAL_ADC_IRQHandler+0x17e>
  {
    if(__HAL_ADC_GET_FLAG(hadc, ADC_FLAG_AWD))
 800113c:	687b      	ldr	r3, [r7, #4]
 800113e:	681b      	ldr	r3, [r3, #0]
 8001140:	681b      	ldr	r3, [r3, #0]
 8001142:	f003 0301 	and.w	r3, r3, #1
 8001146:	2b01      	cmp	r3, #1
 8001148:	d10d      	bne.n	8001166 <HAL_ADC_IRQHandler+0x17e>
    {
      /* Set ADC state */
      SET_BIT(hadc->State, HAL_ADC_STATE_AWD1);
 800114a:	687b      	ldr	r3, [r7, #4]
 800114c:	6a9b      	ldr	r3, [r3, #40]	; 0x28
 800114e:	f443 3280 	orr.w	r2, r3, #65536	; 0x10000
 8001152:	687b      	ldr	r3, [r7, #4]
 8001154:	629a      	str	r2, [r3, #40]	; 0x28
      
      /* Level out of window callback */ 
#if (USE_HAL_ADC_REGISTER_CALLBACKS == 1)
      hadc->LevelOutOfWindowCallback(hadc);
#else
      HAL_ADC_LevelOutOfWindowCallback(hadc);
 8001156:	6878      	ldr	r0, [r7, #4]
 8001158:	f000 f812 	bl	8001180 <HAL_ADC_LevelOutOfWindowCallback>
#endif /* USE_HAL_ADC_REGISTER_CALLBACKS */
      
      /* Clear the ADC analog watchdog flag */
      __HAL_ADC_CLEAR_FLAG(hadc, ADC_FLAG_AWD);
 800115c:	687b      	ldr	r3, [r7, #4]
 800115e:	681b      	ldr	r3, [r3, #0]
 8001160:	f06f 0201 	mvn.w	r2, #1
 8001164:	601a      	str	r2, [r3, #0]
    }
  }
  
}
 8001166:	bf00      	nop
 8001168:	3708      	adds	r7, #8
 800116a:	46bd      	mov	sp, r7
 800116c:	bd80      	pop	{r7, pc}

0800116e <HAL_ADC_ConvCpltCallback>:
  * @brief  Conversion complete callback in non blocking mode 
  * @param  hadc: ADC handle
  * @retval None
  */
__weak void HAL_ADC_ConvCpltCallback(ADC_HandleTypeDef* hadc)
{
 800116e:	b480      	push	{r7}
 8001170:	b083      	sub	sp, #12
 8001172:	af00      	add	r7, sp, #0
 8001174:	6078      	str	r0, [r7, #4]
  /* Prevent unused argument(s) compilation warning */
  UNUSED(hadc);
  /* NOTE : This function should not be modified. When the callback is needed,
            function HAL_ADC_ConvCpltCallback must be implemented in the user file.
   */
}
 8001176:	bf00      	nop
 8001178:	370c      	adds	r7, #12
 800117a:	46bd      	mov	sp, r7
 800117c:	bc80      	pop	{r7}
 800117e:	4770      	bx	lr

08001180 <HAL_ADC_LevelOutOfWindowCallback>:
  * @brief  Analog watchdog callback in non blocking mode. 
  * @param  hadc: ADC handle
  * @retval None
  */
__weak void HAL_ADC_LevelOutOfWindowCallback(ADC_HandleTypeDef* hadc)
{
 8001180:	b480      	push	{r7}
 8001182:	b083      	sub	sp, #12
 8001184:	af00      	add	r7, sp, #0
 8001186:	6078      	str	r0, [r7, #4]
  /* Prevent unused argument(s) compilation warning */
  UNUSED(hadc);
  /* NOTE : This function should not be modified. When the callback is needed,
            function HAL_ADC_LevelOutOfWindowCallback must be implemented in the user file.
  */
}
 8001188:	bf00      	nop
 800118a:	370c      	adds	r7, #12
 800118c:	46bd      	mov	sp, r7
 800118e:	bc80      	pop	{r7}
 8001190:	4770      	bx	lr
	...

08001194 <HAL_ADC_ConfigChannel>:
  * @param  hadc: ADC handle
  * @param  sConfig: Structure of ADC channel for regular group.
  * @retval HAL status
  */
HAL_StatusTypeDef HAL_ADC_ConfigChannel(ADC_HandleTypeDef* hadc, ADC_ChannelConfTypeDef* sConfig)
{ 
 8001194:	b480      	push	{r7}
 8001196:	b085      	sub	sp, #20
 8001198:	af00      	add	r7, sp, #0
 800119a:	6078      	str	r0, [r7, #4]
 800119c:	6039      	str	r1, [r7, #0]
  HAL_StatusTypeDef tmp_hal_status = HAL_OK;
 800119e:	2300      	movs	r3, #0
 80011a0:	73fb      	strb	r3, [r7, #15]
  __IO uint32_t wait_loop_index = 0U;
 80011a2:	2300      	movs	r3, #0
 80011a4:	60bb      	str	r3, [r7, #8]
  assert_param(IS_ADC_CHANNEL(sConfig->Channel));
  assert_param(IS_ADC_REGULAR_RANK(sConfig->Rank));
  assert_param(IS_ADC_SAMPLE_TIME(sConfig->SamplingTime));
  
  /* Process locked */
  __HAL_LOCK(hadc);
 80011a6:	687b      	ldr	r3, [r7, #4]
 80011a8:	f893 3024 	ldrb.w	r3, [r3, #36]	; 0x24
 80011ac:	2b01      	cmp	r3, #1
 80011ae:	d101      	bne.n	80011b4 <HAL_ADC_ConfigChannel+0x20>
 80011b0:	2302      	movs	r3, #2
 80011b2:	e0dc      	b.n	800136e <HAL_ADC_ConfigChannel+0x1da>
 80011b4:	687b      	ldr	r3, [r7, #4]
 80011b6:	2201      	movs	r2, #1
 80011b8:	f883 2024 	strb.w	r2, [r3, #36]	; 0x24
  
  
  /* Regular sequence configuration */
  /* For Rank 1 to 6 */
  if (sConfig->Rank < 7U)
 80011bc:	683b      	ldr	r3, [r7, #0]
 80011be:	685b      	ldr	r3, [r3, #4]
 80011c0:	2b06      	cmp	r3, #6
 80011c2:	d81c      	bhi.n	80011fe <HAL_ADC_ConfigChannel+0x6a>
  {
    MODIFY_REG(hadc->Instance->SQR3                        ,
 80011c4:	687b      	ldr	r3, [r7, #4]
 80011c6:	681b      	ldr	r3, [r3, #0]
 80011c8:	6b59      	ldr	r1, [r3, #52]	; 0x34
 80011ca:	683b      	ldr	r3, [r7, #0]
 80011cc:	685a      	ldr	r2, [r3, #4]
 80011ce:	4613      	mov	r3, r2
 80011d0:	009b      	lsls	r3, r3, #2
 80011d2:	4413      	add	r3, r2
 80011d4:	3b05      	subs	r3, #5
 80011d6:	221f      	movs	r2, #31
 80011d8:	fa02 f303 	lsl.w	r3, r2, r3
 80011dc:	43db      	mvns	r3, r3
 80011de:	4019      	ands	r1, r3
 80011e0:	683b      	ldr	r3, [r7, #0]
 80011e2:	6818      	ldr	r0, [r3, #0]
 80011e4:	683b      	ldr	r3, [r7, #0]
 80011e6:	685a      	ldr	r2, [r3, #4]
 80011e8:	4613      	mov	r3, r2
 80011ea:	009b      	lsls	r3, r3, #2
 80011ec:	4413      	add	r3, r2
 80011ee:	3b05      	subs	r3, #5
 80011f0:	fa00 f203 	lsl.w	r2, r0, r3
 80011f4:	687b      	ldr	r3, [r7, #4]
 80011f6:	681b      	ldr	r3, [r3, #0]
 80011f8:	430a      	orrs	r2, r1
 80011fa:	635a      	str	r2, [r3, #52]	; 0x34
 80011fc:	e03c      	b.n	8001278 <HAL_ADC_ConfigChannel+0xe4>
               ADC_SQR3_RK(ADC_SQR3_SQ1, sConfig->Rank)    ,
               ADC_SQR3_RK(sConfig->Channel, sConfig->Rank) );
  }
  /* For Rank 7 to 12 */
  else if (sConfig->Rank < 13U)
 80011fe:	683b      	ldr	r3, [r7, #0]
 8001200:	685b      	ldr	r3, [r3, #4]
 8001202:	2b0c      	cmp	r3, #12
 8001204:	d81c      	bhi.n	8001240 <HAL_ADC_ConfigChannel+0xac>
  {
    MODIFY_REG(hadc->Instance->SQR2                        ,
 8001206:	687b      	ldr	r3, [r7, #4]
 8001208:	681b      	ldr	r3, [r3, #0]
 800120a:	6b19      	ldr	r1, [r3, #48]	; 0x30
 800120c:	683b      	ldr	r3, [r7, #0]
 800120e:	685a      	ldr	r2, [r3, #4]
 8001210:	4613      	mov	r3, r2
 8001212:	009b      	lsls	r3, r3, #2
 8001214:	4413      	add	r3, r2
 8001216:	3b23      	subs	r3, #35	; 0x23
 8001218:	221f      	movs	r2, #31
 800121a:	fa02 f303 	lsl.w	r3, r2, r3
 800121e:	43db      	mvns	r3, r3
 8001220:	4019      	ands	r1, r3
 8001222:	683b      	ldr	r3, [r7, #0]
 8001224:	6818      	ldr	r0, [r3, #0]
 8001226:	683b      	ldr	r3, [r7, #0]
 8001228:	685a      	ldr	r2, [r3, #4]
 800122a:	4613      	mov	r3, r2
 800122c:	009b      	lsls	r3, r3, #2
 800122e:	4413      	add	r3, r2
 8001230:	3b23      	subs	r3, #35	; 0x23
 8001232:	fa00 f203 	lsl.w	r2, r0, r3
 8001236:	687b      	ldr	r3, [r7, #4]
 8001238:	681b      	ldr	r3, [r3, #0]
 800123a:	430a      	orrs	r2, r1
 800123c:	631a      	str	r2, [r3, #48]	; 0x30
 800123e:	e01b      	b.n	8001278 <HAL_ADC_ConfigChannel+0xe4>
               ADC_SQR2_RK(sConfig->Channel, sConfig->Rank) );
  }
  /* For Rank 13 to 16 */
  else
  {
    MODIFY_REG(hadc->Instance->SQR1                        ,
 8001240:	687b      	ldr	r3, [r7, #4]
 8001242:	681b      	ldr	r3, [r3, #0]
 8001244:	6ad9      	ldr	r1, [r3, #44]	; 0x2c
 8001246:	683b      	ldr	r3, [r7, #0]
 8001248:	685a      	ldr	r2, [r3, #4]
 800124a:	4613      	mov	r3, r2
 800124c:	009b      	lsls	r3, r3, #2
 800124e:	4413      	add	r3, r2
 8001250:	3b41      	subs	r3, #65	; 0x41
 8001252:	221f      	movs	r2, #31
 8001254:	fa02 f303 	lsl.w	r3, r2, r3
 8001258:	43db      	mvns	r3, r3
 800125a:	4019      	ands	r1, r3
 800125c:	683b      	ldr	r3, [r7, #0]
 800125e:	6818      	ldr	r0, [r3, #0]
 8001260:	683b      	ldr	r3, [r7, #0]
 8001262:	685a      	ldr	r2, [r3, #4]
 8001264:	4613      	mov	r3, r2
 8001266:	009b      	lsls	r3, r3, #2
 8001268:	4413      	add	r3, r2
 800126a:	3b41      	subs	r3, #65	; 0x41
 800126c:	fa00 f203 	lsl.w	r2, r0, r3
 8001270:	687b      	ldr	r3, [r7, #4]
 8001272:	681b      	ldr	r3, [r3, #0]
 8001274:	430a      	orrs	r2, r1
 8001276:	62da      	str	r2, [r3, #44]	; 0x2c
  }
  
  
  /* Channel sampling time configuration */
  /* For channels 10 to 17 */
  if (sConfig->Channel >= ADC_CHANNEL_10)
 8001278:	683b      	ldr	r3, [r7, #0]
 800127a:	681b      	ldr	r3, [r3, #0]
 800127c:	2b09      	cmp	r3, #9
 800127e:	d91c      	bls.n	80012ba <HAL_ADC_ConfigChannel+0x126>
  {
    MODIFY_REG(hadc->Instance->SMPR1                             ,
 8001280:	687b      	ldr	r3, [r7, #4]
 8001282:	681b      	ldr	r3, [r3, #0]
 8001284:	68d9      	ldr	r1, [r3, #12]
 8001286:	683b      	ldr	r3, [r7, #0]
 8001288:	681a      	ldr	r2, [r3, #0]
 800128a:	4613      	mov	r3, r2
 800128c:	005b      	lsls	r3, r3, #1
 800128e:	4413      	add	r3, r2
 8001290:	3b1e      	subs	r3, #30
 8001292:	2207      	movs	r2, #7
 8001294:	fa02 f303 	lsl.w	r3, r2, r3
 8001298:	43db      	mvns	r3, r3
 800129a:	4019      	ands	r1, r3
 800129c:	683b      	ldr	r3, [r7, #0]
 800129e:	6898      	ldr	r0, [r3, #8]
 80012a0:	683b      	ldr	r3, [r7, #0]
 80012a2:	681a      	ldr	r2, [r3, #0]
 80012a4:	4613      	mov	r3, r2
 80012a6:	005b      	lsls	r3, r3, #1
 80012a8:	4413      	add	r3, r2
 80012aa:	3b1e      	subs	r3, #30
 80012ac:	fa00 f203 	lsl.w	r2, r0, r3
 80012b0:	687b      	ldr	r3, [r7, #4]
 80012b2:	681b      	ldr	r3, [r3, #0]
 80012b4:	430a      	orrs	r2, r1
 80012b6:	60da      	str	r2, [r3, #12]
 80012b8:	e019      	b.n	80012ee <HAL_ADC_ConfigChannel+0x15a>
               ADC_SMPR1(ADC_SMPR1_SMP10, sConfig->Channel)      ,
               ADC_SMPR1(sConfig->SamplingTime, sConfig->Channel) );
  }
  else /* For channels 0 to 9 */
  {
    MODIFY_REG(hadc->Instance->SMPR2                             ,
 80012ba:	687b      	ldr	r3, [r7, #4]
 80012bc:	681b      	ldr	r3, [r3, #0]
 80012be:	6919      	ldr	r1, [r3, #16]
 80012c0:	683b      	ldr	r3, [r7, #0]
 80012c2:	681a      	ldr	r2, [r3, #0]
 80012c4:	4613      	mov	r3, r2
 80012c6:	005b      	lsls	r3, r3, #1
 80012c8:	4413      	add	r3, r2
 80012ca:	2207      	movs	r2, #7
 80012cc:	fa02 f303 	lsl.w	r3, r2, r3
 80012d0:	43db      	mvns	r3, r3
 80012d2:	4019      	ands	r1, r3
 80012d4:	683b      	ldr	r3, [r7, #0]
 80012d6:	6898      	ldr	r0, [r3, #8]
 80012d8:	683b      	ldr	r3, [r7, #0]
 80012da:	681a      	ldr	r2, [r3, #0]
 80012dc:	4613      	mov	r3, r2
 80012de:	005b      	lsls	r3, r3, #1
 80012e0:	4413      	add	r3, r2
 80012e2:	fa00 f203 	lsl.w	r2, r0, r3
 80012e6:	687b      	ldr	r3, [r7, #4]
 80012e8:	681b      	ldr	r3, [r3, #0]
 80012ea:	430a      	orrs	r2, r1
 80012ec:	611a      	str	r2, [r3, #16]
               ADC_SMPR2(sConfig->SamplingTime, sConfig->Channel) );
  }
  
  /* If ADC1 Channel_16 or Channel_17 is selected, enable Temperature sensor  */
  /* and VREFINT measurement path.                                            */
  if ((sConfig->Channel == ADC_CHANNEL_TEMPSENSOR) ||
 80012ee:	683b      	ldr	r3, [r7, #0]
 80012f0:	681b      	ldr	r3, [r3, #0]
 80012f2:	2b10      	cmp	r3, #16
 80012f4:	d003      	beq.n	80012fe <HAL_ADC_ConfigChannel+0x16a>
      (sConfig->Channel == ADC_CHANNEL_VREFINT)      )
 80012f6:	683b      	ldr	r3, [r7, #0]
 80012f8:	681b      	ldr	r3, [r3, #0]
  if ((sConfig->Channel == ADC_CHANNEL_TEMPSENSOR) ||
 80012fa:	2b11      	cmp	r3, #17
 80012fc:	d132      	bne.n	8001364 <HAL_ADC_ConfigChannel+0x1d0>
  {
    /* For STM32F1 devices with several ADC: Only ADC1 can access internal    */
    /* measurement channels (VrefInt/TempSensor). If these channels are       */
    /* intended to be set on other ADC instances, an error is reported.       */
    if (hadc->Instance == ADC1)
 80012fe:	687b      	ldr	r3, [r7, #4]
 8001300:	681b      	ldr	r3, [r3, #0]
 8001302:	4a1d      	ldr	r2, [pc, #116]	; (8001378 <HAL_ADC_ConfigChannel+0x1e4>)
 8001304:	4293      	cmp	r3, r2
 8001306:	d125      	bne.n	8001354 <HAL_ADC_ConfigChannel+0x1c0>
    {
      if (READ_BIT(hadc->Instance->CR2, ADC_CR2_TSVREFE) == RESET)
 8001308:	687b      	ldr	r3, [r7, #4]
 800130a:	681b      	ldr	r3, [r3, #0]
 800130c:	689b      	ldr	r3, [r3, #8]
 800130e:	f403 0300 	and.w	r3, r3, #8388608	; 0x800000
 8001312:	2b00      	cmp	r3, #0
 8001314:	d126      	bne.n	8001364 <HAL_ADC_ConfigChannel+0x1d0>
      {
        SET_BIT(hadc->Instance->CR2, ADC_CR2_TSVREFE);
 8001316:	687b      	ldr	r3, [r7, #4]
 8001318:	681b      	ldr	r3, [r3, #0]
 800131a:	689a      	ldr	r2, [r3, #8]
 800131c:	687b      	ldr	r3, [r7, #4]
 800131e:	681b      	ldr	r3, [r3, #0]
 8001320:	f442 0200 	orr.w	r2, r2, #8388608	; 0x800000
 8001324:	609a      	str	r2, [r3, #8]
        
        if (sConfig->Channel == ADC_CHANNEL_TEMPSENSOR)
 8001326:	683b      	ldr	r3, [r7, #0]
 8001328:	681b      	ldr	r3, [r3, #0]
 800132a:	2b10      	cmp	r3, #16
 800132c:	d11a      	bne.n	8001364 <HAL_ADC_ConfigChannel+0x1d0>
        {
          /* Delay for temperature sensor stabilization time */
          /* Compute number of CPU cycles to wait for */
          wait_loop_index = (ADC_TEMPSENSOR_DELAY_US * (SystemCoreClock / 1000000U));
 800132e:	4b13      	ldr	r3, [pc, #76]	; (800137c <HAL_ADC_ConfigChannel+0x1e8>)
 8001330:	681b      	ldr	r3, [r3, #0]
 8001332:	4a13      	ldr	r2, [pc, #76]	; (8001380 <HAL_ADC_ConfigChannel+0x1ec>)
 8001334:	fba2 2303 	umull	r2, r3, r2, r3
 8001338:	0c9a      	lsrs	r2, r3, #18
 800133a:	4613      	mov	r3, r2
 800133c:	009b      	lsls	r3, r3, #2
 800133e:	4413      	add	r3, r2
 8001340:	005b      	lsls	r3, r3, #1
 8001342:	60bb      	str	r3, [r7, #8]
          while(wait_loop_index != 0U)
 8001344:	e002      	b.n	800134c <HAL_ADC_ConfigChannel+0x1b8>
          {
            wait_loop_index--;
 8001346:	68bb      	ldr	r3, [r7, #8]
 8001348:	3b01      	subs	r3, #1
 800134a:	60bb      	str	r3, [r7, #8]
          while(wait_loop_index != 0U)
 800134c:	68bb      	ldr	r3, [r7, #8]
 800134e:	2b00      	cmp	r3, #0
 8001350:	d1f9      	bne.n	8001346 <HAL_ADC_ConfigChannel+0x1b2>
 8001352:	e007      	b.n	8001364 <HAL_ADC_ConfigChannel+0x1d0>
      }
    }
    else
    {
      /* Update ADC state machine to error */
      SET_BIT(hadc->State, HAL_ADC_STATE_ERROR_CONFIG);
 8001354:	687b      	ldr	r3, [r7, #4]
 8001356:	6a9b      	ldr	r3, [r3, #40]	; 0x28
 8001358:	f043 0220 	orr.w	r2, r3, #32
 800135c:	687b      	ldr	r3, [r7, #4]
 800135e:	629a      	str	r2, [r3, #40]	; 0x28
      
      tmp_hal_status = HAL_ERROR;
 8001360:	2301      	movs	r3, #1
 8001362:	73fb      	strb	r3, [r7, #15]
    }
  }
  
  /* Process unlocked */
  __HAL_UNLOCK(hadc);
 8001364:	687b      	ldr	r3, [r7, #4]
 8001366:	2200      	movs	r2, #0
 8001368:	f883 2024 	strb.w	r2, [r3, #36]	; 0x24
  
  /* Return function status */
  return tmp_hal_status;
 800136c:	7bfb      	ldrb	r3, [r7, #15]
}
 800136e:	4618      	mov	r0, r3
 8001370:	3714      	adds	r7, #20
 8001372:	46bd      	mov	sp, r7
 8001374:	bc80      	pop	{r7}
 8001376:	4770      	bx	lr
 8001378:	40012400 	.word	0x40012400
 800137c:	20000000 	.word	0x20000000
 8001380:	431bde83 	.word	0x431bde83

08001384 <ADC_Enable>:
  *         and voltage regulator must be enabled (done into HAL_ADC_Init()).
  * @param  hadc: ADC handle
  * @retval HAL status.
  */
HAL_StatusTypeDef ADC_Enable(ADC_HandleTypeDef* hadc)
{
 8001384:	b580      	push	{r7, lr}
 8001386:	b084      	sub	sp, #16
 8001388:	af00      	add	r7, sp, #0
 800138a:	6078      	str	r0, [r7, #4]
  uint32_t tickstart = 0U;
 800138c:	2300      	movs	r3, #0
 800138e:	60fb      	str	r3, [r7, #12]
  __IO uint32_t wait_loop_index = 0U;
 8001390:	2300      	movs	r3, #0
 8001392:	60bb      	str	r3, [r7, #8]
  
  /* ADC enable and wait for ADC ready (in case of ADC is disabled or         */
  /* enabling phase not yet completed: flag ADC ready not yet set).           */
  /* Timeout implemented to not be stuck if ADC cannot be enabled (possible   */
  /* causes: ADC clock not running, ...).                                     */
  if (ADC_IS_ENABLE(hadc) == RESET)
 8001394:	687b      	ldr	r3, [r7, #4]
 8001396:	681b      	ldr	r3, [r3, #0]
 8001398:	689b      	ldr	r3, [r3, #8]
 800139a:	f003 0301 	and.w	r3, r3, #1
 800139e:	2b01      	cmp	r3, #1
 80013a0:	d040      	beq.n	8001424 <ADC_Enable+0xa0>
  {
    /* Enable the Peripheral */
    __HAL_ADC_ENABLE(hadc);
 80013a2:	687b      	ldr	r3, [r7, #4]
 80013a4:	681b      	ldr	r3, [r3, #0]
 80013a6:	689a      	ldr	r2, [r3, #8]
 80013a8:	687b      	ldr	r3, [r7, #4]
 80013aa:	681b      	ldr	r3, [r3, #0]
 80013ac:	f042 0201 	orr.w	r2, r2, #1
 80013b0:	609a      	str	r2, [r3, #8]
    
    /* Delay for ADC stabilization time */
    /* Compute number of CPU cycles to wait for */
    wait_loop_index = (ADC_STAB_DELAY_US * (SystemCoreClock / 1000000U));
 80013b2:	4b1f      	ldr	r3, [pc, #124]	; (8001430 <ADC_Enable+0xac>)
 80013b4:	681b      	ldr	r3, [r3, #0]
 80013b6:	4a1f      	ldr	r2, [pc, #124]	; (8001434 <ADC_Enable+0xb0>)
 80013b8:	fba2 2303 	umull	r2, r3, r2, r3
 80013bc:	0c9b      	lsrs	r3, r3, #18
 80013be:	60bb      	str	r3, [r7, #8]
    while(wait_loop_index != 0U)
 80013c0:	e002      	b.n	80013c8 <ADC_Enable+0x44>
    {
      wait_loop_index--;
 80013c2:	68bb      	ldr	r3, [r7, #8]
 80013c4:	3b01      	subs	r3, #1
 80013c6:	60bb      	str	r3, [r7, #8]
    while(wait_loop_index != 0U)
 80013c8:	68bb      	ldr	r3, [r7, #8]
 80013ca:	2b00      	cmp	r3, #0
 80013cc:	d1f9      	bne.n	80013c2 <ADC_Enable+0x3e>
    }
    
    /* Get tick count */
    tickstart = HAL_GetTick();
 80013ce:	f7ff fb19 	bl	8000a04 <HAL_GetTick>
 80013d2:	60f8      	str	r0, [r7, #12]

    /* Wait for ADC effectively enabled */
    while(ADC_IS_ENABLE(hadc) == RESET)
 80013d4:	e01f      	b.n	8001416 <ADC_Enable+0x92>
    {
      if((HAL_GetTick() - tickstart) > ADC_ENABLE_TIMEOUT)
 80013d6:	f7ff fb15 	bl	8000a04 <HAL_GetTick>
 80013da:	4602      	mov	r2, r0
 80013dc:	68fb      	ldr	r3, [r7, #12]
 80013de:	1ad3      	subs	r3, r2, r3
 80013e0:	2b02      	cmp	r3, #2
 80013e2:	d918      	bls.n	8001416 <ADC_Enable+0x92>
      {
        /* New check to avoid false timeout detection in case of preemption */
        if(ADC_IS_ENABLE(hadc) == RESET)
 80013e4:	687b      	ldr	r3, [r7, #4]
 80013e6:	681b      	ldr	r3, [r3, #0]
 80013e8:	689b      	ldr	r3, [r3, #8]
 80013ea:	f003 0301 	and.w	r3, r3, #1
 80013ee:	2b01      	cmp	r3, #1
 80013f0:	d011      	beq.n	8001416 <ADC_Enable+0x92>
        {
          /* Update ADC state machine to error */
          SET_BIT(hadc->State, HAL_ADC_STATE_ERROR_INTERNAL);
 80013f2:	687b      	ldr	r3, [r7, #4]
 80013f4:	6a9b      	ldr	r3, [r3, #40]	; 0x28
 80013f6:	f043 0210 	orr.w	r2, r3, #16
 80013fa:	687b      	ldr	r3, [r7, #4]
 80013fc:	629a      	str	r2, [r3, #40]	; 0x28

          /* Set ADC error code to ADC IP internal error */
          SET_BIT(hadc->ErrorCode, HAL_ADC_ERROR_INTERNAL);
 80013fe:	687b      	ldr	r3, [r7, #4]
 8001400:	6adb      	ldr	r3, [r3, #44]	; 0x2c
 8001402:	f043 0201 	orr.w	r2, r3, #1
 8001406:	687b      	ldr	r3, [r7, #4]
 8001408:	62da      	str	r2, [r3, #44]	; 0x2c

          /* Process unlocked */
          __HAL_UNLOCK(hadc);
 800140a:	687b      	ldr	r3, [r7, #4]
 800140c:	2200      	movs	r2, #0
 800140e:	f883 2024 	strb.w	r2, [r3, #36]	; 0x24

          return HAL_ERROR;
 8001412:	2301      	movs	r3, #1
 8001414:	e007      	b.n	8001426 <ADC_Enable+0xa2>
    while(ADC_IS_ENABLE(hadc) == RESET)
 8001416:	687b      	ldr	r3, [r7, #4]
 8001418:	681b      	ldr	r3, [r3, #0]
 800141a:	689b      	ldr	r3, [r3, #8]
 800141c:	f003 0301 	and.w	r3, r3, #1
 8001420:	2b01      	cmp	r3, #1
 8001422:	d1d8      	bne.n	80013d6 <ADC_Enable+0x52>
      }
    }
  }
   
  /* Return HAL status */
  return HAL_OK;
 8001424:	2300      	movs	r3, #0
}
 8001426:	4618      	mov	r0, r3
 8001428:	3710      	adds	r7, #16
 800142a:	46bd      	mov	sp, r7
 800142c:	bd80      	pop	{r7, pc}
 800142e:	bf00      	nop
 8001430:	20000000 	.word	0x20000000
 8001434:	431bde83 	.word	0x431bde83

08001438 <ADC_ConversionStop_Disable>:
  *         stopped to disable the ADC.
  * @param  hadc: ADC handle
  * @retval HAL status.
  */
HAL_StatusTypeDef ADC_ConversionStop_Disable(ADC_HandleTypeDef* hadc)
{
 8001438:	b580      	push	{r7, lr}
 800143a:	b084      	sub	sp, #16
 800143c:	af00      	add	r7, sp, #0
 800143e:	6078      	str	r0, [r7, #4]
  uint32_t tickstart = 0U;
 8001440:	2300      	movs	r3, #0
 8001442:	60fb      	str	r3, [r7, #12]
  
  /* Verification if ADC is not already disabled */
  if (ADC_IS_ENABLE(hadc) != RESET)
 8001444:	687b      	ldr	r3, [r7, #4]
 8001446:	681b      	ldr	r3, [r3, #0]
 8001448:	689b      	ldr	r3, [r3, #8]
 800144a:	f003 0301 	and.w	r3, r3, #1
 800144e:	2b01      	cmp	r3, #1
 8001450:	d12e      	bne.n	80014b0 <ADC_ConversionStop_Disable+0x78>
  {
    /* Disable the ADC peripheral */
    __HAL_ADC_DISABLE(hadc);
 8001452:	687b      	ldr	r3, [r7, #4]
 8001454:	681b      	ldr	r3, [r3, #0]
 8001456:	689a      	ldr	r2, [r3, #8]
 8001458:	687b      	ldr	r3, [r7, #4]
 800145a:	681b      	ldr	r3, [r3, #0]
 800145c:	f022 0201 	bic.w	r2, r2, #1
 8001460:	609a      	str	r2, [r3, #8]
     
    /* Get tick count */
    tickstart = HAL_GetTick();
 8001462:	f7ff facf 	bl	8000a04 <HAL_GetTick>
 8001466:	60f8      	str	r0, [r7, #12]
    
    /* Wait for ADC effectively disabled */
    while(ADC_IS_ENABLE(hadc) != RESET)
 8001468:	e01b      	b.n	80014a2 <ADC_ConversionStop_Disable+0x6a>
    {
      if((HAL_GetTick() - tickstart) > ADC_DISABLE_TIMEOUT)
 800146a:	f7ff facb 	bl	8000a04 <HAL_GetTick>
 800146e:	4602      	mov	r2, r0
 8001470:	68fb      	ldr	r3, [r7, #12]
 8001472:	1ad3      	subs	r3, r2, r3
 8001474:	2b02      	cmp	r3, #2
 8001476:	d914      	bls.n	80014a2 <ADC_ConversionStop_Disable+0x6a>
      {
        /* New check to avoid false timeout detection in case of preemption */
        if(ADC_IS_ENABLE(hadc) != RESET)
 8001478:	687b      	ldr	r3, [r7, #4]
 800147a:	681b      	ldr	r3, [r3, #0]
 800147c:	689b      	ldr	r3, [r3, #8]
 800147e:	f003 0301 	and.w	r3, r3, #1
 8001482:	2b01      	cmp	r3, #1
 8001484:	d10d      	bne.n	80014a2 <ADC_ConversionStop_Disable+0x6a>
        {
          /* Update ADC state machine to error */
          SET_BIT(hadc->State, HAL_ADC_STATE_ERROR_INTERNAL);
 8001486:	687b      	ldr	r3, [r7, #4]
 8001488:	6a9b      	ldr	r3, [r3, #40]	; 0x28
 800148a:	f043 0210 	orr.w	r2, r3, #16
 800148e:	687b      	ldr	r3, [r7, #4]
 8001490:	629a      	str	r2, [r3, #40]	; 0x28

          /* Set ADC error code to ADC IP internal error */
          SET_BIT(hadc->ErrorCode, HAL_ADC_ERROR_INTERNAL);
 8001492:	687b      	ldr	r3, [r7, #4]
 8001494:	6adb      	ldr	r3, [r3, #44]	; 0x2c
 8001496:	f043 0201 	orr.w	r2, r3, #1
 800149a:	687b      	ldr	r3, [r7, #4]
 800149c:	62da      	str	r2, [r3, #44]	; 0x2c

          return HAL_ERROR;
 800149e:	2301      	movs	r3, #1
 80014a0:	e007      	b.n	80014b2 <ADC_ConversionStop_Disable+0x7a>
    while(ADC_IS_ENABLE(hadc) != RESET)
 80014a2:	687b      	ldr	r3, [r7, #4]
 80014a4:	681b      	ldr	r3, [r3, #0]
 80014a6:	689b      	ldr	r3, [r3, #8]
 80014a8:	f003 0301 	and.w	r3, r3, #1
 80014ac:	2b01      	cmp	r3, #1
 80014ae:	d0dc      	beq.n	800146a <ADC_ConversionStop_Disable+0x32>
      }
    }
  }
  
  /* Return HAL status */
  return HAL_OK;
 80014b0:	2300      	movs	r3, #0
}
 80014b2:	4618      	mov	r0, r3
 80014b4:	3710      	adds	r7, #16
 80014b6:	46bd      	mov	sp, r7
 80014b8:	bd80      	pop	{r7, pc}
	...

080014bc <HAL_ADCEx_Calibration_Start>:
  *         the completion of this function.
  * @param  hadc: ADC handle
  * @retval HAL status
  */
HAL_StatusTypeDef HAL_ADCEx_Calibration_Start(ADC_HandleTypeDef* hadc)
{
 80014bc:	b590      	push	{r4, r7, lr}
 80014be:	b087      	sub	sp, #28
 80014c0:	af00      	add	r7, sp, #0
 80014c2:	6078      	str	r0, [r7, #4]
  HAL_StatusTypeDef tmp_hal_status = HAL_OK;
 80014c4:	2300      	movs	r3, #0
 80014c6:	75fb      	strb	r3, [r7, #23]
  uint32_t tickstart;
  __IO uint32_t wait_loop_index = 0U;
 80014c8:	2300      	movs	r3, #0
 80014ca:	60fb      	str	r3, [r7, #12]
  
  /* Check the parameters */
  assert_param(IS_ADC_ALL_INSTANCE(hadc->Instance));

  /* Process locked */
  __HAL_LOCK(hadc);
 80014cc:	687b      	ldr	r3, [r7, #4]
 80014ce:	f893 3024 	ldrb.w	r3, [r3, #36]	; 0x24
 80014d2:	2b01      	cmp	r3, #1
 80014d4:	d101      	bne.n	80014da <HAL_ADCEx_Calibration_Start+0x1e>
 80014d6:	2302      	movs	r3, #2
 80014d8:	e095      	b.n	8001606 <HAL_ADCEx_Calibration_Start+0x14a>
 80014da:	687b      	ldr	r3, [r7, #4]
 80014dc:	2201      	movs	r2, #1
 80014de:	f883 2024 	strb.w	r2, [r3, #36]	; 0x24
  /* 1. Calibration prerequisite:                                             */
  /*    - ADC must be disabled for at least two ADC clock cycles in disable   */
  /*      mode before ADC enable                                              */
  /* Stop potential conversion on going, on regular and injected groups       */
  /* Disable ADC peripheral */
  tmp_hal_status = ADC_ConversionStop_Disable(hadc);
 80014e2:	6878      	ldr	r0, [r7, #4]
 80014e4:	f7ff ffa8 	bl	8001438 <ADC_ConversionStop_Disable>
 80014e8:	4603      	mov	r3, r0
 80014ea:	75fb      	strb	r3, [r7, #23]
  
  /* Check if ADC is effectively disabled */
  if (tmp_hal_status == HAL_OK)
 80014ec:	7dfb      	ldrb	r3, [r7, #23]
 80014ee:	2b00      	cmp	r3, #0
 80014f0:	f040 8084 	bne.w	80015fc <HAL_ADCEx_Calibration_Start+0x140>
  {
    /* Set ADC state */
    ADC_STATE_CLR_SET(hadc->State,
 80014f4:	687b      	ldr	r3, [r7, #4]
 80014f6:	6a9b      	ldr	r3, [r3, #40]	; 0x28
 80014f8:	f423 5388 	bic.w	r3, r3, #4352	; 0x1100
 80014fc:	f023 0302 	bic.w	r3, r3, #2
 8001500:	f043 0202 	orr.w	r2, r3, #2
 8001504:	687b      	ldr	r3, [r7, #4]
 8001506:	629a      	str	r2, [r3, #40]	; 0x28
    
    /* Hardware prerequisite: delay before starting the calibration.          */
    /*  - Computation of CPU clock cycles corresponding to ADC clock cycles.  */
    /*  - Wait for the expected ADC clock cycles delay */
    wait_loop_index = ((SystemCoreClock
                        / HAL_RCCEx_GetPeriphCLKFreq(RCC_PERIPHCLK_ADC))
 8001508:	4b41      	ldr	r3, [pc, #260]	; (8001610 <HAL_ADCEx_Calibration_Start+0x154>)
 800150a:	681c      	ldr	r4, [r3, #0]
 800150c:	2002      	movs	r0, #2
 800150e:	f001 f95d 	bl	80027cc <HAL_RCCEx_GetPeriphCLKFreq>
 8001512:	4603      	mov	r3, r0
 8001514:	fbb4 f3f3 	udiv	r3, r4, r3
                       * ADC_PRECALIBRATION_DELAY_ADCCLOCKCYCLES        );
 8001518:	005b      	lsls	r3, r3, #1
    wait_loop_index = ((SystemCoreClock
 800151a:	60fb      	str	r3, [r7, #12]

    while(wait_loop_index != 0U)
 800151c:	e002      	b.n	8001524 <HAL_ADCEx_Calibration_Start+0x68>
    {
      wait_loop_index--;
 800151e:	68fb      	ldr	r3, [r7, #12]
 8001520:	3b01      	subs	r3, #1
 8001522:	60fb      	str	r3, [r7, #12]
    while(wait_loop_index != 0U)
 8001524:	68fb      	ldr	r3, [r7, #12]
 8001526:	2b00      	cmp	r3, #0
 8001528:	d1f9      	bne.n	800151e <HAL_ADCEx_Calibration_Start+0x62>
    }
    
    /* 2. Enable the ADC peripheral */
    ADC_Enable(hadc);
 800152a:	6878      	ldr	r0, [r7, #4]
 800152c:	f7ff ff2a 	bl	8001384 <ADC_Enable>
    
    /* 3. Resets ADC calibration registers */  
    SET_BIT(hadc->Instance->CR2, ADC_CR2_RSTCAL);
 8001530:	687b      	ldr	r3, [r7, #4]
 8001532:	681b      	ldr	r3, [r3, #0]
 8001534:	689a      	ldr	r2, [r3, #8]
 8001536:	687b      	ldr	r3, [r7, #4]
 8001538:	681b      	ldr	r3, [r3, #0]
 800153a:	f042 0208 	orr.w	r2, r2, #8
 800153e:	609a      	str	r2, [r3, #8]
    
    tickstart = HAL_GetTick();  
 8001540:	f7ff fa60 	bl	8000a04 <HAL_GetTick>
 8001544:	6138      	str	r0, [r7, #16]

    /* Wait for calibration reset completion */
    while(HAL_IS_BIT_SET(hadc->Instance->CR2, ADC_CR2_RSTCAL))
 8001546:	e01b      	b.n	8001580 <HAL_ADCEx_Calibration_Start+0xc4>
    {
      if((HAL_GetTick() - tickstart) > ADC_CALIBRATION_TIMEOUT)
 8001548:	f7ff fa5c 	bl	8000a04 <HAL_GetTick>
 800154c:	4602      	mov	r2, r0
 800154e:	693b      	ldr	r3, [r7, #16]
 8001550:	1ad3      	subs	r3, r2, r3
 8001552:	2b0a      	cmp	r3, #10
 8001554:	d914      	bls.n	8001580 <HAL_ADCEx_Calibration_Start+0xc4>
      {
        /* New check to avoid false timeout detection in case of preemption */
        if(HAL_IS_BIT_SET(hadc->Instance->CR2, ADC_CR2_RSTCAL))
 8001556:	687b      	ldr	r3, [r7, #4]
 8001558:	681b      	ldr	r3, [r3, #0]
 800155a:	689b      	ldr	r3, [r3, #8]
 800155c:	f003 0308 	and.w	r3, r3, #8
 8001560:	2b00      	cmp	r3, #0
 8001562:	d00d      	beq.n	8001580 <HAL_ADCEx_Calibration_Start+0xc4>
        {
          /* Update ADC state machine to error */
          ADC_STATE_CLR_SET(hadc->State,
 8001564:	687b      	ldr	r3, [r7, #4]
 8001566:	6a9b      	ldr	r3, [r3, #40]	; 0x28
 8001568:	f023 0312 	bic.w	r3, r3, #18
 800156c:	f043 0210 	orr.w	r2, r3, #16
 8001570:	687b      	ldr	r3, [r7, #4]
 8001572:	629a      	str	r2, [r3, #40]	; 0x28
                            HAL_ADC_STATE_BUSY_INTERNAL,
                            HAL_ADC_STATE_ERROR_INTERNAL);

          /* Process unlocked */
          __HAL_UNLOCK(hadc);
 8001574:	687b      	ldr	r3, [r7, #4]
 8001576:	2200      	movs	r2, #0
 8001578:	f883 2024 	strb.w	r2, [r3, #36]	; 0x24

          return HAL_ERROR;
 800157c:	2301      	movs	r3, #1
 800157e:	e042      	b.n	8001606 <HAL_ADCEx_Calibration_Start+0x14a>
    while(HAL_IS_BIT_SET(hadc->Instance->CR2, ADC_CR2_RSTCAL))
 8001580:	687b      	ldr	r3, [r7, #4]
 8001582:	681b      	ldr	r3, [r3, #0]
 8001584:	689b      	ldr	r3, [r3, #8]
 8001586:	f003 0308 	and.w	r3, r3, #8
 800158a:	2b00      	cmp	r3, #0
 800158c:	d1dc      	bne.n	8001548 <HAL_ADCEx_Calibration_Start+0x8c>
        }
      }
    }
    
    /* 4. Start ADC calibration */
    SET_BIT(hadc->Instance->CR2, ADC_CR2_CAL);
 800158e:	687b      	ldr	r3, [r7, #4]
 8001590:	681b      	ldr	r3, [r3, #0]
 8001592:	689a      	ldr	r2, [r3, #8]
 8001594:	687b      	ldr	r3, [r7, #4]
 8001596:	681b      	ldr	r3, [r3, #0]
 8001598:	f042 0204 	orr.w	r2, r2, #4
 800159c:	609a      	str	r2, [r3, #8]
    
    tickstart = HAL_GetTick();  
 800159e:	f7ff fa31 	bl	8000a04 <HAL_GetTick>
 80015a2:	6138      	str	r0, [r7, #16]

    /* Wait for calibration completion */
    while(HAL_IS_BIT_SET(hadc->Instance->CR2, ADC_CR2_CAL))
 80015a4:	e01b      	b.n	80015de <HAL_ADCEx_Calibration_Start+0x122>
    {
      if((HAL_GetTick() - tickstart) > ADC_CALIBRATION_TIMEOUT)
 80015a6:	f7ff fa2d 	bl	8000a04 <HAL_GetTick>
 80015aa:	4602      	mov	r2, r0
 80015ac:	693b      	ldr	r3, [r7, #16]
 80015ae:	1ad3      	subs	r3, r2, r3
 80015b0:	2b0a      	cmp	r3, #10
 80015b2:	d914      	bls.n	80015de <HAL_ADCEx_Calibration_Start+0x122>
      {
        /* New check to avoid false timeout detection in case of preemption */
        if(HAL_IS_BIT_SET(hadc->Instance->CR2, ADC_CR2_CAL))
 80015b4:	687b      	ldr	r3, [r7, #4]
 80015b6:	681b      	ldr	r3, [r3, #0]
 80015b8:	689b      	ldr	r3, [r3, #8]
 80015ba:	f003 0304 	and.w	r3, r3, #4
 80015be:	2b00      	cmp	r3, #0
 80015c0:	d00d      	beq.n	80015de <HAL_ADCEx_Calibration_Start+0x122>
        {
          /* Update ADC state machine to error */
          ADC_STATE_CLR_SET(hadc->State,
 80015c2:	687b      	ldr	r3, [r7, #4]
 80015c4:	6a9b      	ldr	r3, [r3, #40]	; 0x28
 80015c6:	f023 0312 	bic.w	r3, r3, #18
 80015ca:	f043 0210 	orr.w	r2, r3, #16
 80015ce:	687b      	ldr	r3, [r7, #4]
 80015d0:	629a      	str	r2, [r3, #40]	; 0x28
                            HAL_ADC_STATE_BUSY_INTERNAL,
                            HAL_ADC_STATE_ERROR_INTERNAL);

          /* Process unlocked */
          __HAL_UNLOCK(hadc);
 80015d2:	687b      	ldr	r3, [r7, #4]
 80015d4:	2200      	movs	r2, #0
 80015d6:	f883 2024 	strb.w	r2, [r3, #36]	; 0x24

          return HAL_ERROR;
 80015da:	2301      	movs	r3, #1
 80015dc:	e013      	b.n	8001606 <HAL_ADCEx_Calibration_Start+0x14a>
    while(HAL_IS_BIT_SET(hadc->Instance->CR2, ADC_CR2_CAL))
 80015de:	687b      	ldr	r3, [r7, #4]
 80015e0:	681b      	ldr	r3, [r3, #0]
 80015e2:	689b      	ldr	r3, [r3, #8]
 80015e4:	f003 0304 	and.w	r3, r3, #4
 80015e8:	2b00      	cmp	r3, #0
 80015ea:	d1dc      	bne.n	80015a6 <HAL_ADCEx_Calibration_Start+0xea>
        }
      }
    }
    
    /* Set ADC state */
    ADC_STATE_CLR_SET(hadc->State,
 80015ec:	687b      	ldr	r3, [r7, #4]
 80015ee:	6a9b      	ldr	r3, [r3, #40]	; 0x28
 80015f0:	f023 0303 	bic.w	r3, r3, #3
 80015f4:	f043 0201 	orr.w	r2, r3, #1
 80015f8:	687b      	ldr	r3, [r7, #4]
 80015fa:	629a      	str	r2, [r3, #40]	; 0x28
                      HAL_ADC_STATE_BUSY_INTERNAL,
                      HAL_ADC_STATE_READY);
  }
  
  /* Process unlocked */
  __HAL_UNLOCK(hadc);
 80015fc:	687b      	ldr	r3, [r7, #4]
 80015fe:	2200      	movs	r2, #0
 8001600:	f883 2024 	strb.w	r2, [r3, #36]	; 0x24
  
  /* Return function status */
  return tmp_hal_status;
 8001604:	7dfb      	ldrb	r3, [r7, #23]
}
 8001606:	4618      	mov	r0, r3
 8001608:	371c      	adds	r7, #28
 800160a:	46bd      	mov	sp, r7
 800160c:	bd90      	pop	{r4, r7, pc}
 800160e:	bf00      	nop
 8001610:	20000000 	.word	0x20000000

08001614 <HAL_ADCEx_InjectedConvCpltCallback>:
  * @brief  Injected conversion complete callback in non blocking mode 
  * @param  hadc: ADC handle
  * @retval None
  */
__weak void HAL_ADCEx_InjectedConvCpltCallback(ADC_HandleTypeDef* hadc)
{
 8001614:	b480      	push	{r7}
 8001616:	b083      	sub	sp, #12
 8001618:	af00      	add	r7, sp, #0
 800161a:	6078      	str	r0, [r7, #4]
  /* Prevent unused argument(s) compilation warning */
  UNUSED(hadc);
  /* NOTE : This function Should not be modified, when the callback is needed,
            the HAL_ADCEx_InjectedConvCpltCallback could be implemented in the user file
  */
}
 800161c:	bf00      	nop
 800161e:	370c      	adds	r7, #12
 8001620:	46bd      	mov	sp, r7
 8001622:	bc80      	pop	{r7}
 8001624:	4770      	bx	lr
	...

08001628 <__NVIC_SetPriorityGrouping>:
           In case of a conflict between priority grouping and available
           priority bits (__NVIC_PRIO_BITS), the smallest possible priority group is set.
  \param [in]      PriorityGroup  Priority grouping field.
 */
__STATIC_INLINE void __NVIC_SetPriorityGrouping(uint32_t PriorityGroup)
{
 8001628:	b480      	push	{r7}
 800162a:	b085      	sub	sp, #20
 800162c:	af00      	add	r7, sp, #0
 800162e:	6078      	str	r0, [r7, #4]
  uint32_t reg_value;
  uint32_t PriorityGroupTmp = (PriorityGroup & (uint32_t)0x07UL);             /* only values 0..7 are used          */
 8001630:	687b      	ldr	r3, [r7, #4]
 8001632:	f003 0307 	and.w	r3, r3, #7
 8001636:	60fb      	str	r3, [r7, #12]

  reg_value  =  SCB->AIRCR;                                                   /* read old register configuration    */
 8001638:	4b0c      	ldr	r3, [pc, #48]	; (800166c <__NVIC_SetPriorityGrouping+0x44>)
 800163a:	68db      	ldr	r3, [r3, #12]
 800163c:	60bb      	str	r3, [r7, #8]
  reg_value &= ~((uint32_t)(SCB_AIRCR_VECTKEY_Msk | SCB_AIRCR_PRIGROUP_Msk)); /* clear bits to change               */
 800163e:	68ba      	ldr	r2, [r7, #8]
 8001640:	f64f 03ff 	movw	r3, #63743	; 0xf8ff
 8001644:	4013      	ands	r3, r2
 8001646:	60bb      	str	r3, [r7, #8]
  reg_value  =  (reg_value                                   |
                ((uint32_t)0x5FAUL << SCB_AIRCR_VECTKEY_Pos) |
                (PriorityGroupTmp << SCB_AIRCR_PRIGROUP_Pos) );               /* Insert write key and priority group */
 8001648:	68fb      	ldr	r3, [r7, #12]
 800164a:	021a      	lsls	r2, r3, #8
                ((uint32_t)0x5FAUL << SCB_AIRCR_VECTKEY_Pos) |
 800164c:	68bb      	ldr	r3, [r7, #8]
 800164e:	4313      	orrs	r3, r2
  reg_value  =  (reg_value                                   |
 8001650:	f043 63bf 	orr.w	r3, r3, #100139008	; 0x5f80000
 8001654:	f443 3300 	orr.w	r3, r3, #131072	; 0x20000
 8001658:	60bb      	str	r3, [r7, #8]
  SCB->AIRCR =  reg_value;
 800165a:	4a04      	ldr	r2, [pc, #16]	; (800166c <__NVIC_SetPriorityGrouping+0x44>)
 800165c:	68bb      	ldr	r3, [r7, #8]
 800165e:	60d3      	str	r3, [r2, #12]
}
 8001660:	bf00      	nop
 8001662:	3714      	adds	r7, #20
 8001664:	46bd      	mov	sp, r7
 8001666:	bc80      	pop	{r7}
 8001668:	4770      	bx	lr
 800166a:	bf00      	nop
 800166c:	e000ed00 	.word	0xe000ed00

08001670 <__NVIC_GetPriorityGrouping>:
  \brief   Get Priority Grouping
  \details Reads the priority grouping field from the NVIC Interrupt Controller.
  \return                Priority grouping field (SCB->AIRCR [10:8] PRIGROUP field).
 */
__STATIC_INLINE uint32_t __NVIC_GetPriorityGrouping(void)
{
 8001670:	b480      	push	{r7}
 8001672:	af00      	add	r7, sp, #0
  return ((uint32_t)((SCB->AIRCR & SCB_AIRCR_PRIGROUP_Msk) >> SCB_AIRCR_PRIGROUP_Pos));
 8001674:	4b04      	ldr	r3, [pc, #16]	; (8001688 <__NVIC_GetPriorityGrouping+0x18>)
 8001676:	68db      	ldr	r3, [r3, #12]
 8001678:	0a1b      	lsrs	r3, r3, #8
 800167a:	f003 0307 	and.w	r3, r3, #7
}
 800167e:	4618      	mov	r0, r3
 8001680:	46bd      	mov	sp, r7
 8001682:	bc80      	pop	{r7}
 8001684:	4770      	bx	lr
 8001686:	bf00      	nop
 8001688:	e000ed00 	.word	0xe000ed00

0800168c <__NVIC_EnableIRQ>:
  \details Enables a device specific interrupt in the NVIC interrupt controller.
  \param [in]      IRQn  Device specific interrupt number.
  \note    IRQn must not be negative.
 */
__STATIC_INLINE void __NVIC_EnableIRQ(IRQn_Type IRQn)
{
 800168c:	b480      	push	{r7}
 800168e:	b083      	sub	sp, #12
 8001690:	af00      	add	r7, sp, #0
 8001692:	4603      	mov	r3, r0
 8001694:	71fb      	strb	r3, [r7, #7]
  if ((int32_t)(IRQn) >= 0)
 8001696:	f997 3007 	ldrsb.w	r3, [r7, #7]
 800169a:	2b00      	cmp	r3, #0
 800169c:	db0b      	blt.n	80016b6 <__NVIC_EnableIRQ+0x2a>
  {
    NVIC->ISER[(((uint32_t)IRQn) >> 5UL)] = (uint32_t)(1UL << (((uint32_t)IRQn) & 0x1FUL));
 800169e:	79fb      	ldrb	r3, [r7, #7]
 80016a0:	f003 021f 	and.w	r2, r3, #31
 80016a4:	4906      	ldr	r1, [pc, #24]	; (80016c0 <__NVIC_EnableIRQ+0x34>)
 80016a6:	f997 3007 	ldrsb.w	r3, [r7, #7]
 80016aa:	095b      	lsrs	r3, r3, #5
 80016ac:	2001      	movs	r0, #1
 80016ae:	fa00 f202 	lsl.w	r2, r0, r2
 80016b2:	f841 2023 	str.w	r2, [r1, r3, lsl #2]
  }
}
 80016b6:	bf00      	nop
 80016b8:	370c      	adds	r7, #12
 80016ba:	46bd      	mov	sp, r7
 80016bc:	bc80      	pop	{r7}
 80016be:	4770      	bx	lr
 80016c0:	e000e100 	.word	0xe000e100

080016c4 <__NVIC_SetPriority>:
  \param [in]      IRQn  Interrupt number.
  \param [in]  priority  Priority to set.
  \note    The priority cannot be set for every processor exception.
 */
__STATIC_INLINE void __NVIC_SetPriority(IRQn_Type IRQn, uint32_t priority)
{
 80016c4:	b480      	push	{r7}
 80016c6:	b083      	sub	sp, #12
 80016c8:	af00      	add	r7, sp, #0
 80016ca:	4603      	mov	r3, r0
 80016cc:	6039      	str	r1, [r7, #0]
 80016ce:	71fb      	strb	r3, [r7, #7]
  if ((int32_t)(IRQn) >= 0)
 80016d0:	f997 3007 	ldrsb.w	r3, [r7, #7]
 80016d4:	2b00      	cmp	r3, #0
 80016d6:	db0a      	blt.n	80016ee <__NVIC_SetPriority+0x2a>
  {
    NVIC->IP[((uint32_t)IRQn)]               = (uint8_t)((priority << (8U - __NVIC_PRIO_BITS)) & (uint32_t)0xFFUL);
 80016d8:	683b      	ldr	r3, [r7, #0]
 80016da:	b2da      	uxtb	r2, r3
 80016dc:	490c      	ldr	r1, [pc, #48]	; (8001710 <__NVIC_SetPriority+0x4c>)
 80016de:	f997 3007 	ldrsb.w	r3, [r7, #7]
 80016e2:	0112      	lsls	r2, r2, #4
 80016e4:	b2d2      	uxtb	r2, r2
 80016e6:	440b      	add	r3, r1
 80016e8:	f883 2300 	strb.w	r2, [r3, #768]	; 0x300
  }
  else
  {
    SCB->SHP[(((uint32_t)IRQn) & 0xFUL)-4UL] = (uint8_t)((priority << (8U - __NVIC_PRIO_BITS)) & (uint32_t)0xFFUL);
  }
}
 80016ec:	e00a      	b.n	8001704 <__NVIC_SetPriority+0x40>
    SCB->SHP[(((uint32_t)IRQn) & 0xFUL)-4UL] = (uint8_t)((priority << (8U - __NVIC_PRIO_BITS)) & (uint32_t)0xFFUL);
 80016ee:	683b      	ldr	r3, [r7, #0]
 80016f0:	b2da      	uxtb	r2, r3
 80016f2:	4908      	ldr	r1, [pc, #32]	; (8001714 <__NVIC_SetPriority+0x50>)
 80016f4:	79fb      	ldrb	r3, [r7, #7]
 80016f6:	f003 030f 	and.w	r3, r3, #15
 80016fa:	3b04      	subs	r3, #4
 80016fc:	0112      	lsls	r2, r2, #4
 80016fe:	b2d2      	uxtb	r2, r2
 8001700:	440b      	add	r3, r1
 8001702:	761a      	strb	r2, [r3, #24]
}
 8001704:	bf00      	nop
 8001706:	370c      	adds	r7, #12
 8001708:	46bd      	mov	sp, r7
 800170a:	bc80      	pop	{r7}
 800170c:	4770      	bx	lr
 800170e:	bf00      	nop
 8001710:	e000e100 	.word	0xe000e100
 8001714:	e000ed00 	.word	0xe000ed00

08001718 <NVIC_EncodePriority>:
  \param [in]   PreemptPriority  Preemptive priority value (starting from 0).
  \param [in]       SubPriority  Subpriority value (starting from 0).
  \return                        Encoded priority. Value can be used in the function \ref NVIC_SetPriority().
 */
__STATIC_INLINE uint32_t NVIC_EncodePriority (uint32_t PriorityGroup, uint32_t PreemptPriority, uint32_t SubPriority)
{
 8001718:	b480      	push	{r7}
 800171a:	b089      	sub	sp, #36	; 0x24
 800171c:	af00      	add	r7, sp, #0
 800171e:	60f8      	str	r0, [r7, #12]
 8001720:	60b9      	str	r1, [r7, #8]
 8001722:	607a      	str	r2, [r7, #4]
  uint32_t PriorityGroupTmp = (PriorityGroup & (uint32_t)0x07UL);   /* only values 0..7 are used          */
 8001724:	68fb      	ldr	r3, [r7, #12]
 8001726:	f003 0307 	and.w	r3, r3, #7
 800172a:	61fb      	str	r3, [r7, #28]
  uint32_t PreemptPriorityBits;
  uint32_t SubPriorityBits;

  PreemptPriorityBits = ((7UL - PriorityGroupTmp) > (uint32_t)(__NVIC_PRIO_BITS)) ? (uint32_t)(__NVIC_PRIO_BITS) : (uint32_t)(7UL - PriorityGroupTmp);
 800172c:	69fb      	ldr	r3, [r7, #28]
 800172e:	f1c3 0307 	rsb	r3, r3, #7
 8001732:	2b04      	cmp	r3, #4
 8001734:	bf28      	it	cs
 8001736:	2304      	movcs	r3, #4
 8001738:	61bb      	str	r3, [r7, #24]
  SubPriorityBits     = ((PriorityGroupTmp + (uint32_t)(__NVIC_PRIO_BITS)) < (uint32_t)7UL) ? (uint32_t)0UL : (uint32_t)((PriorityGroupTmp - 7UL) + (uint32_t)(__NVIC_PRIO_BITS));
 800173a:	69fb      	ldr	r3, [r7, #28]
 800173c:	3304      	adds	r3, #4
 800173e:	2b06      	cmp	r3, #6
 8001740:	d902      	bls.n	8001748 <NVIC_EncodePriority+0x30>
 8001742:	69fb      	ldr	r3, [r7, #28]
 8001744:	3b03      	subs	r3, #3
 8001746:	e000      	b.n	800174a <NVIC_EncodePriority+0x32>
 8001748:	2300      	movs	r3, #0
 800174a:	617b      	str	r3, [r7, #20]

  return (
           ((PreemptPriority & (uint32_t)((1UL << (PreemptPriorityBits)) - 1UL)) << SubPriorityBits) |
 800174c:	f04f 32ff 	mov.w	r2, #4294967295
 8001750:	69bb      	ldr	r3, [r7, #24]
 8001752:	fa02 f303 	lsl.w	r3, r2, r3
 8001756:	43da      	mvns	r2, r3
 8001758:	68bb      	ldr	r3, [r7, #8]
 800175a:	401a      	ands	r2, r3
 800175c:	697b      	ldr	r3, [r7, #20]
 800175e:	409a      	lsls	r2, r3
           ((SubPriority     & (uint32_t)((1UL << (SubPriorityBits    )) - 1UL)))
 8001760:	f04f 31ff 	mov.w	r1, #4294967295
 8001764:	697b      	ldr	r3, [r7, #20]
 8001766:	fa01 f303 	lsl.w	r3, r1, r3
 800176a:	43d9      	mvns	r1, r3
 800176c:	687b      	ldr	r3, [r7, #4]
 800176e:	400b      	ands	r3, r1
           ((PreemptPriority & (uint32_t)((1UL << (PreemptPriorityBits)) - 1UL)) << SubPriorityBits) |
 8001770:	4313      	orrs	r3, r2
         );
}
 8001772:	4618      	mov	r0, r3
 8001774:	3724      	adds	r7, #36	; 0x24
 8001776:	46bd      	mov	sp, r7
 8001778:	bc80      	pop	{r7}
 800177a:	4770      	bx	lr

0800177c <SysTick_Config>:
  \note    When the variable <b>__Vendor_SysTickConfig</b> is set to 1, then the
           function <b>SysTick_Config</b> is not included. In this case, the file <b><i>device</i>.h</b>
           must contain a vendor-specific implementation of this function.
 */
__STATIC_INLINE uint32_t SysTick_Config(uint32_t ticks)
{
 800177c:	b580      	push	{r7, lr}
 800177e:	b082      	sub	sp, #8
 8001780:	af00      	add	r7, sp, #0
 8001782:	6078      	str	r0, [r7, #4]
  if ((ticks - 1UL) > SysTick_LOAD_RELOAD_Msk)
 8001784:	687b      	ldr	r3, [r7, #4]
 8001786:	3b01      	subs	r3, #1
 8001788:	f1b3 7f80 	cmp.w	r3, #16777216	; 0x1000000
 800178c:	d301      	bcc.n	8001792 <SysTick_Config+0x16>
  {
    return (1UL);                                                   /* Reload value impossible */
 800178e:	2301      	movs	r3, #1
 8001790:	e00f      	b.n	80017b2 <SysTick_Config+0x36>
  }

  SysTick->LOAD  = (uint32_t)(ticks - 1UL);                         /* set reload register */
 8001792:	4a0a      	ldr	r2, [pc, #40]	; (80017bc <SysTick_Config+0x40>)
 8001794:	687b      	ldr	r3, [r7, #4]
 8001796:	3b01      	subs	r3, #1
 8001798:	6053      	str	r3, [r2, #4]
  NVIC_SetPriority (SysTick_IRQn, (1UL << __NVIC_PRIO_BITS) - 1UL); /* set Priority for Systick Interrupt */
 800179a:	210f      	movs	r1, #15
 800179c:	f04f 30ff 	mov.w	r0, #4294967295
 80017a0:	f7ff ff90 	bl	80016c4 <__NVIC_SetPriority>
  SysTick->VAL   = 0UL;                                             /* Load the SysTick Counter Value */
 80017a4:	4b05      	ldr	r3, [pc, #20]	; (80017bc <SysTick_Config+0x40>)
 80017a6:	2200      	movs	r2, #0
 80017a8:	609a      	str	r2, [r3, #8]
  SysTick->CTRL  = SysTick_CTRL_CLKSOURCE_Msk |
 80017aa:	4b04      	ldr	r3, [pc, #16]	; (80017bc <SysTick_Config+0x40>)
 80017ac:	2207      	movs	r2, #7
 80017ae:	601a      	str	r2, [r3, #0]
                   SysTick_CTRL_TICKINT_Msk   |
                   SysTick_CTRL_ENABLE_Msk;                         /* Enable SysTick IRQ and SysTick Timer */
  return (0UL);                                                     /* Function successful */
 80017b0:	2300      	movs	r3, #0
}
 80017b2:	4618      	mov	r0, r3
 80017b4:	3708      	adds	r7, #8
 80017b6:	46bd      	mov	sp, r7
 80017b8:	bd80      	pop	{r7, pc}
 80017ba:	bf00      	nop
 80017bc:	e000e010 	.word	0xe000e010

080017c0 <HAL_NVIC_SetPriorityGrouping>:
  * @note   When the NVIC_PriorityGroup_0 is selected, IRQ preemption is no more possible. 
  *         The pending IRQ priority will be managed only by the subpriority. 
  * @retval None
  */
void HAL_NVIC_SetPriorityGrouping(uint32_t PriorityGroup)
{
 80017c0:	b580      	push	{r7, lr}
 80017c2:	b082      	sub	sp, #8
 80017c4:	af00      	add	r7, sp, #0
 80017c6:	6078      	str	r0, [r7, #4]
  /* Check the parameters */
  assert_param(IS_NVIC_PRIORITY_GROUP(PriorityGroup));
  
  /* Set the PRIGROUP[10:8] bits according to the PriorityGroup parameter value */
  NVIC_SetPriorityGrouping(PriorityGroup);
 80017c8:	6878      	ldr	r0, [r7, #4]
 80017ca:	f7ff ff2d 	bl	8001628 <__NVIC_SetPriorityGrouping>
}
 80017ce:	bf00      	nop
 80017d0:	3708      	adds	r7, #8
 80017d2:	46bd      	mov	sp, r7
 80017d4:	bd80      	pop	{r7, pc}

080017d6 <HAL_NVIC_SetPriority>:
  *         This parameter can be a value between 0 and 15
  *         A lower priority value indicates a higher priority.          
  * @retval None
  */
void HAL_NVIC_SetPriority(IRQn_Type IRQn, uint32_t PreemptPriority, uint32_t SubPriority)
{ 
 80017d6:	b580      	push	{r7, lr}
 80017d8:	b086      	sub	sp, #24
 80017da:	af00      	add	r7, sp, #0
 80017dc:	4603      	mov	r3, r0
 80017de:	60b9      	str	r1, [r7, #8]
 80017e0:	607a      	str	r2, [r7, #4]
 80017e2:	73fb      	strb	r3, [r7, #15]
  uint32_t prioritygroup = 0x00U;
 80017e4:	2300      	movs	r3, #0
 80017e6:	617b      	str	r3, [r7, #20]
  
  /* Check the parameters */
  assert_param(IS_NVIC_SUB_PRIORITY(SubPriority));
  assert_param(IS_NVIC_PREEMPTION_PRIORITY(PreemptPriority));
  
  prioritygroup = NVIC_GetPriorityGrouping();
 80017e8:	f7ff ff42 	bl	8001670 <__NVIC_GetPriorityGrouping>
 80017ec:	6178      	str	r0, [r7, #20]
  
  NVIC_SetPriority(IRQn, NVIC_EncodePriority(prioritygroup, PreemptPriority, SubPriority));
 80017ee:	687a      	ldr	r2, [r7, #4]
 80017f0:	68b9      	ldr	r1, [r7, #8]
 80017f2:	6978      	ldr	r0, [r7, #20]
 80017f4:	f7ff ff90 	bl	8001718 <NVIC_EncodePriority>
 80017f8:	4602      	mov	r2, r0
 80017fa:	f997 300f 	ldrsb.w	r3, [r7, #15]
 80017fe:	4611      	mov	r1, r2
 8001800:	4618      	mov	r0, r3
 8001802:	f7ff ff5f 	bl	80016c4 <__NVIC_SetPriority>
}
 8001806:	bf00      	nop
 8001808:	3718      	adds	r7, #24
 800180a:	46bd      	mov	sp, r7
 800180c:	bd80      	pop	{r7, pc}

0800180e <HAL_NVIC_EnableIRQ>:
  *         This parameter can be an enumerator of IRQn_Type enumeration
  *         (For the complete STM32 Devices IRQ Channels list, please refer to the appropriate CMSIS device file (stm32f10xxx.h))
  * @retval None
  */
void HAL_NVIC_EnableIRQ(IRQn_Type IRQn)
{
 800180e:	b580      	push	{r7, lr}
 8001810:	b082      	sub	sp, #8
 8001812:	af00      	add	r7, sp, #0
 8001814:	4603      	mov	r3, r0
 8001816:	71fb      	strb	r3, [r7, #7]
  /* Check the parameters */
  assert_param(IS_NVIC_DEVICE_IRQ(IRQn));

  /* Enable interrupt */
  NVIC_EnableIRQ(IRQn);
 8001818:	f997 3007 	ldrsb.w	r3, [r7, #7]
 800181c:	4618      	mov	r0, r3
 800181e:	f7ff ff35 	bl	800168c <__NVIC_EnableIRQ>
}
 8001822:	bf00      	nop
 8001824:	3708      	adds	r7, #8
 8001826:	46bd      	mov	sp, r7
 8001828:	bd80      	pop	{r7, pc}

0800182a <HAL_SYSTICK_Config>:
  * @param  TicksNumb: Specifies the ticks Number of ticks between two interrupts.
  * @retval status:  - 0  Function succeeded.
  *                  - 1  Function failed.
  */
uint32_t HAL_SYSTICK_Config(uint32_t TicksNumb)
{
 800182a:	b580      	push	{r7, lr}
 800182c:	b082      	sub	sp, #8
 800182e:	af00      	add	r7, sp, #0
 8001830:	6078      	str	r0, [r7, #4]
   return SysTick_Config(TicksNumb);
 8001832:	6878      	ldr	r0, [r7, #4]
 8001834:	f7ff ffa2 	bl	800177c <SysTick_Config>
 8001838:	4603      	mov	r3, r0
}
 800183a:	4618      	mov	r0, r3
 800183c:	3708      	adds	r7, #8
 800183e:	46bd      	mov	sp, r7
 8001840:	bd80      	pop	{r7, pc}
	...

08001844 <HAL_DMA_Init>:
  * @param  hdma: Pointer to a DMA_HandleTypeDef structure that contains
  *               the configuration information for the specified DMA Channel.
  * @retval HAL status
  */
HAL_StatusTypeDef HAL_DMA_Init(DMA_HandleTypeDef *hdma)
{
 8001844:	b480      	push	{r7}
 8001846:	b085      	sub	sp, #20
 8001848:	af00      	add	r7, sp, #0
 800184a:	6078      	str	r0, [r7, #4]
  uint32_t tmp = 0U;
 800184c:	2300      	movs	r3, #0
 800184e:	60fb      	str	r3, [r7, #12]

  /* Check the DMA handle allocation */
  if(hdma == NULL)
 8001850:	687b      	ldr	r3, [r7, #4]
 8001852:	2b00      	cmp	r3, #0
 8001854:	d101      	bne.n	800185a <HAL_DMA_Init+0x16>
  {
    return HAL_ERROR;
 8001856:	2301      	movs	r3, #1
 8001858:	e043      	b.n	80018e2 <HAL_DMA_Init+0x9e>
    hdma->ChannelIndex = (((uint32_t)hdma->Instance - (uint32_t)DMA2_Channel1) / ((uint32_t)DMA2_Channel2 - (uint32_t)DMA2_Channel1)) << 2;
    hdma->DmaBaseAddress = DMA2;
  }
#else
  /* DMA1 */
  hdma->ChannelIndex = (((uint32_t)hdma->Instance - (uint32_t)DMA1_Channel1) / ((uint32_t)DMA1_Channel2 - (uint32_t)DMA1_Channel1)) << 2;
 800185a:	687b      	ldr	r3, [r7, #4]
 800185c:	681b      	ldr	r3, [r3, #0]
 800185e:	461a      	mov	r2, r3
 8001860:	4b22      	ldr	r3, [pc, #136]	; (80018ec <HAL_DMA_Init+0xa8>)
 8001862:	4413      	add	r3, r2
 8001864:	4a22      	ldr	r2, [pc, #136]	; (80018f0 <HAL_DMA_Init+0xac>)
 8001866:	fba2 2303 	umull	r2, r3, r2, r3
 800186a:	091b      	lsrs	r3, r3, #4
 800186c:	009a      	lsls	r2, r3, #2
 800186e:	687b      	ldr	r3, [r7, #4]
 8001870:	641a      	str	r2, [r3, #64]	; 0x40
  hdma->DmaBaseAddress = DMA1;
 8001872:	687b      	ldr	r3, [r7, #4]
 8001874:	4a1f      	ldr	r2, [pc, #124]	; (80018f4 <HAL_DMA_Init+0xb0>)
 8001876:	63da      	str	r2, [r3, #60]	; 0x3c
#endif /* DMA2 */

  /* Change DMA peripheral state */
  hdma->State = HAL_DMA_STATE_BUSY;
 8001878:	687b      	ldr	r3, [r7, #4]
 800187a:	2202      	movs	r2, #2
 800187c:	f883 2021 	strb.w	r2, [r3, #33]	; 0x21

  /* Get the CR register value */
  tmp = hdma->Instance->CCR;
 8001880:	687b      	ldr	r3, [r7, #4]
 8001882:	681b      	ldr	r3, [r3, #0]
 8001884:	681b      	ldr	r3, [r3, #0]
 8001886:	60fb      	str	r3, [r7, #12]

  /* Clear PL, MSIZE, PSIZE, MINC, PINC, CIRC and DIR bits */
  tmp &= ((uint32_t)~(DMA_CCR_PL    | DMA_CCR_MSIZE  | DMA_CCR_PSIZE  | \
 8001888:	68fb      	ldr	r3, [r7, #12]
 800188a:	f423 537f 	bic.w	r3, r3, #16320	; 0x3fc0
 800188e:	f023 0330 	bic.w	r3, r3, #48	; 0x30
 8001892:	60fb      	str	r3, [r7, #12]
                      DMA_CCR_MINC  | DMA_CCR_PINC   | DMA_CCR_CIRC   | \
                      DMA_CCR_DIR));

  /* Prepare the DMA Channel configuration */
  tmp |=  hdma->Init.Direction        |
 8001894:	687b      	ldr	r3, [r7, #4]
 8001896:	685a      	ldr	r2, [r3, #4]
          hdma->Init.PeriphInc           | hdma->Init.MemInc           |
 8001898:	687b      	ldr	r3, [r7, #4]
 800189a:	689b      	ldr	r3, [r3, #8]
  tmp |=  hdma->Init.Direction        |
 800189c:	431a      	orrs	r2, r3
          hdma->Init.PeriphInc           | hdma->Init.MemInc           |
 800189e:	687b      	ldr	r3, [r7, #4]
 80018a0:	68db      	ldr	r3, [r3, #12]
 80018a2:	431a      	orrs	r2, r3
          hdma->Init.PeriphDataAlignment | hdma->Init.MemDataAlignment |
 80018a4:	687b      	ldr	r3, [r7, #4]
 80018a6:	691b      	ldr	r3, [r3, #16]
          hdma->Init.PeriphInc           | hdma->Init.MemInc           |
 80018a8:	431a      	orrs	r2, r3
          hdma->Init.PeriphDataAlignment | hdma->Init.MemDataAlignment |
 80018aa:	687b      	ldr	r3, [r7, #4]
 80018ac:	695b      	ldr	r3, [r3, #20]
 80018ae:	431a      	orrs	r2, r3
          hdma->Init.Mode                | hdma->Init.Priority;
 80018b0:	687b      	ldr	r3, [r7, #4]
 80018b2:	699b      	ldr	r3, [r3, #24]
          hdma->Init.PeriphDataAlignment | hdma->Init.MemDataAlignment |
 80018b4:	431a      	orrs	r2, r3
          hdma->Init.Mode                | hdma->Init.Priority;
 80018b6:	687b      	ldr	r3, [r7, #4]
 80018b8:	69db      	ldr	r3, [r3, #28]
 80018ba:	4313      	orrs	r3, r2
  tmp |=  hdma->Init.Direction        |
 80018bc:	68fa      	ldr	r2, [r7, #12]
 80018be:	4313      	orrs	r3, r2
 80018c0:	60fb      	str	r3, [r7, #12]

  /* Write to DMA Channel CR register */
  hdma->Instance->CCR = tmp;
 80018c2:	687b      	ldr	r3, [r7, #4]
 80018c4:	681b      	ldr	r3, [r3, #0]
 80018c6:	68fa      	ldr	r2, [r7, #12]
 80018c8:	601a      	str	r2, [r3, #0]

  /* Initialise the error code */
  hdma->ErrorCode = HAL_DMA_ERROR_NONE;
 80018ca:	687b      	ldr	r3, [r7, #4]
 80018cc:	2200      	movs	r2, #0
 80018ce:	639a      	str	r2, [r3, #56]	; 0x38

  /* Initialize the DMA state*/
  hdma->State = HAL_DMA_STATE_READY;
 80018d0:	687b      	ldr	r3, [r7, #4]
 80018d2:	2201      	movs	r2, #1
 80018d4:	f883 2021 	strb.w	r2, [r3, #33]	; 0x21
  /* Allocate lock resource and initialize it */
  hdma->Lock = HAL_UNLOCKED;
 80018d8:	687b      	ldr	r3, [r7, #4]
 80018da:	2200      	movs	r2, #0
 80018dc:	f883 2020 	strb.w	r2, [r3, #32]

  return HAL_OK;
 80018e0:	2300      	movs	r3, #0
}
 80018e2:	4618      	mov	r0, r3
 80018e4:	3714      	adds	r7, #20
 80018e6:	46bd      	mov	sp, r7
 80018e8:	bc80      	pop	{r7}
 80018ea:	4770      	bx	lr
 80018ec:	bffdfff8 	.word	0xbffdfff8
 80018f0:	cccccccd 	.word	0xcccccccd
 80018f4:	40020000 	.word	0x40020000

080018f8 <HAL_DMA_IRQHandler>:
  * @param  hdma: pointer to a DMA_HandleTypeDef structure that contains
  *               the configuration information for the specified DMA Channel.  
  * @retval None
  */
void HAL_DMA_IRQHandler(DMA_HandleTypeDef *hdma)
{
 80018f8:	b580      	push	{r7, lr}
 80018fa:	b084      	sub	sp, #16
 80018fc:	af00      	add	r7, sp, #0
 80018fe:	6078      	str	r0, [r7, #4]
  uint32_t flag_it = hdma->DmaBaseAddress->ISR;
 8001900:	687b      	ldr	r3, [r7, #4]
 8001902:	6bdb      	ldr	r3, [r3, #60]	; 0x3c
 8001904:	681b      	ldr	r3, [r3, #0]
 8001906:	60fb      	str	r3, [r7, #12]
  uint32_t source_it = hdma->Instance->CCR;
 8001908:	687b      	ldr	r3, [r7, #4]
 800190a:	681b      	ldr	r3, [r3, #0]
 800190c:	681b      	ldr	r3, [r3, #0]
 800190e:	60bb      	str	r3, [r7, #8]
  
  /* Half Transfer Complete Interrupt management ******************************/
  if (((flag_it & (DMA_FLAG_HT1 << hdma->ChannelIndex)) != RESET) && ((source_it & DMA_IT_HT) != RESET))
 8001910:	687b      	ldr	r3, [r7, #4]
 8001912:	6c1b      	ldr	r3, [r3, #64]	; 0x40
 8001914:	2204      	movs	r2, #4
 8001916:	409a      	lsls	r2, r3
 8001918:	68fb      	ldr	r3, [r7, #12]
 800191a:	4013      	ands	r3, r2
 800191c:	2b00      	cmp	r3, #0
 800191e:	d04f      	beq.n	80019c0 <HAL_DMA_IRQHandler+0xc8>
 8001920:	68bb      	ldr	r3, [r7, #8]
 8001922:	f003 0304 	and.w	r3, r3, #4
 8001926:	2b00      	cmp	r3, #0
 8001928:	d04a      	beq.n	80019c0 <HAL_DMA_IRQHandler+0xc8>
  {
    /* Disable the half transfer interrupt if the DMA mode is not CIRCULAR */
    if((hdma->Instance->CCR & DMA_CCR_CIRC) == 0U)
 800192a:	687b      	ldr	r3, [r7, #4]
 800192c:	681b      	ldr	r3, [r3, #0]
 800192e:	681b      	ldr	r3, [r3, #0]
 8001930:	f003 0320 	and.w	r3, r3, #32
 8001934:	2b00      	cmp	r3, #0
 8001936:	d107      	bne.n	8001948 <HAL_DMA_IRQHandler+0x50>
    {
      /* Disable the half transfer interrupt */
      __HAL_DMA_DISABLE_IT(hdma, DMA_IT_HT);
 8001938:	687b      	ldr	r3, [r7, #4]
 800193a:	681b      	ldr	r3, [r3, #0]
 800193c:	681a      	ldr	r2, [r3, #0]
 800193e:	687b      	ldr	r3, [r7, #4]
 8001940:	681b      	ldr	r3, [r3, #0]
 8001942:	f022 0204 	bic.w	r2, r2, #4
 8001946:	601a      	str	r2, [r3, #0]
    }
    /* Clear the half transfer complete flag */
    __HAL_DMA_CLEAR_FLAG(hdma, __HAL_DMA_GET_HT_FLAG_INDEX(hdma));
 8001948:	687b      	ldr	r3, [r7, #4]
 800194a:	681b      	ldr	r3, [r3, #0]
 800194c:	4a66      	ldr	r2, [pc, #408]	; (8001ae8 <HAL_DMA_IRQHandler+0x1f0>)
 800194e:	4293      	cmp	r3, r2
 8001950:	d029      	beq.n	80019a6 <HAL_DMA_IRQHandler+0xae>
 8001952:	687b      	ldr	r3, [r7, #4]
 8001954:	681b      	ldr	r3, [r3, #0]
 8001956:	4a65      	ldr	r2, [pc, #404]	; (8001aec <HAL_DMA_IRQHandler+0x1f4>)
 8001958:	4293      	cmp	r3, r2
 800195a:	d022      	beq.n	80019a2 <HAL_DMA_IRQHandler+0xaa>
 800195c:	687b      	ldr	r3, [r7, #4]
 800195e:	681b      	ldr	r3, [r3, #0]
 8001960:	4a63      	ldr	r2, [pc, #396]	; (8001af0 <HAL_DMA_IRQHandler+0x1f8>)
 8001962:	4293      	cmp	r3, r2
 8001964:	d01a      	beq.n	800199c <HAL_DMA_IRQHandler+0xa4>
 8001966:	687b      	ldr	r3, [r7, #4]
 8001968:	681b      	ldr	r3, [r3, #0]
 800196a:	4a62      	ldr	r2, [pc, #392]	; (8001af4 <HAL_DMA_IRQHandler+0x1fc>)
 800196c:	4293      	cmp	r3, r2
 800196e:	d012      	beq.n	8001996 <HAL_DMA_IRQHandler+0x9e>
 8001970:	687b      	ldr	r3, [r7, #4]
 8001972:	681b      	ldr	r3, [r3, #0]
 8001974:	4a60      	ldr	r2, [pc, #384]	; (8001af8 <HAL_DMA_IRQHandler+0x200>)
 8001976:	4293      	cmp	r3, r2
 8001978:	d00a      	beq.n	8001990 <HAL_DMA_IRQHandler+0x98>
 800197a:	687b      	ldr	r3, [r7, #4]
 800197c:	681b      	ldr	r3, [r3, #0]
 800197e:	4a5f      	ldr	r2, [pc, #380]	; (8001afc <HAL_DMA_IRQHandler+0x204>)
 8001980:	4293      	cmp	r3, r2
 8001982:	d102      	bne.n	800198a <HAL_DMA_IRQHandler+0x92>
 8001984:	f44f 0380 	mov.w	r3, #4194304	; 0x400000
 8001988:	e00e      	b.n	80019a8 <HAL_DMA_IRQHandler+0xb0>
 800198a:	f04f 6380 	mov.w	r3, #67108864	; 0x4000000
 800198e:	e00b      	b.n	80019a8 <HAL_DMA_IRQHandler+0xb0>
 8001990:	f44f 2380 	mov.w	r3, #262144	; 0x40000
 8001994:	e008      	b.n	80019a8 <HAL_DMA_IRQHandler+0xb0>
 8001996:	f44f 4380 	mov.w	r3, #16384	; 0x4000
 800199a:	e005      	b.n	80019a8 <HAL_DMA_IRQHandler+0xb0>
 800199c:	f44f 6380 	mov.w	r3, #1024	; 0x400
 80019a0:	e002      	b.n	80019a8 <HAL_DMA_IRQHandler+0xb0>
 80019a2:	2340      	movs	r3, #64	; 0x40
 80019a4:	e000      	b.n	80019a8 <HAL_DMA_IRQHandler+0xb0>
 80019a6:	2304      	movs	r3, #4
 80019a8:	4a55      	ldr	r2, [pc, #340]	; (8001b00 <HAL_DMA_IRQHandler+0x208>)
 80019aa:	6053      	str	r3, [r2, #4]

    /* DMA peripheral state is not updated in Half Transfer */
    /* but in Transfer Complete case */

    if(hdma->XferHalfCpltCallback != NULL)
 80019ac:	687b      	ldr	r3, [r7, #4]
 80019ae:	6adb      	ldr	r3, [r3, #44]	; 0x2c
 80019b0:	2b00      	cmp	r3, #0
 80019b2:	f000 8094 	beq.w	8001ade <HAL_DMA_IRQHandler+0x1e6>
    {
      /* Half transfer callback */
      hdma->XferHalfCpltCallback(hdma);
 80019b6:	687b      	ldr	r3, [r7, #4]
 80019b8:	6adb      	ldr	r3, [r3, #44]	; 0x2c
 80019ba:	6878      	ldr	r0, [r7, #4]
 80019bc:	4798      	blx	r3
    if(hdma->XferHalfCpltCallback != NULL)
 80019be:	e08e      	b.n	8001ade <HAL_DMA_IRQHandler+0x1e6>
    }
  }

  /* Transfer Complete Interrupt management ***********************************/
  else if (((flag_it & (DMA_FLAG_TC1 << hdma->ChannelIndex)) != RESET) && ((source_it & DMA_IT_TC) != RESET))
 80019c0:	687b      	ldr	r3, [r7, #4]
 80019c2:	6c1b      	ldr	r3, [r3, #64]	; 0x40
 80019c4:	2202      	movs	r2, #2
 80019c6:	409a      	lsls	r2, r3
 80019c8:	68fb      	ldr	r3, [r7, #12]
 80019ca:	4013      	ands	r3, r2
 80019cc:	2b00      	cmp	r3, #0
 80019ce:	d056      	beq.n	8001a7e <HAL_DMA_IRQHandler+0x186>
 80019d0:	68bb      	ldr	r3, [r7, #8]
 80019d2:	f003 0302 	and.w	r3, r3, #2
 80019d6:	2b00      	cmp	r3, #0
 80019d8:	d051      	beq.n	8001a7e <HAL_DMA_IRQHandler+0x186>
  {
    if((hdma->Instance->CCR & DMA_CCR_CIRC) == 0U)
 80019da:	687b      	ldr	r3, [r7, #4]
 80019dc:	681b      	ldr	r3, [r3, #0]
 80019de:	681b      	ldr	r3, [r3, #0]
 80019e0:	f003 0320 	and.w	r3, r3, #32
 80019e4:	2b00      	cmp	r3, #0
 80019e6:	d10b      	bne.n	8001a00 <HAL_DMA_IRQHandler+0x108>
    {
      /* Disable the transfer complete and error interrupt */
      __HAL_DMA_DISABLE_IT(hdma, DMA_IT_TE | DMA_IT_TC);  
 80019e8:	687b      	ldr	r3, [r7, #4]
 80019ea:	681b      	ldr	r3, [r3, #0]
 80019ec:	681a      	ldr	r2, [r3, #0]
 80019ee:	687b      	ldr	r3, [r7, #4]
 80019f0:	681b      	ldr	r3, [r3, #0]
 80019f2:	f022 020a 	bic.w	r2, r2, #10
 80019f6:	601a      	str	r2, [r3, #0]

      /* Change the DMA state */
      hdma->State = HAL_DMA_STATE_READY;
 80019f8:	687b      	ldr	r3, [r7, #4]
 80019fa:	2201      	movs	r2, #1
 80019fc:	f883 2021 	strb.w	r2, [r3, #33]	; 0x21
    }
    /* Clear the transfer complete flag */
      __HAL_DMA_CLEAR_FLAG(hdma, __HAL_DMA_GET_TC_FLAG_INDEX(hdma));
 8001a00:	687b      	ldr	r3, [r7, #4]
 8001a02:	681b      	ldr	r3, [r3, #0]
 8001a04:	4a38      	ldr	r2, [pc, #224]	; (8001ae8 <HAL_DMA_IRQHandler+0x1f0>)
 8001a06:	4293      	cmp	r3, r2
 8001a08:	d029      	beq.n	8001a5e <HAL_DMA_IRQHandler+0x166>
 8001a0a:	687b      	ldr	r3, [r7, #4]
 8001a0c:	681b      	ldr	r3, [r3, #0]
 8001a0e:	4a37      	ldr	r2, [pc, #220]	; (8001aec <HAL_DMA_IRQHandler+0x1f4>)
 8001a10:	4293      	cmp	r3, r2
 8001a12:	d022      	beq.n	8001a5a <HAL_DMA_IRQHandler+0x162>
 8001a14:	687b      	ldr	r3, [r7, #4]
 8001a16:	681b      	ldr	r3, [r3, #0]
 8001a18:	4a35      	ldr	r2, [pc, #212]	; (8001af0 <HAL_DMA_IRQHandler+0x1f8>)
 8001a1a:	4293      	cmp	r3, r2
 8001a1c:	d01a      	beq.n	8001a54 <HAL_DMA_IRQHandler+0x15c>
 8001a1e:	687b      	ldr	r3, [r7, #4]
 8001a20:	681b      	ldr	r3, [r3, #0]
 8001a22:	4a34      	ldr	r2, [pc, #208]	; (8001af4 <HAL_DMA_IRQHandler+0x1fc>)
 8001a24:	4293      	cmp	r3, r2
 8001a26:	d012      	beq.n	8001a4e <HAL_DMA_IRQHandler+0x156>
 8001a28:	687b      	ldr	r3, [r7, #4]
 8001a2a:	681b      	ldr	r3, [r3, #0]
 8001a2c:	4a32      	ldr	r2, [pc, #200]	; (8001af8 <HAL_DMA_IRQHandler+0x200>)
 8001a2e:	4293      	cmp	r3, r2
 8001a30:	d00a      	beq.n	8001a48 <HAL_DMA_IRQHandler+0x150>
 8001a32:	687b      	ldr	r3, [r7, #4]
 8001a34:	681b      	ldr	r3, [r3, #0]
 8001a36:	4a31      	ldr	r2, [pc, #196]	; (8001afc <HAL_DMA_IRQHandler+0x204>)
 8001a38:	4293      	cmp	r3, r2
 8001a3a:	d102      	bne.n	8001a42 <HAL_DMA_IRQHandler+0x14a>
 8001a3c:	f44f 1300 	mov.w	r3, #2097152	; 0x200000
 8001a40:	e00e      	b.n	8001a60 <HAL_DMA_IRQHandler+0x168>
 8001a42:	f04f 7300 	mov.w	r3, #33554432	; 0x2000000
 8001a46:	e00b      	b.n	8001a60 <HAL_DMA_IRQHandler+0x168>
 8001a48:	f44f 3300 	mov.w	r3, #131072	; 0x20000
 8001a4c:	e008      	b.n	8001a60 <HAL_DMA_IRQHandler+0x168>
 8001a4e:	f44f 5300 	mov.w	r3, #8192	; 0x2000
 8001a52:	e005      	b.n	8001a60 <HAL_DMA_IRQHandler+0x168>
 8001a54:	f44f 7300 	mov.w	r3, #512	; 0x200
 8001a58:	e002      	b.n	8001a60 <HAL_DMA_IRQHandler+0x168>
 8001a5a:	2320      	movs	r3, #32
 8001a5c:	e000      	b.n	8001a60 <HAL_DMA_IRQHandler+0x168>
 8001a5e:	2302      	movs	r3, #2
 8001a60:	4a27      	ldr	r2, [pc, #156]	; (8001b00 <HAL_DMA_IRQHandler+0x208>)
 8001a62:	6053      	str	r3, [r2, #4]

    /* Process Unlocked */
    __HAL_UNLOCK(hdma);
 8001a64:	687b      	ldr	r3, [r7, #4]
 8001a66:	2200      	movs	r2, #0
 8001a68:	f883 2020 	strb.w	r2, [r3, #32]

    if(hdma->XferCpltCallback != NULL)
 8001a6c:	687b      	ldr	r3, [r7, #4]
 8001a6e:	6a9b      	ldr	r3, [r3, #40]	; 0x28
 8001a70:	2b00      	cmp	r3, #0
 8001a72:	d034      	beq.n	8001ade <HAL_DMA_IRQHandler+0x1e6>
    {
      /* Transfer complete callback */
      hdma->XferCpltCallback(hdma);
 8001a74:	687b      	ldr	r3, [r7, #4]
 8001a76:	6a9b      	ldr	r3, [r3, #40]	; 0x28
 8001a78:	6878      	ldr	r0, [r7, #4]
 8001a7a:	4798      	blx	r3
    if(hdma->XferCpltCallback != NULL)
 8001a7c:	e02f      	b.n	8001ade <HAL_DMA_IRQHandler+0x1e6>
    }
  }

  /* Transfer Error Interrupt management **************************************/
  else if (( RESET != (flag_it & (DMA_FLAG_TE1 << hdma->ChannelIndex))) && (RESET != (source_it & DMA_IT_TE)))
 8001a7e:	687b      	ldr	r3, [r7, #4]
 8001a80:	6c1b      	ldr	r3, [r3, #64]	; 0x40
 8001a82:	2208      	movs	r2, #8
 8001a84:	409a      	lsls	r2, r3
 8001a86:	68fb      	ldr	r3, [r7, #12]
 8001a88:	4013      	ands	r3, r2
 8001a8a:	2b00      	cmp	r3, #0
 8001a8c:	d028      	beq.n	8001ae0 <HAL_DMA_IRQHandler+0x1e8>
 8001a8e:	68bb      	ldr	r3, [r7, #8]
 8001a90:	f003 0308 	and.w	r3, r3, #8
 8001a94:	2b00      	cmp	r3, #0
 8001a96:	d023      	beq.n	8001ae0 <HAL_DMA_IRQHandler+0x1e8>
  {
    /* When a DMA transfer error occurs */
    /* A hardware clear of its EN bits is performed */
    /* Disable ALL DMA IT */
    __HAL_DMA_DISABLE_IT(hdma, (DMA_IT_TC | DMA_IT_HT | DMA_IT_TE));
 8001a98:	687b      	ldr	r3, [r7, #4]
 8001a9a:	681b      	ldr	r3, [r3, #0]
 8001a9c:	681a      	ldr	r2, [r3, #0]
 8001a9e:	687b      	ldr	r3, [r7, #4]
 8001aa0:	681b      	ldr	r3, [r3, #0]
 8001aa2:	f022 020e 	bic.w	r2, r2, #14
 8001aa6:	601a      	str	r2, [r3, #0]

    /* Clear all flags */
    hdma->DmaBaseAddress->IFCR = (DMA_ISR_GIF1 << hdma->ChannelIndex);
 8001aa8:	687b      	ldr	r3, [r7, #4]
 8001aaa:	6c1a      	ldr	r2, [r3, #64]	; 0x40
 8001aac:	687b      	ldr	r3, [r7, #4]
 8001aae:	6bdb      	ldr	r3, [r3, #60]	; 0x3c
 8001ab0:	2101      	movs	r1, #1
 8001ab2:	fa01 f202 	lsl.w	r2, r1, r2
 8001ab6:	605a      	str	r2, [r3, #4]

    /* Update error code */
    hdma->ErrorCode = HAL_DMA_ERROR_TE;
 8001ab8:	687b      	ldr	r3, [r7, #4]
 8001aba:	2201      	movs	r2, #1
 8001abc:	639a      	str	r2, [r3, #56]	; 0x38

    /* Change the DMA state */
    hdma->State = HAL_DMA_STATE_READY;
 8001abe:	687b      	ldr	r3, [r7, #4]
 8001ac0:	2201      	movs	r2, #1
 8001ac2:	f883 2021 	strb.w	r2, [r3, #33]	; 0x21

    /* Process Unlocked */
    __HAL_UNLOCK(hdma);
 8001ac6:	687b      	ldr	r3, [r7, #4]
 8001ac8:	2200      	movs	r2, #0
 8001aca:	f883 2020 	strb.w	r2, [r3, #32]

    if (hdma->XferErrorCallback != NULL)
 8001ace:	687b      	ldr	r3, [r7, #4]
 8001ad0:	6b1b      	ldr	r3, [r3, #48]	; 0x30
 8001ad2:	2b00      	cmp	r3, #0
 8001ad4:	d004      	beq.n	8001ae0 <HAL_DMA_IRQHandler+0x1e8>
    {
      /* Transfer error callback */
      hdma->XferErrorCallback(hdma);
 8001ad6:	687b      	ldr	r3, [r7, #4]
 8001ad8:	6b1b      	ldr	r3, [r3, #48]	; 0x30
 8001ada:	6878      	ldr	r0, [r7, #4]
 8001adc:	4798      	blx	r3
    }
  }
  return;
 8001ade:	bf00      	nop
 8001ae0:	bf00      	nop
}
 8001ae2:	3710      	adds	r7, #16
 8001ae4:	46bd      	mov	sp, r7
 8001ae6:	bd80      	pop	{r7, pc}
 8001ae8:	40020008 	.word	0x40020008
 8001aec:	4002001c 	.word	0x4002001c
 8001af0:	40020030 	.word	0x40020030
 8001af4:	40020044 	.word	0x40020044
 8001af8:	40020058 	.word	0x40020058
 8001afc:	4002006c 	.word	0x4002006c
 8001b00:	40020000 	.word	0x40020000

08001b04 <HAL_GPIO_Init>:
  * @param  GPIO_Init: pointer to a GPIO_InitTypeDef structure that contains
  *         the configuration information for the specified GPIO peripheral.
  * @retval None
  */
void HAL_GPIO_Init(GPIO_TypeDef  *GPIOx, GPIO_InitTypeDef *GPIO_Init)
{
 8001b04:	b480      	push	{r7}
 8001b06:	b08b      	sub	sp, #44	; 0x2c
 8001b08:	af00      	add	r7, sp, #0
 8001b0a:	6078      	str	r0, [r7, #4]
 8001b0c:	6039      	str	r1, [r7, #0]
  uint32_t position = 0x00u;
 8001b0e:	2300      	movs	r3, #0
 8001b10:	627b      	str	r3, [r7, #36]	; 0x24
  uint32_t ioposition;
  uint32_t iocurrent;
  uint32_t temp;
  uint32_t config = 0x00u;
 8001b12:	2300      	movs	r3, #0
 8001b14:	623b      	str	r3, [r7, #32]
  assert_param(IS_GPIO_ALL_INSTANCE(GPIOx));
  assert_param(IS_GPIO_PIN(GPIO_Init->Pin));
  assert_param(IS_GPIO_MODE(GPIO_Init->Mode));

  /* Configure the port pins */
  while (((GPIO_Init->Pin) >> position) != 0x00u)
 8001b16:	e161      	b.n	8001ddc <HAL_GPIO_Init+0x2d8>
  {
    /* Get the IO position */
    ioposition = (0x01uL << position);
 8001b18:	2201      	movs	r2, #1
 8001b1a:	6a7b      	ldr	r3, [r7, #36]	; 0x24
 8001b1c:	fa02 f303 	lsl.w	r3, r2, r3
 8001b20:	61fb      	str	r3, [r7, #28]

    /* Get the current IO position */
    iocurrent = (uint32_t)(GPIO_Init->Pin) & ioposition;
 8001b22:	683b      	ldr	r3, [r7, #0]
 8001b24:	681b      	ldr	r3, [r3, #0]
 8001b26:	69fa      	ldr	r2, [r7, #28]
 8001b28:	4013      	ands	r3, r2
 8001b2a:	61bb      	str	r3, [r7, #24]

    if (iocurrent == ioposition)
 8001b2c:	69ba      	ldr	r2, [r7, #24]
 8001b2e:	69fb      	ldr	r3, [r7, #28]
 8001b30:	429a      	cmp	r2, r3
 8001b32:	f040 8150 	bne.w	8001dd6 <HAL_GPIO_Init+0x2d2>
    {
      /* Check the Alternate function parameters */
      assert_param(IS_GPIO_AF_INSTANCE(GPIOx));

      /* Based on the required mode, filling config variable with MODEy[1:0] and CNFy[3:2] corresponding bits */
      switch (GPIO_Init->Mode)
 8001b36:	683b      	ldr	r3, [r7, #0]
 8001b38:	685b      	ldr	r3, [r3, #4]
 8001b3a:	4a97      	ldr	r2, [pc, #604]	; (8001d98 <HAL_GPIO_Init+0x294>)
 8001b3c:	4293      	cmp	r3, r2
 8001b3e:	d05e      	beq.n	8001bfe <HAL_GPIO_Init+0xfa>
 8001b40:	4a95      	ldr	r2, [pc, #596]	; (8001d98 <HAL_GPIO_Init+0x294>)
 8001b42:	4293      	cmp	r3, r2
 8001b44:	d875      	bhi.n	8001c32 <HAL_GPIO_Init+0x12e>
 8001b46:	4a95      	ldr	r2, [pc, #596]	; (8001d9c <HAL_GPIO_Init+0x298>)
 8001b48:	4293      	cmp	r3, r2
 8001b4a:	d058      	beq.n	8001bfe <HAL_GPIO_Init+0xfa>
 8001b4c:	4a93      	ldr	r2, [pc, #588]	; (8001d9c <HAL_GPIO_Init+0x298>)
 8001b4e:	4293      	cmp	r3, r2
 8001b50:	d86f      	bhi.n	8001c32 <HAL_GPIO_Init+0x12e>
 8001b52:	4a93      	ldr	r2, [pc, #588]	; (8001da0 <HAL_GPIO_Init+0x29c>)
 8001b54:	4293      	cmp	r3, r2
 8001b56:	d052      	beq.n	8001bfe <HAL_GPIO_Init+0xfa>
 8001b58:	4a91      	ldr	r2, [pc, #580]	; (8001da0 <HAL_GPIO_Init+0x29c>)
 8001b5a:	4293      	cmp	r3, r2
 8001b5c:	d869      	bhi.n	8001c32 <HAL_GPIO_Init+0x12e>
 8001b5e:	4a91      	ldr	r2, [pc, #580]	; (8001da4 <HAL_GPIO_Init+0x2a0>)
 8001b60:	4293      	cmp	r3, r2
 8001b62:	d04c      	beq.n	8001bfe <HAL_GPIO_Init+0xfa>
 8001b64:	4a8f      	ldr	r2, [pc, #572]	; (8001da4 <HAL_GPIO_Init+0x2a0>)
 8001b66:	4293      	cmp	r3, r2
 8001b68:	d863      	bhi.n	8001c32 <HAL_GPIO_Init+0x12e>
 8001b6a:	4a8f      	ldr	r2, [pc, #572]	; (8001da8 <HAL_GPIO_Init+0x2a4>)
 8001b6c:	4293      	cmp	r3, r2
 8001b6e:	d046      	beq.n	8001bfe <HAL_GPIO_Init+0xfa>
 8001b70:	4a8d      	ldr	r2, [pc, #564]	; (8001da8 <HAL_GPIO_Init+0x2a4>)
 8001b72:	4293      	cmp	r3, r2
 8001b74:	d85d      	bhi.n	8001c32 <HAL_GPIO_Init+0x12e>
 8001b76:	2b12      	cmp	r3, #18
 8001b78:	d82a      	bhi.n	8001bd0 <HAL_GPIO_Init+0xcc>
 8001b7a:	2b12      	cmp	r3, #18
 8001b7c:	d859      	bhi.n	8001c32 <HAL_GPIO_Init+0x12e>
 8001b7e:	a201      	add	r2, pc, #4	; (adr r2, 8001b84 <HAL_GPIO_Init+0x80>)
 8001b80:	f852 f023 	ldr.w	pc, [r2, r3, lsl #2]
 8001b84:	08001bff 	.word	0x08001bff
 8001b88:	08001bd9 	.word	0x08001bd9
 8001b8c:	08001beb 	.word	0x08001beb
 8001b90:	08001c2d 	.word	0x08001c2d
 8001b94:	08001c33 	.word	0x08001c33
 8001b98:	08001c33 	.word	0x08001c33
 8001b9c:	08001c33 	.word	0x08001c33
 8001ba0:	08001c33 	.word	0x08001c33
 8001ba4:	08001c33 	.word	0x08001c33
 8001ba8:	08001c33 	.word	0x08001c33
 8001bac:	08001c33 	.word	0x08001c33
 8001bb0:	08001c33 	.word	0x08001c33
 8001bb4:	08001c33 	.word	0x08001c33
 8001bb8:	08001c33 	.word	0x08001c33
 8001bbc:	08001c33 	.word	0x08001c33
 8001bc0:	08001c33 	.word	0x08001c33
 8001bc4:	08001c33 	.word	0x08001c33
 8001bc8:	08001be1 	.word	0x08001be1
 8001bcc:	08001bf5 	.word	0x08001bf5
 8001bd0:	4a76      	ldr	r2, [pc, #472]	; (8001dac <HAL_GPIO_Init+0x2a8>)
 8001bd2:	4293      	cmp	r3, r2
 8001bd4:	d013      	beq.n	8001bfe <HAL_GPIO_Init+0xfa>
          config = GPIO_CR_MODE_INPUT + GPIO_CR_CNF_ANALOG;
          break;

        /* Parameters are checked with assert_param */
        default:
          break;
 8001bd6:	e02c      	b.n	8001c32 <HAL_GPIO_Init+0x12e>
          config = GPIO_Init->Speed + GPIO_CR_CNF_GP_OUTPUT_PP;
 8001bd8:	683b      	ldr	r3, [r7, #0]
 8001bda:	68db      	ldr	r3, [r3, #12]
 8001bdc:	623b      	str	r3, [r7, #32]
          break;
 8001bde:	e029      	b.n	8001c34 <HAL_GPIO_Init+0x130>
          config = GPIO_Init->Speed + GPIO_CR_CNF_GP_OUTPUT_OD;
 8001be0:	683b      	ldr	r3, [r7, #0]
 8001be2:	68db      	ldr	r3, [r3, #12]
 8001be4:	3304      	adds	r3, #4
 8001be6:	623b      	str	r3, [r7, #32]
          break;
 8001be8:	e024      	b.n	8001c34 <HAL_GPIO_Init+0x130>
          config = GPIO_Init->Speed + GPIO_CR_CNF_AF_OUTPUT_PP;
 8001bea:	683b      	ldr	r3, [r7, #0]
 8001bec:	68db      	ldr	r3, [r3, #12]
 8001bee:	3308      	adds	r3, #8
 8001bf0:	623b      	str	r3, [r7, #32]
          break;
 8001bf2:	e01f      	b.n	8001c34 <HAL_GPIO_Init+0x130>
          config = GPIO_Init->Speed + GPIO_CR_CNF_AF_OUTPUT_OD;
 8001bf4:	683b      	ldr	r3, [r7, #0]
 8001bf6:	68db      	ldr	r3, [r3, #12]
 8001bf8:	330c      	adds	r3, #12
 8001bfa:	623b      	str	r3, [r7, #32]
          break;
 8001bfc:	e01a      	b.n	8001c34 <HAL_GPIO_Init+0x130>
          if (GPIO_Init->Pull == GPIO_NOPULL)
 8001bfe:	683b      	ldr	r3, [r7, #0]
 8001c00:	689b      	ldr	r3, [r3, #8]
 8001c02:	2b00      	cmp	r3, #0
 8001c04:	d102      	bne.n	8001c0c <HAL_GPIO_Init+0x108>
            config = GPIO_CR_MODE_INPUT + GPIO_CR_CNF_INPUT_FLOATING;
 8001c06:	2304      	movs	r3, #4
 8001c08:	623b      	str	r3, [r7, #32]
          break;
 8001c0a:	e013      	b.n	8001c34 <HAL_GPIO_Init+0x130>
          else if (GPIO_Init->Pull == GPIO_PULLUP)
 8001c0c:	683b      	ldr	r3, [r7, #0]
 8001c0e:	689b      	ldr	r3, [r3, #8]
 8001c10:	2b01      	cmp	r3, #1
 8001c12:	d105      	bne.n	8001c20 <HAL_GPIO_Init+0x11c>
            config = GPIO_CR_MODE_INPUT + GPIO_CR_CNF_INPUT_PU_PD;
 8001c14:	2308      	movs	r3, #8
 8001c16:	623b      	str	r3, [r7, #32]
            GPIOx->BSRR = ioposition;
 8001c18:	687b      	ldr	r3, [r7, #4]
 8001c1a:	69fa      	ldr	r2, [r7, #28]
 8001c1c:	611a      	str	r2, [r3, #16]
          break;
 8001c1e:	e009      	b.n	8001c34 <HAL_GPIO_Init+0x130>
            config = GPIO_CR_MODE_INPUT + GPIO_CR_CNF_INPUT_PU_PD;
 8001c20:	2308      	movs	r3, #8
 8001c22:	623b      	str	r3, [r7, #32]
            GPIOx->BRR = ioposition;
 8001c24:	687b      	ldr	r3, [r7, #4]
 8001c26:	69fa      	ldr	r2, [r7, #28]
 8001c28:	615a      	str	r2, [r3, #20]
          break;
 8001c2a:	e003      	b.n	8001c34 <HAL_GPIO_Init+0x130>
          config = GPIO_CR_MODE_INPUT + GPIO_CR_CNF_ANALOG;
 8001c2c:	2300      	movs	r3, #0
 8001c2e:	623b      	str	r3, [r7, #32]
          break;
 8001c30:	e000      	b.n	8001c34 <HAL_GPIO_Init+0x130>
          break;
 8001c32:	bf00      	nop
      }

      /* Check if the current bit belongs to first half or last half of the pin count number
       in order to address CRH or CRL register*/
      configregister = (iocurrent < GPIO_PIN_8) ? &GPIOx->CRL     : &GPIOx->CRH;
 8001c34:	69bb      	ldr	r3, [r7, #24]
 8001c36:	2bff      	cmp	r3, #255	; 0xff
 8001c38:	d801      	bhi.n	8001c3e <HAL_GPIO_Init+0x13a>
 8001c3a:	687b      	ldr	r3, [r7, #4]
 8001c3c:	e001      	b.n	8001c42 <HAL_GPIO_Init+0x13e>
 8001c3e:	687b      	ldr	r3, [r7, #4]
 8001c40:	3304      	adds	r3, #4
 8001c42:	617b      	str	r3, [r7, #20]
      registeroffset = (iocurrent < GPIO_PIN_8) ? (position << 2u) : ((position - 8u) << 2u);
 8001c44:	69bb      	ldr	r3, [r7, #24]
 8001c46:	2bff      	cmp	r3, #255	; 0xff
 8001c48:	d802      	bhi.n	8001c50 <HAL_GPIO_Init+0x14c>
 8001c4a:	6a7b      	ldr	r3, [r7, #36]	; 0x24
 8001c4c:	009b      	lsls	r3, r3, #2
 8001c4e:	e002      	b.n	8001c56 <HAL_GPIO_Init+0x152>
 8001c50:	6a7b      	ldr	r3, [r7, #36]	; 0x24
 8001c52:	3b08      	subs	r3, #8
 8001c54:	009b      	lsls	r3, r3, #2
 8001c56:	613b      	str	r3, [r7, #16]

      /* Apply the new configuration of the pin to the register */
      MODIFY_REG((*configregister), ((GPIO_CRL_MODE0 | GPIO_CRL_CNF0) << registeroffset), (config << registeroffset));
 8001c58:	697b      	ldr	r3, [r7, #20]
 8001c5a:	681a      	ldr	r2, [r3, #0]
 8001c5c:	210f      	movs	r1, #15
 8001c5e:	693b      	ldr	r3, [r7, #16]
 8001c60:	fa01 f303 	lsl.w	r3, r1, r3
 8001c64:	43db      	mvns	r3, r3
 8001c66:	401a      	ands	r2, r3
 8001c68:	6a39      	ldr	r1, [r7, #32]
 8001c6a:	693b      	ldr	r3, [r7, #16]
 8001c6c:	fa01 f303 	lsl.w	r3, r1, r3
 8001c70:	431a      	orrs	r2, r3
 8001c72:	697b      	ldr	r3, [r7, #20]
 8001c74:	601a      	str	r2, [r3, #0]

      /*--------------------- EXTI Mode Configuration ------------------------*/
      /* Configure the External Interrupt or event for the current IO */
      if ((GPIO_Init->Mode & EXTI_MODE) == EXTI_MODE)
 8001c76:	683b      	ldr	r3, [r7, #0]
 8001c78:	685b      	ldr	r3, [r3, #4]
 8001c7a:	f003 5380 	and.w	r3, r3, #268435456	; 0x10000000
 8001c7e:	2b00      	cmp	r3, #0
 8001c80:	f000 80a9 	beq.w	8001dd6 <HAL_GPIO_Init+0x2d2>
      {
        /* Enable AFIO Clock */
        __HAL_RCC_AFIO_CLK_ENABLE();
 8001c84:	4b4a      	ldr	r3, [pc, #296]	; (8001db0 <HAL_GPIO_Init+0x2ac>)
 8001c86:	699b      	ldr	r3, [r3, #24]
 8001c88:	4a49      	ldr	r2, [pc, #292]	; (8001db0 <HAL_GPIO_Init+0x2ac>)
 8001c8a:	f043 0301 	orr.w	r3, r3, #1
 8001c8e:	6193      	str	r3, [r2, #24]
 8001c90:	4b47      	ldr	r3, [pc, #284]	; (8001db0 <HAL_GPIO_Init+0x2ac>)
 8001c92:	699b      	ldr	r3, [r3, #24]
 8001c94:	f003 0301 	and.w	r3, r3, #1
 8001c98:	60bb      	str	r3, [r7, #8]
 8001c9a:	68bb      	ldr	r3, [r7, #8]
        temp = AFIO->EXTICR[position >> 2u];
 8001c9c:	4a45      	ldr	r2, [pc, #276]	; (8001db4 <HAL_GPIO_Init+0x2b0>)
 8001c9e:	6a7b      	ldr	r3, [r7, #36]	; 0x24
 8001ca0:	089b      	lsrs	r3, r3, #2
 8001ca2:	3302      	adds	r3, #2
 8001ca4:	f852 3023 	ldr.w	r3, [r2, r3, lsl #2]
 8001ca8:	60fb      	str	r3, [r7, #12]
        CLEAR_BIT(temp, (0x0Fu) << (4u * (position & 0x03u)));
 8001caa:	6a7b      	ldr	r3, [r7, #36]	; 0x24
 8001cac:	f003 0303 	and.w	r3, r3, #3
 8001cb0:	009b      	lsls	r3, r3, #2
 8001cb2:	220f      	movs	r2, #15
 8001cb4:	fa02 f303 	lsl.w	r3, r2, r3
 8001cb8:	43db      	mvns	r3, r3
 8001cba:	68fa      	ldr	r2, [r7, #12]
 8001cbc:	4013      	ands	r3, r2
 8001cbe:	60fb      	str	r3, [r7, #12]
        SET_BIT(temp, (GPIO_GET_INDEX(GPIOx)) << (4u * (position & 0x03u)));
 8001cc0:	687b      	ldr	r3, [r7, #4]
 8001cc2:	4a3d      	ldr	r2, [pc, #244]	; (8001db8 <HAL_GPIO_Init+0x2b4>)
 8001cc4:	4293      	cmp	r3, r2
 8001cc6:	d00d      	beq.n	8001ce4 <HAL_GPIO_Init+0x1e0>
 8001cc8:	687b      	ldr	r3, [r7, #4]
 8001cca:	4a3c      	ldr	r2, [pc, #240]	; (8001dbc <HAL_GPIO_Init+0x2b8>)
 8001ccc:	4293      	cmp	r3, r2
 8001cce:	d007      	beq.n	8001ce0 <HAL_GPIO_Init+0x1dc>
 8001cd0:	687b      	ldr	r3, [r7, #4]
 8001cd2:	4a3b      	ldr	r2, [pc, #236]	; (8001dc0 <HAL_GPIO_Init+0x2bc>)
 8001cd4:	4293      	cmp	r3, r2
 8001cd6:	d101      	bne.n	8001cdc <HAL_GPIO_Init+0x1d8>
 8001cd8:	2302      	movs	r3, #2
 8001cda:	e004      	b.n	8001ce6 <HAL_GPIO_Init+0x1e2>
 8001cdc:	2303      	movs	r3, #3
 8001cde:	e002      	b.n	8001ce6 <HAL_GPIO_Init+0x1e2>
 8001ce0:	2301      	movs	r3, #1
 8001ce2:	e000      	b.n	8001ce6 <HAL_GPIO_Init+0x1e2>
 8001ce4:	2300      	movs	r3, #0
 8001ce6:	6a7a      	ldr	r2, [r7, #36]	; 0x24
 8001ce8:	f002 0203 	and.w	r2, r2, #3
 8001cec:	0092      	lsls	r2, r2, #2
 8001cee:	4093      	lsls	r3, r2
 8001cf0:	68fa      	ldr	r2, [r7, #12]
 8001cf2:	4313      	orrs	r3, r2
 8001cf4:	60fb      	str	r3, [r7, #12]
        AFIO->EXTICR[position >> 2u] = temp;
 8001cf6:	492f      	ldr	r1, [pc, #188]	; (8001db4 <HAL_GPIO_Init+0x2b0>)
 8001cf8:	6a7b      	ldr	r3, [r7, #36]	; 0x24
 8001cfa:	089b      	lsrs	r3, r3, #2
 8001cfc:	3302      	adds	r3, #2
 8001cfe:	68fa      	ldr	r2, [r7, #12]
 8001d00:	f841 2023 	str.w	r2, [r1, r3, lsl #2]


        /* Configure the interrupt mask */
        if ((GPIO_Init->Mode & GPIO_MODE_IT) == GPIO_MODE_IT)
 8001d04:	683b      	ldr	r3, [r7, #0]
 8001d06:	685b      	ldr	r3, [r3, #4]
 8001d08:	f403 3380 	and.w	r3, r3, #65536	; 0x10000
 8001d0c:	2b00      	cmp	r3, #0
 8001d0e:	d006      	beq.n	8001d1e <HAL_GPIO_Init+0x21a>
        {
          SET_BIT(EXTI->IMR, iocurrent);
 8001d10:	4b2c      	ldr	r3, [pc, #176]	; (8001dc4 <HAL_GPIO_Init+0x2c0>)
